:020000040000FA
:06000000020B0E0201CA12
:030013000201EDFA
:03002B0002083E8A
:030033000206EBD7
:03003B000202427C
:030053000201099E
:03006B000206C5C5
:100083000201660101FF01010503010F10FEFF9349
:10009300139313931393134912431293139D240041
:1000A3000000006125000000000C0000000C0001AE
:1000B3000000C7150000000000007B1600000000D0
:1000C300000000000000FFFF0102005B06000000CB
:1000D300CE06E80364006400B801020200080000D1
:1000E30005020701051E02051E020A0A03B80B02D8
:1000F300803E010201FFFF0A1401E096511800023D
:100103000206FFFFFF00C0E074F212048AA2AFE40C
:1001130033FED2AFE5A7FFE5A1F5085F54106006F3
:10012300121D1775A1EFE5085F54086008121D1D25
:1001330075A1F78024E508A2E092F0EFA2E082F037
:100143005017906198E0F89008AAE0C398A2D2658E
:10015300D0335002E8F075A1FEEEA2E092AF7F012A
:100163000204E9C0E074F212048AA2AFE433FED2BF
:10017300AF9061A4E0F8759B00E5915854086008BE
:100183007591F7121D658023E59158541060087529
:1001930091EF121D6B8014E591A2E092F0E8A2E0CA
:1001A30082F05007E0C2E0F0121EAF9061A3E0F8C6
:1001B300E5E9585404600E121E8575E9FB906193BE
:1001C300E0A2E640F28092C0E074F212048AA2AF89
:1001D300E433FED2AF9061A5E0F8E5BF5854046064
:1001E3000675BFFB121EC702015CC0E0C0D0E8C0A9
:1001F300E0E9C0E0C082C083E5C1C0E0900816E03A
:10020300F8749528F58274073400F583D0E0F090F4
:100213000815E0F8A3E0687006E595900818F090DB
:100223000816E004F0C394804002E4F0A374C6F01F
:10023300D083D082D0E0F9D0E0F8D0D0D0E032C083
:10024300E0C0D0E8C0E0C008C009C082C083900805
:1002530099E0F8A3E0687008539AFBA37401802621
:10026300C2E9900899E0F50874012508F07419258E
:1002730008F58274083400F583E0F5C1900899E02D
:10028300C394804002E4F0D083D082D009D00880A8
:10029300A6C3E498F8E499F91202D58026C3E49A38
:1002A300FAE49BFBE920E7E91202D5E498F8E49924
:1002B300F922C3E498F8E499F91202D5E498F8E432
:1002C30099F9C3E49AFAE49BFB22EB20E7CFE920F8
:1002D300E7E0B90010BB0008E88AF084F8AAF0222E
:1002E300E4FBC8FA22EB70227B10C833C8C933C9B8
:1002F300335007C39AC3DBF280069A50012ADBEA24
:10030300C833F4C8C933F4C9FA2275F008E4C83312
:10031300C8C933C933C99AC99B5004C92AC93BD533
:10032300F0ECFBC833F4C8E4C9FA22080808EAC0B1
:10033300E0EBC0E086F0E7A4FA180986F0E7A42A08
:10034300FA180986F0E7A42AFA180986F0E7A42A1E
:10035300FA1986F0E7A4FBE5F02AFA190886F0E714
:10036300A42BFBE5F03AFA190886F0E7A42BFBE58A
:10037300F03AFA18180986F0E7A4C5F02BFBE43A23
:10038300FA1908E7C5F0C6A426F6E5F03BFBE43A04
:10039300FA1886F0E7A4F6E5F00826F6E43B08F63B
:1003A300E43A08F6D0E0FBD0E0FA22E4CFC0E0E480
:1003B300CEC0E0E4CDC0E0E4CCC0E075F020C3E6FD
:1003C30033F608E633F608E633F608E633F618188C
:1003D30018EC33FCED33FDEE33FEEF33FFC3EC9744
:1003E30009ED9709EE9709EF97191919400FFFECDB
:1003F30097FC09ED97FD09EE97FE191906D5F0BE96
:10040300ECF709EDF709EEF709EFF7191919D0E041
:10041300FCD0E0FDD0E0FED0E0FF222521C582C064
:10042300E0E52234FFC583C0E0E521C3958224F8CB
:1004330010AF0885832285822180088583228582E7
:1004430021D2AFCEF0A3E520F0A37808E608F0A30D
:10045300DEFAEFF0A3E58124FAF8E608F0A3E60854
:10046300F0A3E608F0A30808E608F0A3E608F0A363
:1004730015811581D0E0FED0E0F815811581158135
:10048300E8C0E0EEC0E022C0D02521C582C0E0E58F
:100493002234FFC583C0E0E521C3958224F310AF66
:1004A300088583228582218008858322858221D243
:1004B300AFC8F0A3E9F0A3EAF0A3EBF0A37908E750
:1004C30009F0A3D8FAECF0A3EDF0A3EEF0A3EFF05C
:1004D300A3D0E0F0A3D0E0F0A3D0E0F0A3E520F0B8
:1004E300A3E5F0F0A322852283852182E0C0E0A367
:1004F300E0F9A3E0FAA3E0FBA37808E0F608A3DFA2
:10050300FAE0FCA3E0FDA3E0FEA3E0FFA3E0C0E06C
:10051300A3E0C0E0A3E0F5D0A3E0F520A3E0A3F5BA
:10052300F010AF0885832285822180088583228588
:100533008221D2AFD082D083D0E0F8D0E032120B48
:100543007DB90003020583E49004017873790B807D
:1005530002F0A3D8FCD9FA900E73AA82AB83900061
:1005630086788479018015E493A3AC82AD838A8273
:100573008B83F0A3AA82AB838C828D83D8E9D9E7DE
:100583007582D975839474041208DA7582C77583EA
:100593002174001208DAE4730975F0108E238F2496
:1005A300858228858327852182852283E0CEA3E067
:1005B300CF852882852783EBC9EAC8EDCBECCAC374
:1005C300E833C8E933C9EA33CAEB33CBC3EA9EF550
:1005D30026EB9FF525B35004AB25AA26EC33CCEDCF
:1005E30033CDD5F0DAAE23AF2422D083D082ECC052
:1005F300E0EDC0E0E493A3FCE493A3FDED4C600DB8
:10060300120709EC24FFFCED34FFFD80EFE493A314
:10061300FCE493A3FDED4C600D1207A6EC24FFFC54
:10062300ED34FFFD80EFD0E0FDD0E0FCE493A3C008
:10063300E0E493C0E022852283852182E0A3FEE0EB
:10064300A3F5207808E0A3F608DFFAE0A3FFE0A310
:10065300C0E0E0A3C0E0E0A3C0E0E0A3C0E0E0A30B
:10066300C0E010AF0885822185832280088582211E
:10067300858322D2AFD083D0820208E0D083D08298
:10068300E9C0E0E493A3C386F0C5F095F0F908E46C
:1006930093A386F0C5F095F0700BE493A3C3994040
:1006A30005E9048002A3E475F002A42582F582E53E
:1006B300F03583F583D0E0F9E493A3C0E0E493C07D
:1006C300E022C0E074F212048AA2AFE433FED2AF98
:1006D300E589A2E15003121C2D758900C2C5EEA263
:1006E300E092AF7F010204E9C0E074F212048AA22F
:1006F300AFE433FED2AFE58BA2E05003121C2D759D
:100703008B00C2E880D8C0E0C3E4939608740193D9
:100713009618400FE4936670080874019366187086
:10072300007019A3A3C3E49396087401939618A3C6
:10073300A3400DD0E0D0E0D0E0020629A3A3A3A3F9
:10074300A3A3D0E0227404800474028000CCC0E030
:10075300EDC0E0E521C39CCCAD2250011D10AF06D6
:100763008C218D2280068C218D22D2AF12081DD0C0
:10077300E0FDD0E0FC2274028000CCC0E0EDC0E0DC
:10078300E521C39CCCAD2250011D10AF068C218DF9
:100793002280068C218D22D2AF1207FBD0E0FDD040
:1007A300E0FC22C0E0C0F088F0E4936670080874AF
:1007B300019366187000A8F0A3A3700BD0F0D0E0EB
:1007C300D0E0D0E0020629A3A3D0F0D0E022D0836A
:1007D300D082CCC0E0E493A3600612087E1470FAC2
:1007E300E493A360061209931470FAD0E0FCE49337
:1007F300A3C0E0E493C0E022CAC0E0E493A3C582AF
:10080300CCC582C583CDC583F0A3C582CCC582C5C3
:1008130083CDC583DAE5D0E0CA22CAC0E0E0A3C530
:1008230082CCC582C583CDC583F0A3C582CCC582E6
:10083300C583CDC583DAE6D0E0CA22C0E0C0D0E8E4
:10084300C0E0E9C0E0E5A8D2AFC2C7A2E7A2E79241
:10085300AFD0E0F9D0E0F8D0D0D0E032C008C3E0A8
:1008630096F50808A3E096420808A3E09642080814
:10087300A3E09645087001D3D00822C0E0E493A317
:10088300D39C5010E493A3C39C400AD0E0D0E0D0A3
:10089300E00207EEA3A3A3D0E02270090808082210
:1008A3006016181818C6C333C608C633C608C6333D
:1008B300C608C633C6D5E0EA22C5822521C582C54E
:1008C30083352210AF07F5228582218007F5228523
:1008D3008221D2AFC58322C09FF59FE473D09F22AC
:1008E300D083D082C09FE493C0E0740193C0E074CE
:1008F3000293F59F222521F58210AF08F5214002CE
:1009030015228008F52140021522D2AF85228322C9
:100913007404800A74038006740280027401C0E0C8
:10092300F4041208F8D0E0120B5822BB0102E722AC
:10093300C082C08389828A83BB0003E08002E49380
:10094300D083D08222C0D0252110AF08F5215002D8
:1009530005228008F52150020522D2AFD0D02260B3
:1009630016080808C6C313C618C613C618C613C686
:1009730018C613C6D5E0EA22C3E0C696F608A3E07C
:10098300C696F608A3E0C696F608A3E0C696F62236
:10099300C0E0E493A36C7009D0E0D0E0D0E002079C
:1009A300EEA3A3D0E022252110AF08F521400215C4
:1009B300228008F52140021522D2AF22E76670108B
:1009C3000809E766700A0809E76670040809E7661C
:1009D30022C3E09608A3E09608A3E09608A3E09656
:1009E300A2D265D03322E066701008A3E066700AD5
:1009F30008A3E066700408A3E06622C3E096F0084B
:100A0300A3E096F008A3E096F008A3E096F022E0B6
:100A130026F008A3E036F008A3E036F008A3E0369A
:100A2300F022E627F60809E637F60809E637F6085E
:100A330009E637F622E026F608A3E036F608A3E037
:100A430036F608A3E036F622C0E0E8C0E0E58124EC
:100A5300FCF8E6A2E7D0E0F8D0E022E647F6080982
:100A6300E647F60809E647F60809E647F622E65799
:100A7300F60809E657F60809E657F60809E657F6B1
:100A830022E056F608A3E056F608A3E056F608A3BC
:100A9300E056F622E056F008A3E056F008A3E0562D
:100AA300F008A3E056F022700422600D18C6C33389
:100AB300C608C633C6D5E0F41822E4C396F608E4A4
:100AC30096F608E496F608E496F622600D08C6A2A8
:100AD300E713C618C613C6D5E0F322C6F4C608C684
:100AE300F4C608C6F4C608C6F4C622C3E7960809C6
:100AF300E7960809E7960809E79622C3E09608A354
:100B0300E09608A3E09608A3E0962275D0007581CD
:100B13004075210175220400020541600C08C6C31B
:100B230013C618C613C6D5E0F422E6F008A3E6F010
:100B330008A3E6F008A3E6F022E0F608A3E0F6082F
:100B4300A3E0F608A3E0F622C5822521C582C5836A
:100B53003522C58322CAC0E0E6F0A308DAFAD0E062
:100B6300FA22E0FAA3E0FBA3E0FCA3E0FD22EAF013
:100B7300A3EBF0A3ECF0A3EDF022E5C754F8440196
:100B8300F5C77901222521F582E43522F58322C2B6
:100B9300AF75D69F020000221208E3542700120803
:100BA300E36627001208E3B827001208E3192800B8
:100BB3001208E3A328001208E34729001208E39B65
:100BC30029001208E3B429001208E3DA2900120805
:100BD300E3152A001208E3592A001208E3802A00C9
:100BE3001208E3D12A001208E3812B001208E3392B
:100BF3002C001208E3012D001208E3C12D00120896
:100C0300E3052E001208E32A2E001208E36D2E00DE
:100C13001208E3BA2E001208E31230001208E39818
:100C230030001208E3B630001208E3E03000120887
:100C3300E3FA30001208E30931001208E31431002B
:100C43001208E3D431001208E32D32001208E3EF57
:100C530032001208E3F732001208E3BB3300120834
:100C6300E32734001208E35235001208E377350016
:100C73001208E3ED35001208E37F36001208E3D7CC
:100C830036001208E39737001208E3B6370012085C
:100C9300E3C538001208E3D738001208E3463900E9
:100CA3001208E39B3A001208E3CD3A001208E3600E
:100CB3003B001208E3993B001208E3E53B001208EE
:100CC300E3013D001208E34A3F001208E3553F00E9
:100CD3001208E3603F001208E36B3F001208E3755C
:100CE3003F001208E3803F001208E39A3F00120816
:100CF300E3A43F001208E3AE3F001208E3B93F004C
:100D03001208E3E13F001208E33C40001208E34607
:100D130040001208E36A40001208E38E4000120804
:100D2300E3EC40001208E33041001208E34C4100B9
:100D33001208E3C341001208E3FB41001208E34732
:100D430042001208E3A442001208E35E43001208C3
:100D5300E34245001208E39B45001208E3CB46003B
:100D63001208E3F146001208E37A48001208E3F69A
:100D73004B001208E3C84D001208E3914F0012081C
:100D8300E33E50001208E3A951001208E348520061
:100D93001208E38D52001208E3F752001208E3062B
:100DA30053001208E38D55001208E33F5700120861
:100DB300E3AC57001208E38B58001208E3A4590070
:100DC3001208E3215B001208E3405B001208E3957D
:100DD3005B001208E39A5C001208E3C25C0012088D
:100DE300E31A5D001208E3F95D001208E33D5E00BB
:100DF3001208E3885E001208E3F35E001208E3348E
:100E030060001208E39860001208E3E6610012082C
:100E1300E34664001208E37764001208E32F6600D8
:100E23001208E38466001208E38867001208E325CA
:100E330068001208E37E68001208E33169001208B3
:100E4300E3D369001208E3736A001208E3186B0026
:100E53001208E34481011208E38381011208E3CA03
:100E630083011208E31484011208E32F8501120899
:100E7300E39785011208E3CC85011208E34087015B
:100E83001208E3C389011208E3EC8A011208E38222
:100E93008B011208E38A94011208E31F95011208DB
:100EA300E30698011208E3F998011208E367990130
:100EB3001208E3AD9A011208E38F9B011208E37451
:100EC3009D011208E3859F011208E3EF9F011208B9
:100ED300E3C1A0011208E3EFA0011208E3ACA101F2
:100EE3001208E383A2011208E34AA3011208E3EE06
:100EF300A3011208E317A4011208E339A40112089D
:100F0300E38FA6011208E367A7011208E3ABA70169
:100F13001208E313A8011208E3CBA8011208E3FDAA
:100F2300A8011208E341A9011208E377A9011208F5
:100F3300E3C3A9011208E318AA011208E31DAA01D9
:100F43001208E370AA011208E395AA011208E3A4A8
:100F5300AB011208E308AC011208E378AC011208F4
:100F6300E304AD011208E3D1AF011208E3B5B00108
:100F73001208E338B2011208E36EB4011208E31C4D
:100F8300B5011208E3CCB5011208E30DB80112084C
:100F9300E3B0B8011208E3F7B8011208E3A3BA01FA
:100FA3001208E3B7BA011208E3C1BA011208E3E970
:100FB300BA011208E3F5BA011208E314BB011208DF
:100FC300E334BD011208E383BE011208E3C7BE0187
:100FD3001208E36FBF011208E352C0011208E3FDD8
:100FE300C0011208E349C2011208E347C301120812
:100FF300E3EDC3011208E37DC4011208E394C401C5
:101003001208E3CBC4011208E3D5C4011208E3E0DC
:10101300C4011208E3FEC4011208E342C501120829
:10102300E39FC5011208E3C4C5011208E3DEC5014D
:101033001208E36AC6011208E387C7011208E3F442
:10104300C7011208E3DBC8011208E302C901120851
:10105300E376C9011208E3F1C9011208E3F5CA01F5
:101063001208E3EBCB011208E39ACC011208E3ADBB
:10107300CD011208E349CE011208E3D6CE011208CE
:10108300E3B4CF011208E3ECCF011208E344D0012B
:101093001208E30DD1011208E32ED1011208E3B5C2
:1010A300D1011208E3D9D1011208E3FBD1011208DF
:1010B300E344D2011208E35AD4011208E341D501F3
:1010C3001208E3F2D5011208E328D8011208E378E5
:1010D300D8011208E3B8D8011208E3FAD8011208BC
:1010E300E356D9011208E384D9011208E3A8D90110
:1010F3001208E3FBD9011208E329DA011208E362BB
:10110300DA011208E3B7DA011208E31DDB01120862
:10111300E371DC011208E394DE011208E301DF014D
:101123001208E32ADF011208E3B5DF011208E31C0A
:10113300E0011208E367E0011208E38BE001120803
:10114300E3AFE0011208E30AE1011208E325E1013C
:101153001208E3DEE1011208E386A3041208E3C5E3
:10116300A3041208E37880021208E3BE8002120887
:10117300E39E81021208E3A082021208E3A3830222
:101183001208E32F85021208E38D85021208E34A51
:1011930086021208E36887021208E3D9870212085D
:1011A300E31588021208E36388021208E36D8802DC
:1011B3001208E3B188021208E30D89021208E3A8BA
:1011C30089021208E3258A021208E3F48A0212084C
:1011D300E38D8B021208E3AD8B021208E3E38B026B
:1011E3001208E3148C021208E3D58C021208E3E51B
:1011F3008C021208E3398D021208E3548D0212089F
:10120300E3668D021208E36F8D021208E3C98D02B3
:101213001208E3258E021208E3718E021208E38C92
:101223008E021208E3BD8E021208E3DA8E02120860
:10123300E3E68E021208E35A90021208E373900267
:101243001208E3DA90021208E3ED90021208E3FBBE
:1012530090021208E3AF91021208E393920212087C
:10126300E39993021208E32394021208E32D9402F4
:101273001208E39A94021208E3B194021208E3E31A
:1012830094021208E31C95021208E3469502120821
:10129300E3A795021208E3C795021208E3E5950256
:1012A3001208E32B96021208E35197021208E39EF9
:1012B30097021208E3CD97021208E343980212083B
:1012C300E36B98021208E3A498021208E3B29802AF
:1012D3001208E30A99021208E35999021208E398E3
:1012E30099021208E3C899021208E3F4990212085A
:1012F300E3FF99021208E31D9A021208E3DF9A0240
:101303001208E3E99A021208E3249B021208E33A63
:101313009B021208E38F9B021208E3A39B021208AD
:10132300E3B19C021208E3C49C021208E3D99C02B5
:101333001208E37B9D021208E3FE9D021208E3BC40
:101343009E021208E3C79E021208E3F39F021208EB
:10135300E30FA0021208E361A0021208E3A0A002B7
:101363001208E3B5A0021208E317A1021208E3A6CC
:10137300A1021208E3F1A1021208E342A402120837
:10138300E3C0A4021208E335A5021208E357A7023B
:101393001208E36FA7021208E372A7021208E37EA2
:1013A300A7021208E392A7021208E39AA7021208FF
:1013B300E3CDA7021208E37DA8021208E3F3A80213
:1013C3001208E366A9021208E31AAA021208E3CF7D
:1013D300AA021208E3EEAA021208E38EAB02120875
:1013E300E39AAB021208E3C5AB021208E3C8AB02EF
:1013F3001208E332AC021208E35AAD021208E332D8
:10140300AE021208E3BDAE021208E3D6AF02120821
:10141300E393B0021208E3CCB0021208E3FDB0027A
:101423001208E3BBB1021208E3EBB1021208E3C6F0
:10143300B2021208E35FB3021208E3EAB30212082E
:10144300E39BB4021208E31EB5021208E350B5028F
:101453001208E391B5021208E3E6B0031208E3476A
:10146300B1031208E384B1031208E3D7B1031208EE
:10147300E3DBB3031208E3C9B5031208E31FB9039F
:101483001208E356B9031208E374B9031208E3EA36
:10149300B9031208E312BA031208E343BA031208AA
:1014A300E373BA031208E3D9BA031208E3B19A0348
:1014B3001208E32F9B031208E3659B031208E3D191
:1014C3009B031208E3449D031208E3609D03120883
:1014D300E3A59D031208E3329E031208E38B9E03E8
:1014E3001208E3B99F031208E3C5A0031208E3221D
:1014F300A1031208E38EA1031208E3EFA10312086C
:10150300E330A2031208E3DDA2031208E3EFA3030F
:101513001208E332A4031208E380A4031208E3B71A
:10152300A4031208E35AA5031208E315A60312083D
:10153300E334F9021208E3E2F9021208E388FA023B
:101543001208E314FB021208E392FB021208E3C43D
:10155300FC021208E38FFD021208E3008004120864
:10156300E37080041208E3DC80041208E35C810466
:101573001208E3B281041208E3F881041208E315A8
:1015830082041208E3B282041208E3B5820412084B
:10159300E34283041208E35698041208E3679804AD
:1015A3001208E3B298041208E3FA98041208E3A2BB
:1015B30099041208E35C9F041208E3C1990412081A
:1015C300E3E99A041208E38CA6031208E33BA7039A
:1015D3001208E35BA7031208E37BA7031208E38F58
:1015E300A7031208E3EBA7031208E31BA8031208DF
:1015F300E3A5A9031208E36DDA021208E341AB0382
:101603001208E394AB031208E3D7AB031208E31AFF
:10161300AC031208E380AC031208E3A1AC03120885
:10162300E324AD031208E359AD031208E3C9AD0384
:101633001208E360AF031208E336B0031208E3783D
:10164300B0031208E3D2B0031208E333FE01120819
:10165300E354FE011208E357E4021208E3A4FF0176
:101663001208E390A4041208E3A0A4041208E3AA56
:10167300A4041208E3BF8E031208E3C28E03120808
:10168300E37C8F031208E3A78F031208E3ED8F03B4
:101693001208E31290031208E33390031208E3677E
:1016A30090031208E39F90031208E39D910312082D
:1016B300E3CC91031208E3EC91031208E384920351
:1016C3001208E34793031208E37C93031208E3EC45
:1016D30094031208E38F95031208E3879603120815
:1016E300E3BC96031208E31C97031208E3DC970399
:1016F3001208E30A98031208E39199031208E3120C
:101703009A031208E3459A031208E352D40312081A
:10171300E3A9D4031208E317D5031208E338D5036A
:101723001208E34FD5031208E3FFD5031208E308B9
:10173300D6031208E35BD6031208E384D603120828
:10174300E3EBD6031208E37DD7031208E3B3D70311
:101753001208E3F0D7031208E350D8031208E38812
:10176300D8031208E3F7D8031208E342D903120897
:10177300E383D9031208E3BCD9031208E3CED903E8
:101783001208E3E0D9031208E3FFD9031208E308C0
:10179300DA031208E3C8DA031208E3FFDA031208D4
:1017A300E347E9031208E31CEA031208E336EA03FA
:1017B3001208E347EA031208E384EC031208E3A3E5
:1017C300EC031208E3E9A2041208E3A79204120847
:1017D300E3DD92041208E32893041208E3769404E9
:1017E3001208E37EE4021208E3BFE5021208E3FBFA
:1017F300E5021208E3C6E7021208E3EFE702120864
:10180300E379EA021208E3B9EA021208E358EC02A8
:101813001208E3EDEC021208E360ED021208E3F4B0
:10182300ED021208E32CEE021208E36CEE0212083A
:10183300E3F8EF021208E3A0F1021208E3F0F30267
:101843001208E31EF4021208E34AF4021208E353F7
:10185300F4021208E3B4F4021208E34AF502120890
:10186300E350F8021208E3D7F8021208E3E0FF019D
:101873001208E3F6FF011208E3C0F8031208E3D5E8
:10188300F8031208E372F9031208E3AEF90312082E
:10189300E3C5F9031208E3ECF9031208E331FA0391
:1018A3001208E362FA031208E39AFA031208E31C2C
:1018B300FC031208E3BAA1041208E3F7A104120817
:1018C300E339A2041208E349A2041208E3008003E7
:1018D3001208E35880031208E34481031208E3E685
:1018E30081031208E33082031208E3918203120892
:1018F300E30A83031208E31E83031208E3508303FE
:101903001208E35484031208E3E384031208E3FA9E
:1019130084031208E34585031208E35B8503120879
:10192300E36885031208E39C85031208E3BC85037F
:101933001208E34D86031208E35886031208E3B640
:1019430086031208E31087031208E3638703120870
:10195300E39487031208E3088A031208E3398A032E
:101963001208E3D48A031208E3498B031208E34EF7
:101973008B031208E38A8B031208E3EA8B03120832
:10198300E3BF8C031208E3E98C031208E3F38C032F
:101993001208E3F68C031208E3688D031208E3913F
:1019A3008D031208E3A48D031208E3D08D031208FC
:1019B300E30B8E031208E30E8E031208E3198E0362
:1019C3001208E3558E031208E3688E031208E38FAF
:1019D3008E031208E339A3041208E351A304120887
:1019E300E304CD031208E353CD031208E302CF034C
:1019F3001208E3C7D0031208E30BD1031208E3F87C
:101A0300D1031208E328D3031208E34AD3031208CD
:101A1300E39ED3031208E322D4031208E318E2017E
:101A23001208E339E2011208E3B6E2011208E345C2
:101A3300E3011208E3D7E3011208E33CE4011208CF
:101A4300E384E4011208E30EE5011208E3A8E501CB
:101A53001208E325E6011208E364E6011208E35ED7
:101A6300EA011208E3FDEB011208E338EC01120866
:101A7300E3E7EC011208E3EAEC011208E39BED0152
:101A83001208E3DFEE011208E3FCF0011208E3BBE6
:101A9300F3011208E38BF4011208E388F50112083D
:101AA300E30BF9011208E31BF9011208E362FA01DF
:101AB3001208E3AAFA011208E3E6FB011208E33075
:101AC300FD011208E388FD011208E3646B001208AC
:101AD300E31E6C001208E3A16C001208E3B06C0073
:101AE3001208E3366D001208E3AE6D001208E3BB83
:101AF3006E001208E3E46E001208E3866F0012081A
:101B0300E3D96F001208E34570001208E311730074
:101B13001208E3B973001208E30574001208E3A97D
:101B230075001208E35576001208E3D87600120810
:101B3300E33977001208E3B077001208E3BB7800BB
:101B43001208E35F7A001208E3817B001208E31DA9
:101B53007C001208E38A7C001208E3757D001208FA
:101B6300E34EF5031208E39EF5031208E3F5F503CC
:101B73001208E340F6031208E39AF6031208E31986
:101B8300F7031208E3BFF7031208E303F80312088D
:101B9300E319F8031208E374F8031208E3B1F80336
:101BA3001208E35190041208E38290041208E33C04
:101BB30091041208E3A291041208E3139204120899
:101BC300E35F95041208E34FA0041208E360A00446
:101BD3001208E300A1041208E3FD7F001208E3E406
:101BE300FF021208E353A2041208E363A2041208DB
:101BF300E37EA2041208E3DFA2041208E3589E0462
:101C03001208E3DD9E041208E3439F041208E36411
:101C1300FE021208E386FE021208E3ECFE0212083B
:101C2300E30CFF021208E352FF021208E3ADFF02C6
:101C33001208E3069B041208E31B9B041208E38FBC
:101C43009B041208E3A99B041208E3C09B04120837
:101C5300E3D39B041208E3ED9B041208E3049C0402
:101C63001208E329FC031208E337FC031208E3B16B
:101C7300FC031208E395FD031208E327FF03120890
:101C8300E3DDFF031208E3948B041208E3E28B0401
:101C93001208E37F8C041208E3288D041208E34042
:101CA3008D041208E3BC8D041208E3D28D041208DC
:101CB300E3E58D041208E328DB031208E37DDB036D
:101CC3001208E37BDD031208E3ADDD031208E3CF63
:101CD300DD031208E3E8DD031208E301DE03120863
:101CE300E30FDF031208E3AADF031208E3EB960412
:101CF3001208E30F97041208E32897041208E36716
:101D030097041208E39A97041208E3CA9704120887
:101D1300E33298041208E33598041208E33F980469
:101D23001208E34C98041208E39786041208E3BFF1
:101D330086041208E30087041208E31287041208DA
:101D4300E32D87041208E39587041208E3A18704AF
:101D53001208E30088041208E32488041208E3E568
:101D630088041208E3F288041208E30389041208C2
:101D7300E354A4041208E371A4041208E3DCE403AB
:101D83001208E33CE6031208E342E6031208E359B0
:101D9300E6031208E37AE6031208E390E603120867
:101DA300E3A4E6031208E323E7031208E388E70347
:101DB3001208E31EE8031208E3F7E8031208E30737
:101DC300E9031208E316E9031208E321A104120848
:101DD300E345A1041208E36DA1041208E395A104ED
:101DE3001208E33189041208E35889041208E379DD
:101DF30089041208E3E089041208E3F38D0412084E
:101E0300E30C8E041208E3238E041208E32C8E04E1
:101E13001208E34A8E041208E3548E041208E35EA8
:101E23008E041208E3718E041208E3C68E041208AE
:101E3300E3FF8E041208E32D8F041208E37E8F0460
:101E43001208E3CA8F041208E3E58F041208E3EFD4
:101E53008F041208E30090041208E346900412086A
:101E6300E38CFF031208E325BB031208E351BB0312
:101E73001208E36FBB031208E382BB031208E39D5E
:101E8300BB031208E3FCBB031208E32ABC031208DA
:101E9300E328C0031208E35DC1031208E38FC10303
:101EA3001208E3F3C1031208E352C3031208E37AEF
:101EB300C3031208E38FC3031208E39FC30312088B
:101EC300E3DFC3031208E32BC4031208E33BC40399
:101ED3001208E3C57E001208E3D57E001208E3F37F
:101EE3007E001208E30E7F001208E3357F0012081C
:101EF300E3567F001208E3707F001208E3A87F0017
:101F03001208E3CB7F001208E3CFA3041208E3BA5D
:101F1300F1031208E3C1F1031208E3DEF20312082E
:101F2300E30EF3031208E334F3031208E367F30346
:101F33001208E379F3031208E3B5F3031208E31B72
:101F4300F4031208E357F4031208E39EF4031208A0
:101F5300E3CBF4031208E3ECF4031208E34C9D040F
:101F63001208E3649D041208E3529E041208E35529
:101F73009E041208E3399C041208E3AB9C04120884
:101F8300E3E99C041208E32A9D041208E369C403ED
:101F93001208E3CEC4031208E356C5031208E3A8EC
:101FA300C5031208E392C6031208E310C70312081D
:101FB300E3D2C8031208E396CB031208E3BCCB03B6
:101FC3001208E335CC031208E35CCC031208E38D5B
:101FD300CC031208E3B0CC031208E3DCCC031208F1
:101FE300E3EDED031208E30CEE031208E35BEE03EB
:101FF3001208E377EE031208E3A8EE031208E3B82E
:10200300EE031208E3C5EE031208E3D2EE0312084F
:10201300E3BAEF031208E3F8EF031208E302F00355
:102023001208E315F1031208E320F1031208E33267
:10203300F1031208E33BF1031208E345F10312082D
:10204300E3E9DF031208E320E4031208E32EE403C9
:102053001208E3CBA4041208E313A4041208E34E0A
:1020630083041208E3CFD7021208E398D6021208BA
:10207300E3ECD5021208E332D4021208E3E2D10200
:102083001208E369D1021208E310D1021208E3A097
:10209300D0021208E377D0021208E357CE021208E7
:1020A300E323CE021208E3F0CD021208E3D4CD02FB
:1020B3001208E3EDCC021208E3A5CC021208E3F008
:1020C300CA021208E370CA021208E36DCA021208B8
:1020D300E36EC9021208E33CC9021208E379C8029D
:1020E3001208E3A4C6021208E339E4021208E30566
:1020F300E3021208E362E2021208E315E1021208A6
:10210300E3C0DE021208E335C6021208E307C60283
:102113001208E304C6021208E3F1C5021208E356EB
:10212300DE021208E39CC5021208E38BC502120803
:10213300E37DC4021208E347C4021208E3F5C302B5
:102143001208E30EDE021208E380DD021208E37ACE
:10215300FF011208E396C3021208E365C3021208E3
:10216300E32DC0021208E3EDBF021208E3E1BF0250
:102173001208E341BF021208E381BE021208E3031F
:10218300BC021208E394B9021208E352B90212081E
:10219300E326B8021208E3DBB7021208E31AB70218
:1021A3001208E3EDB6021208E330B6021208E3C6E2
:1021B300B5021208E300B6021208E373DD02120847
:1021C300E364AA0300000080FB870001003C0724AE
:1021D300000200C20E25000200C40E26000200C643
:1021E3000E27000200C80E28000100CA0E290001B4
:1021F30000CB0E84000400CC0E86000100D00E2A12
:10220300000100D10E2B000100D20E2C000100D5DD
:102213000E2D00080027072E000100D60E2F000107
:1022230000D70E30000100D80E31000100D90E3264
:102233000001002F0733000100300734000100DAEA
:102243000E36000100310738000100DB0E390001B2
:1022530000D40E83000200E50E630001003B076417
:10226300000100240765000100D30E6D000100E4A6
:102273000E6E000200250743000100DC0E4400023D
:1022830000DD0E45000100DF0E46000200E00E47B0
:10229300000800330748000100E20E4B000100E391
:1022A3000E04000100E70EA1000100EA0E37000151
:1022B30000E90E88000100E80E3C0001003207002F
:1022C3000000000000000136360101000102010098
:1022D30001030100010401060605020000070100D5
:1022E300340801000F090401010D0100FF0E08006D
:1022F3000017020000190100FF1A0100011B010071
:10230300FE1C0100081D0200001F01000120010046
:1023130001210200002301000F2402000026010016
:102323000127010008280200FF2A0100072B0102F0
:10233300402C0100002D0100012E0100012F01009E
:10234300FF30010B1C310800003A0100083B01007B
:102353000F2F0100000020202020202020202028F3
:10236300282828282020202020202020202020204A
:102373002020202020208810101010101010101082
:1023830010101010101004040404040404040404C2
:102393001010101010101041414141414101010141
:1023A300010101010101010101010101010101011A
:1023B3000110101010101042424242424202020227
:1023C30002020202020202020202020202020202EA
:1023D300021010101020030271023001600211027A
:1023E30070020102020202028002100261023A003C
:1023F300410063027302720262024302000213028B
:10240300380000020002040212020002000200026D
:10241300000204020402370037003C0244020002B7
:102423003900000200026502000235028102000247
:10243300050282028302000201017101010101010F
:10244300110101013101010101018001100161014B
:102453003B00140063017301720162014301000137
:10246300130106013D0135000401120100010001C1
:102473000001000104010401330133013C01440163
:1024830032013600000100016501000135008101C0
:102493000001050182018301000103007100300185
:1024A300600011007000310220035004800010000E
:1024B30061000000140063007300720062004300B7
:1024C30000001300060000000000040012000000DA
:1024D30000000000000004000400370037003C0245
:1024E300440000000000000000006500000035000B
:1024F3008100000005000000830000000304710454
:1025030002046004110470040204020401040204BE
:102513001004610400041404630473047204620469
:102523004304000413040604000400040404120416
:1025330000040004000400045104640000040004C7
:1025430000044404000400040004000465040004BF
:1025530035048104640005040004830400040103BA
:1025630071030103010301030103010322030203B6
:10257300010310030003000300030003000300032F
:1025830000034203000324030603000300030403C0
:102593001203250323032503230304030403000376
:1025A3000003000344030003000323030003650344
:1025B3002100350381030003050300030003000327
:1025C30036000100060000000F00000000000000BC
:1025D30000000000000003FFFF00000403FFFF00F2
:1025E30000FFFF0FF4010005C404032000010000F5
:1025F3000B000000000000000003010F0000071B98
:102603001300831A0100071B02003B1A0300411A3F
:102613000400471A05004D1A0600591A1100771ACB
:1026230014007D1A15006B1AFFFF0000019B0E06B4
:10263300CB0E08C50E0BD70E10170E02A10E05B94F
:102643000E07A70E0C7D0E0D8F0EFF0000A312D3F5
:1026530012A912AF12CD12C112BB12D912DF12E5A9
:1026630012F112B5129D12971203EAF5E5D5D5C5FD
:10267300B5A5959585857575656555554545353577
:10268300252515150500160F00000B150B0200027A
:10269300220F320000069313A513AB136D12B1136F
:1026A30067127312F31311141714F9130514FF139C
:1026B300A711A111DD11E311D7118F110C0E020B1C
:1026C300040B0A0708000F00034948424D18172559
:1026D3000502303017181921301B1D1F3000011956
:1026E3001618161615230300303016181920231A4E
:1026F3001C1E3000383C3E363B3B352B432CC71267
:10270300EB120B14F712FD12E713B713BD13C91322
:10271300C313020402010101010902B311B911AD8E
:1027230011E911BF11D11100BE040A15000E0004F6
:10273300007F00E8030C0000000000280008100CD4
:102743000A03080900040003FF1E1E010C04050F01
:1027530008C082C0838A828B83E0D2E7F012198D8E
:10276300023923C082C0837900122C20125AF0C090
:1027730082C083900434124876D083D082C3E09C15
:10278300A3E09D500C1261C4FAA3E01227976001E5
:1027930009023923FBEA75F00BA4FAA8F075F00BD4
:1027A300EBA428FB900436E02AF8A3E03B8882F5EB
:1027B30083E0540F2274F712041E8908122C20128E
:1027C3002CC6ACF075F00BE9A42CF9900436E02884
:1027D300FEA3E039FF7401650860067402650870A2
:1027E300208A828B83122CB2123B527402650870CA
:1027F3001B122B71122CF970138E828F83E4F080DD
:102803000BEA2403FCEB122C94122CA0EEFAEFFB40
:10281300120B9B023AAF74F412041E126AEB790096
:102823008E828F83E06076890A890B8065E50A755D
:10283300F00BA4FAA8F075F00BE50B1227A4704671
:10284300E50A75F00BA4F8AAF075F00BE50B122C52
:10285300D88E828F83E0850882850983122DBA85FD
:102863000882850983A3123B52EE2403FCEF122C4A
:102873009D12393012556AAA08AB09120B9B7901D4
:10288300900434124F7FE50A2401F50AE50B340066
:10289300F50B122B79E50A9AE50B9B4090023CFC61
:1028A30074F512041EEAFEEBFF740B120B88123947
:1028B30035750A01EC4D602BEC126B07ED125AF0E3
:1028C300123B4A7901120BA7E5084509606F850899
:1028D30082850983A3126AF57902AA08AB09120B50
:1028E300A7805AE5084509602B125AF41241BE121B
:1028F3003931122CE3700CEEFAEFFB120BADE9F554
:102903000A80CBEE2403FA122C1B70317903EEFA02
:10291300EFFB80CA8E828F83A3E064FE7003A3E083
:10292300F4700BEE24030A0A0A122C1B700CEEFA45
:10293300EFFB120BADE9F50A8003750A00A90A7FC4
:102943000302063974F712041E900434123ABFEAE4
:102953004B602FEA75F00BA4FAA8F075F00BEBA40B
:1029630028FBEAFEEBFF1217D7900436123ABF900A
:102973000436124DC46012EEFCEFFD7900121717F6
:102983008007900436E4F0A3F0023AAF90043412C7
:10299300452EC3EE98EF9922C082C083EC4D6005AB
:1029A300121F8780097C087D0079001217170239EE
:1029B3002374F612041E7900EA4B60187800880825
:1029C300125E37EB1261C060047901780808E8C32E
:1029D300940840EA023B5B74F712041E74F3120975
:1029E300A9ECFEEDFF852182852283E4F004120B1E
:1029F30088EAF0A3EB1252F07403120B88AC82AD99
:102A030083EEFAEFFB120BBFEEFAEFFB120BC502DC
:102A13003AAA74F712041E74F31209A9ECFEEDFF2F
:102A2300852182852283E4F0EAFCEBFD7403120B1B
:102A330088122DB37401120B88123B468E828F834A
:102A4300123B5274FE68700374FF6960047901805D
:102A5300027900023AAA74F712041EEAFEEBFF128F
:102A63002AB77014122AC28E828F83E0F4F88A8206
:102A73008B83E058F0120B9BA908023AAF74F7124C
:102A8300041EEAFEEBFF7508008E828F83E060224E
:102A9300122AB7701D122AC28A828B83E08F838E1B
:102AA30082F8E058700CE0F88A828B83E048F012D9
:102AB3000B9B80C4120BA1E9F5087401650822126F
:102AC3006B00122CCA122C0CFAA3E039FB2274F40B
:102AD30012041E8A088B097C007D00122B71122CB4
:102AE300A0122C31126AF27900850882850983A32A
:102AF300E064FE7003A3E0F460717E007F008062F7
:102B0300EEFAEF1227976057EEFAEFFBEA75F00B38
:102B1300A4FAA8F075F00BEBA428FB900436E02A86
:102B2300F50AA3E03BF50B850882850983A31252BE
:102B33003E850A82850B83A3E06A7003A3E06B7072
:102B43001EE50A2403FAE50B122C1C700AE50A247D
:102B530003FCE50B122C9D122C257901125B061246
:102B63003510122B79EE9AEF9B4095023CFCEA2438
:102B7300030A0A0AEB229004341256DDC32274F3CB
:102B830012041E8A088B098A828B83A3126AF512A8
:102B93002C20126AF2750C00122B71122C1C70542B
:102BA3007E007F008049122BFEFAA3E0398A82F56A
:102BB30083E0540F6036122BFEF50AA3E039F50BC0
:102BC300E50A2403FCE50B122CA73400FB121F813A
:102BD300E964017017850A82850B83A312579EA3AC
:102BE300123B52122C25750C01125B061235101282
:102BF300298F40B2A90C7F05020639EEF8EFF9E8F8
:102C030075F00BA4F8122C0C22AAF075F00BE9A4B2
:102C13002AF9900436E02822EF122CF322126B06D5
:102C2300EB22122C31125B01EEF0A3EFF022E50848
:102C3300126B07E5092274F512041EEAFEEBFF8E00
:102C4300828F83A3126AF57C007D00EE24030A0AB7
:102C53000AEF122CA0EEFAEFFB120BA1E9F50A74AE
:102C630001650A7029126B00122CC6AAF075F00BCD
:102C7300E9122CD8850882F583122CB2122CE3704A
:102C83000DE5082403FCE509122C94122CA002295B
:102C9300403400FDEE2403FAEF22122CA73400FB8C
:102CA300120BBF223400FDE5082403FAE50922A331
:102CB300122CB722122CBB22E0F8A3E0F98E828FEC
:102CC30083A322122CCA223400F583124532E875FD
:102CD300F00BA4F822122C12F508A3E039F509220F
:102CE300E8F0A3E9F0E5082403FAE509122CF3223E
:102CF300122CF96401223400FB120BC5E92274F390
:102D030012041E74E61209A9126AEB750C01750808
:102D130000750900750A00750B00852182852283E1
:102D2300E4F0EE2403FCEF3400FD7403120B88126D
:102D33002DB3E964017023740B120B88123B4A74A0
:102D430001120B881252427003A3E069605185217E
:102D530082852283858208858309740D120B88E49A
:102D6300122DBA740E120B88123B52740D120B887B
:102D7300AA82AB83120BE3E96401700B740D120B8F
:102D83008885820A85830B780A12091BAC08AD0972
:102D9300EEFAEFFB120BB37402120948E9F50CEEDD
:102DA300FAEFFB120BDDA90C741A120948022BF976
:102DB300123086120BE922123ABA12452E22C08231
:102DC300C083780079008003122EB1122B79E89A20
:102DD300E99B5029E8FAE9FBEA75F00BA4FAACF099
:102DE30075F00BEBA42CFB900436E02AFCA3E03B2C
:102DF3008C82F583E0540F70CF7900800279010251
:102E03003923C082C08390272E124584EC75F012BB
:102E1300A4FCA8F075F012EDA428FD79FF7A197BC4
:102E23000912171702392374F712041EE9FEEAFF89
:102E33007A007B00780079008028E8FCE9FDEC75D6
:102E4300F012A4FC85F00875F012EDA425081232E7
:102E5300C6C39E400AE0FCEFC39C40031233E51255
:102E63002EB11232BA40D3023AAFC082C083780087
:102E730079008003122EB1122EA5501F1232CAF40C
:102E830070F2E875F012A4F8AAF075F012E9A42A1A
:102E9300F9741928FA740939FB80047A007B00025B
:102EA300392390272E12337BC3E89AE99B22E82427
:102EB3000108E93400F92274F012041E74F31209B4
:102EC300A98A0A8B0B8C0C8D0D8908EC450D6016B5
:102ED300AA0CAB0D120C378A0E8B0FAE0EAF0FEE92
:102EE3004F6003022F78120C0D8A0E8B0FA80EA9C8
:102EF3000FE8FEE9FFE849607C90273C122FDA6077
:102F0300227403650860067404650870167A0479F0
:102F130003120C0790273C122FF140077A007B0025
:102F2300022FD790273A122FDA601B7401650860CD
:102F33000674026508700F7A027901120C07902754
:102F43003A122FF150D68521828522837401F01223
:102F53000B8812556AAC0CAD0D7403120B8812303A
:102F63007F740B120B8812393D123F32E412555213
:102F73001210E78004EE4F604A780074FF2508C3FF
:102F83009404500278048E828F8312556A8E828F46
:102F930083A3A3A3A3E508F0E88E828F83A3A3A34F
:102FA300A3A31255721202CD1233928E828F83A382
:102FB300A3A3A3A3A3A3F0123389120B65125AEAA6
:102FC300120B71122FDF4005900E77E4F0120FC140
:102FD300EEFAEFFB02453812568C49227A04790047
:102FE300120C0790272E1261A6EA98EB9922123051
:102FF3000A75832775822EE493C398F8A3E4939903
:10300300F9C3EA98EB9922E493F8740193F92274D3
:10301300F212041E74F31209A98A088B09ECFEED5F
:10302300FF750A00EEFAEFFB120C378A0C8B0DA822
:103033000CA90DE849603E88828983E06508700425
:10304300A3E06509602F88828983A3A3A3A3E0C3B8
:10305300940550211259988521828522837401F0A9
:10306300120B8812599CEEFCEFFD7403120B8812AD
:10307300307F750A01A90A740D0250361230861288
:103083000BF522AA82AB83120BBF85218285228393
:10309300AA82AB832274F612041E1230D4600FA3EB
:1030A300A3A3A3E014C3940450047901800279001C
:1030B300023B5B74F612041E1230D4600FA3A3A369
:1030C300A3E014C394025004790180027900023B07
:1030D3005B120C318A828B83E58245832274F6125C
:1030E300041E1230D4600BA3A3A3A3E070047901E0
:1030F30080027900023B5BC082C083EAFCEBFD7A6D
:10310300007B00023920C082C0837C007D0002392D
:103113002074F412041E74F31209A9EAFEEBFF8C67
:103123000A8D0BC3EC94F8ED94FF4007EE4F700348
:103133000231CD750800750900802E852182852214
:10314300837401F0123538120B88123546601374FC
:1031530003120B88AC82AD83EEFAEFFB121F81E9F9
:103163007049E508240112336690272EE412569421
:10317300E50898E509995052E50875F012A4F8AAF4
:10318300F075F012E509A42AF91261D960D4EE4F63
:1031930070A974FF650A700474FF650B60C412356F
:1031A30028650A7004A3E0650B70B7E50875F01293
:1031B300A4F508A8F075F012E509A428F509741917
:1031C3002508FA74093509FB80047A007B00023C68
:1031D300F774F412041E74F31209A9750800120C93
:1031E300378A0A8B0BAE0AAF0BEE4F602A8521821A
:1031F3008522837401123AB4F8A3E0F9740B120B1D
:1032030088123BD5120BD77C127D0079FFEEFAEFC3
:10321300FB121717750801122FDF5009900E7774F0
:1032230001F0120FC1A908023CF774F712041EE95A
:10323300FE74FE6A700374FF6B780079007005807A
:1032430052122EB11232BA504AE8FCE9FDEC75F085
:1032530012A4FCAFF075F012EDA42F1232C6F46085
:10326300E0E8FCE9FDEC75F012A4FC75F012EDA4A6
:103273002FFD74192CF58274093DF583E06A700300
:10328300A3E06B70BC80091232CA14C394044017C4
:10329300122EB1122EA55018EE70EC1232CA640130
:1032A3006005E0640370E9123519FAA3E0FB8004BA
:1032B3007AFE7BFF023AAF90272E124588C3E89C23
:1032C300E99D2212341A22E8FAE9FBEA75F012A406
:1032D300FAACF075F012EBA42CFB741D2AF5827482
:1032E300093BF583E022120C49023923C082C083D3
:1032F300790180F274F012041E8A0A8B0B7A047926
:1033030001120C078A0C8B0DEA450D603EEAC333AC
:10331300FAEB33FB1217D78A088B09AE08AF09EE15
:103323004F60237AFE7BFF120C4F74FE6A700374A6
:10333300FF6B601B850882850983123ABFE5082469
:103343000212336680E1750C0080047E007F0085E5
:103353000A82850B83E50CF0EEFAEFFB02453DE5AF
:10336300082407F508E5093400F5092290272E12F1
:103373004588C3EA9CEB9D22E493FA740193FB22F4
:1033830012170B740322125AFBE4F090810F22E808
:103393008E828F83A3A3A3A3A3A3A3A31233B47483
:1033A300011233B4A3F0EE2410125AFEE4F0A3F09A
:1033B30022123F3EA3A3A322C082C0837A007B00D4
:1033C3008004191233E512336F5010123404C3947E
:1033D3000550F0E970EC1233EE80047A007B0002B2
:1033E3003923EA24010AEB3400FB22EA75F012A424
:1033F300FA75F012EBA428FB74192AFA74093BFB43
:1034030022EAFCEBFDEC75F012A4FCA8F075F012B7
:10341300EDA42812341A22FD741D2CF58274093D83
:10342300F583E02274F712041E74F31209A97E00D7
:103433007F000234CCE50875F017A4F8A9F01264F4
:103443003AFAA3E0FBEEF8EFF9E875F012A4F8AC52
:10345300F075F012E9A42C1235276A7003A3E06B10
:10346300603FE50875F017A4F8AAF0EA126439F88A
:10347300A3E0F97401120B88E0687003A3E06960AC
:1034830020E50875F017A4F8EAF9749528FC740A86
:1034930039FD7403120B88AA82AB83121F81E96082
:1034A30014E50875F017A4F8A9F0749328FA740AC0
:1034B30039FB1210F30508902741E493F8E508C39C
:1034C30098500302343812351090272E126780501B
:1034D30039EEF8EFF9123519F47003A3E0F460E65E
:1034E3008521828522837401F0EEF8EFF9E875F007
:1034F30012A4F875F012E9A42AF9123538120B88D0
:1035030012354660C175080080AD023AAAEE240167
:103513000EEF3400FF22E875F012A4F8AAF075F05C
:1035230012E9A42AF912352C22741928F582740998
:1035330039F583E022741B28F58274093912452C6E
:10354300740B22E8F0A3E9123BDD120BEFE922C072
:1035530082C08390043D74B3F0A3740EF090043FD3
:1035630074ADF0A3740EF090044374CDF0A3740C07
:10357300F002392374F712041EEAFEEBFF9004777E
:10358300E06408601BE0640460168E828F83E0545D
:103593000364017048123930124033E06406703D11
:1035A3008E828F83A3A3E064FE7003A3E0F4602DF7
:1035B3008E828F83A3A3123B46900468E068700356
:1035C300A3E069700BEE2415F582EF1261C0600869
:1035D300120F61E9F5088008120F6780F67508C2BB
:1035E300EEFAEFFB1217DD022A7B74F412041E8A33
:1035F300088B098A828B83E0F8A3E0FAE82AFAE4CD
:103603003400FB1217D78A0A8B0BAE0AAF0BEE4FAF
:103613006063850882850983E0FC7D0079001217C9
:10362300178E828F83A3A3126AF5120FA38E828F44
:1036330083A3A3A3A3123ABF850882850983E0F875
:10364300EE28F8EF3400123B4E850882850983A3E8
:10365300E0C0E0EE240D125AEDD0E0F0120FB5EE0B
:10366300240E125AEDE912519FE0C0E0EE2411122C
:103673005AEDD0E0F0EEFAEFFB023CFC74F41204D6
:103683001E74EB1209A98A088B098C0A8D0BE9FEBB
:10369300900477E064046005E06408700479C280F4
:1036A3002EA37808120B2DEE90047E12392A120BEA
:1036B3002D7405120B88E9F07404120B887401F061
:1036C3007407120B88E4F090047774021238BE7406
:1036D30015023CF974F612041E74EB1209A9EAFEF2
:1036E300EBFF124DC1600302377B7A077B00121791
:1036F300D7900439123ABF124DC160788E828F83FE
:10370300120B6590043A124036120B711269B9C05C
:10371300E0123787D0E0F0EE2405FAEF3400FB8A9D
:10372300088B098A82F583E0C0E0123782D0E01269
:103733003CF3E0C0E0123782A3D0E0123B33120B1C
:1037430065852182852283120B7188828983E0C07B
:10375300E07405120B88D0E0F0850882850983E0C8
:10376300C0E07404120B88D0E0F07407120B8812C7
:1037730038BD80067910800279017415023B581216
:103783003787A322900439E0FAA3E0F5838A82A362
:10379300A3A3A322C082C083124DC1600D9004393C
:1037A3001256CB900439E4F0A3F0120ED112109309
:1037B30002392374F012041E74EB1209A9ECFEED16
:1037C300FF89087425120B88780C120B3C7429129C
:1037D3000B88E0F9742A120B88E0FC742B120B8817
:1037E300E0FD740F697005740F6C6012900ED9E0E0
:1037F3006402700579C10238B8E9C39C40F69004AD
:1038030078780C120B2DE50890047EF0E990047C87
:10381300F0ECA3F0ED90047FF074FF6A700374FF83
:103823006B701D900EE5E0F47003A3E0F4700512D5
:103833001729800C900EE5123A87E8F0A3E9800778
:10384300900475EAF0A3EBF0EE4F6017EEFAEFFB8E
:10385300121153E96401700BEEFCEFFD7A897B04CE
:10386300121F87900468E4F0A3F090046BF0A3F0B8
:10387300900488F0900ED9E06402700890047C7480
:103883000FF0A3F09004777405F014120B88E4F0A2
:10389300900478120B65852182852283120B719027
:1038A300047EE0C0E07405120B88D0E0F0740712C8
:1038B3000B881238BD741502453AE4123BDD122021
:1038C3000B22C082C083900438E07003121A711275
:1038D3000C97804CC082C083900438E0900E7670C1
:1038E30004E4F0802D7401F0900438E0F460237C4C
:1038F30041E0C394415002E0FCECF8E0C398F0ECE3
:1039030075F0E8A4CCA8F075F003A428FD7A801222
:1039130045907A767B0E7941121FF38003120C3D9A
:10392300D083D0820208E0123B3E780822EE125A7E
:10393300FC22E0F508A3E0F5092212394122122CFA
:10394300BBA32274F512041E74E21209A985218215
:10395300852283ECF0A3EDF0EAFEEBFF89087429DE
:10396300120B88E0F509742C120B88E0F50A900419
:1039730077E064046005E06408700579C2023A7870
:10398300742A120B88E064FE7003A3E0F4700579D7
:10399300C3023A789004777403123BD97950121F0B
:1039A300F3742A120B88AA82AB83794B121FF38517
:1039B3002182852283123A87123B52E50890046ADA
:1039C300F0742A120B88123A80123B52E5099004D4
:1039D30062123A8E74CE55094480C0E07412120B01
:1039E30088D0E0F07401250A900488F0740F120B5C
:1039F300887402F0742A120B88123B467407120B68
:103A030088E8F0A3E9123AC57410120B88123B52EE
:103A13007405120B88E508F0741B120B88E4F09010
:103A2300047D740FF07A7D7B047954121FF39004A4
:103A33007C740FF07A7C7B047947121FF390047C2B
:103A4300E0C3940F50237405120B88E0C0E07402A6
:103A5300120B88D0E0F07404120B887401F0041286
:103A63000B88AA82AB831220177405120B88AA82D3
:103A7300AB83121FF9741E12094802294212452E04
:103A830090046B2212452E90047522F0EEFCEFFD9C
:103A93007A897B04121F872274F712041EEB9004A9
:103AA3007FF0120EBF8005740D1209487F010206D4
:103AB30039123ABAA3E022123B33A322EAF0A3EB72
:103AC300F022123B39F8A3E0F92274F712041E74B2
:103AD300F81209A9EAFEEBFF7900900477E0640885
:103AE300704485218285228374FDF0A374FFF01254
:103AF3000F9D7402120B88123ABF7405120B88E4EF
:103B0300123ABAE0C0E07404120B88D0E0123B2EE4
:103B1300C0E07406120B88D0E0F07407120B88E43F
:103B2300123BD9120FDF7408023AAC123B33E02286
:103B3300F08E828F8322123B3EE022F08521828524
:103B430022832212452E22E0F8A3E0F9125AFBE861
:103B5300F0A3E9F0221209487F02020639C082C0AD
:103B630083900449745DF0A3740DF09004EF7439ED
:103B7300F0A37410F090044D7493F0A3740DF090BF
:103B8300044F745DF0A3740DF09004517499F0A385
:103B9300740DF002392374F412041E74F91209A986
:103BA3008A088B098C0A8D0B8521828522837808EC
:103BB300120B2D7404120B88E9F07405120B88E4C0
:103BC300F07406120B88E4123BD9120C7F740702BF
:103BD3003CF9E8F0A3E9123BDD22123B3EAA82AB9B
:103BE300832274F412041E8A088B098A828B83123F
:103BF3005B09EE4F7003023CF1900412124DC46056
:103C0300158A828B83A3A3E0F9EEFAEFFB900413EA
:103C13001240361205998E828F83A3A3A3A3A3A375
:103C2300A3A3A3E0640270748E828F83A3A3A3A3D0
:103C3300A3A3E054027003023CC385088285098371
:103C4300A3A3E064E960798E828F83A3A3A3A3A3D4
:103C5300A3A3A3A3A3E07014900EDCE0048E828FD1
:103C630083A3A3A3A3A3A3A3A3A3A3F08E828F835E
:103C7300A3A3A3A3A3A3A3A3A3A3E014123CF3A30B
:103C8300A3A37404F0900EDD125544E8F0A3E912E7
:103C9300661D8B0BEA450B7003125FFB8E828F83CD
:103CA300A3A3A3A3A3A3A3A3A3E0640260128E828E
:103CB3008F83A3A3A3A3A3A3A3A3A3E06406702E4C
:103CC3008E828F83A3A3A3A3A3A3E0A2E0501F85A7
:103CD3000882850983A3A3E0F9EEFAEFFB1220A77C
:103CE3008E828F83A3A3A3A3A3A3E054FEF0800932
:103CF300123F3A22740D1209487F0402063974EC0C
:103D030012041E74DD1209A9EAFEEBFF8C088D096B
:103D13007437120B88780C120B3C750A0074051269
:103D23000B88AC82AD831221017412120B88E070F0
:103D3300087415120B88E060207405120B88E0A24A
:103D4300E6501E8E828F83A3A3A3A3A3A3A3A3A33F
:103D530012523E121015E960087903121F6F023FD9
:103D6300207405120B88E0540C64047005750B0174
:103D73008003750B00E0A2E55035750A01E50BA23F
:103D8300E0402C120FA38A108B11A810A91112392D
:103D930030E0687003A3E06960157405120B8812A4
:103DA3006AFC12523A1220B3E96004790480AC74BD
:103DB30005120B88E0A2E650227406120B88E05429
:103DC3000370187405120B88E0540C640C600CE04B
:103DD300540C6408600575100180037510007405A8
:103DE300120B88E05403F8740268700C126AFC1218
:103DF300523A1220EF023F20740168703AE510A294
:103E0300E05003123F287405120B88A882A983741B
:103E130003120B88E8F0A3E912452285218285224B
:103E230083123F32E0C0E07402120B88D0E0123BF1
:103E3300D912219D023F20E86003023F2090045FD6
:103E4300E0640170108E828F83A3A3A3A3A3A3E0D6
:103E53007003023DAE7422120B8874021245227461
:103E63001A120B88123B52E510A2E0500874051297
:103E73000B88123F28E50BA2E0506AEE240FF5826F
:103E8300EF1261C0C0E07417120B88D0E0F0900409
:103E930014124DC47003023F20120FA38A128B1316
:103EA300A812A913741A120B88E0687003A3E069BF
:103EB300706B780C120913780A12091F780812091B
:103EC3001BA910740C120B88AC82AD837421120BE6
:103ED30088AA82AB839004141240331205997407A5
:103EE3001209488038780C120913780A12091F78CE
:103EF3000812091B90047512074CEE2412F582EF89
:103F0300125EEE7423120B88AC82AD83740E120B17
:103F130088AA82AB8312209B740912094874231266
:103F230009480265E8126AFC1256D91220FB22E8FE
:103F3300F0A3E9123F3A22123F3E22F08E828F8392
:103F4300A3A3A3A3A3A32274F712041E1219450269
:103F53003AAF74F712041E12194B023AAF74F712F8
:103F6300041E121957023AAFC082C08312195102BC
:103F7300392374F712041E12195D023AAF74F71253
:103F8300041E7409120B88E0F508780812091F1241
:103F930019697401023AACC082C0831219750239DF
:103FA30023C082C08312197B02392374F712041EC3
:103FB300121981023AAF74F712041EEAFEEBFF896D
:103FC300087401650870147900120DD590274CE42C
:103FD30093FC7900EEFAEFFB120D4B023AAF74F447
:103FE30012041E74F91209A9E9FE8A088B098C0AC6
:103FF3008D0B7413120B8812523E90068E124DC411
:104003006027EE852182852283F07401120B887864
:1040130008120B2DEAF8EBF97405120B88123BD545
:1040230090068E124033120599023BD0FB90044B4D
:10403300E0F8A3E0F583888222C082C0831219B717
:1040430002392374F712041E900E79E0F97E008082
:104053000B1261AC540D64017001190E12424050F1
:1040630003E970ED023AAF74F712041E900E7AE082
:10407300F97E00800B1261AC548D64817001190EBE
:104083001242405003E970ED023AAF74F212041E7B
:10409300890BE975F006A4240CF508E5F012336AE0
:1040A3008A0CE508250CFAE5093400FB1217D78AB8
:1040B3000C8B0DAE0CAF0DEE4F6027AC08AD09793C
:1040C30000121717123930E50BF0EE2508F8EF351B
:1040D30009F98E828F83A3A3A3A3A3A3A3A3A312EC
:1040E3003B52EEFAEFFB02503974F612041EEAFE5D
:1040F300EBFF120D27900E78E0F8E9C39840099082
:10410300044512523E120D2DEE2402F8EF12584EC2
:10411300900447125708900447E004F0EEFAEFFBCF
:10412300120D33850882850983E0025D04C082C0D5
:1041330083790090044580010912523E8A828B8361
:10414300E582458370F202392374F712041EEAFEF6
:10415300EBFFEE4F6056900445124DC4604E8882CB
:1041630089837A007B00EE65827003EF6583600FBD
:10417300AA82AB831241B2E5824583602F80E79028
:1041830004451241BE687002EF698E828F83700806
:10419300123B4690044580031265FA123B52EEFA35
:1041A300EFFB12216DEEFAEFFB1217DD023AAF12AD
:1041B30041B622124532888289832212452EEE228D
:1041C300C082C083900445800488828983124DC4D1
:1041D300600B88828983124876EC4D70EC8A828B5F
:1041E30083E4F0A3F0E84960068882898380039022
:1041F3000445123ABF02392374F712041E90044592
:1042030080048A828B8312423B4B60257E008001AF
:104213000E12424050ECEE75F006A4FCADF0EA2C11
:10422300FCEB3DFDEC2410F582ED12429070E18031
:10423300047A007B00023AAF1256DDEA2212429959
:10424300EEC3982274F712041E7D0080010D124202
:1042530095EDC3985034ED75F006A4FEA8F0E8FF81
:10426300EA2EFEEB3FFFEE2410F582EF1242907030
:10427300DCED75F006A4FEE8FFEA2EFAEB3FFBEA5D
:104283002411F582EB1261C04CF0023AAF1261CCFB
:10429300692212429922126B06EB3400F583E0F88F
:1042A3002274F612041E120E4D7A007B008025EA5A
:1042B300F8EBF9E875F006A4F8ACF075F006E9A49C
:1042C3002C1256B21269C7A3E41257A8F0A31269BD
:1042D300CD126B44902738122FE940D37A007B002C
:1042E300801C8A088B0974037808120AAA12516683
:1042F300A374FEF0A304125588A3E4126B44902721
:104303004012434340DC7A007B00801D8A088B09FE
:1043130074037808120AAA74BB125E38740D12660D
:104323007F74FEF0A304126B44902746124343406C
:10433300DB90274EE493900453F012434D023B5B12
:10434300E493F8C3EA98EB9400227CE87D037A10A7
:104353007B009004C2E0F91218972274F012041E35
:1043630074F51209A98A088B09890A8C0BE9A2E062
:1043730050147508FC7509FFA2E15005D2E402440C
:1043830020D2E30244201250257003A3E069700594
:1043930079000244EDAC0A7902AA08AB09120E298E
:1043A300E960EDE50AF50C780C12091F79027CFE31
:1043B3007DFFAA08AB09124DA0120948E960030268
:1043C30044EBE50AC2E5F50A9004B5E07051E50A4D
:1043D300A2E6404B7403120B88AC82AD83AA08ABF0
:1043E30009120BCBE970321246C18A0C8B0DA80C53
:1043F300A90DE8FEE9FFE8496025EE24020A0AEF69
:10440300122CF9601AEE2402FCEF3400FD7403123F
:104413000B88AA82AB83121F87E50AD2E5F50A90BF
:104423000448E0F50C900468E0F50EA3E0F50F787E
:104433000E12091B7D017C00900448E0F9AA0EAB23
:104443000F120DE17402120948E9F8900448E004E0
:10445300F0E860030244EBE50AA2E55004740E8021
:10446300027406C0E07401120B88D0E0125B1A8A52
:104473000E8B0FAE0EAF0FEE4F606912450B124558
:1044830022888289837401F07478550AA3126B0C15
:10449300E50C126B0CA3E508F0E5091244FAE4F00D
:1044A300E50AA2E5500F7403120B88AC82AD83E8D2
:1044B30024061244F18E828F83A3A374FDF0A374A8
:1044C300FFF0E50B601590274DE493F8E50BC398D7
:1044D3005009EE2413125AEDE50BF0EEFAEFFB123E
:1044E3000C6D80067910800279C7740B8049FAE954
:1044F3003400FB121F872288828983A3A3A3A312FC
:10450300450622125881A322EE2417125AFE740183
:10451300F0120F9DEE241A125AFEEAF0A3EB22F0DA
:10452300126B00340012452C22F58312453222E02F
:10453300F8A3E0F922740D1209487F0802063974C2
:10454300F612041E7A007B1012600860089004D4EF
:104553007401F08029900731E06401900EDA70064F
:10456300E0FC79018004E0FC79037A007B00120D02
:104573004B9027361245847A007B10124592023BFA
:104583005B12458822E493FC740193FD227B009027
:1045930004C2E0F91218912274EC12041E8A088BEB
:1045A300098C0C8D0D890E7414120B88124F7F74B5
:1045B30016120B88E0F510A3E0F511121015E9604F
:1045C300077AFF7BFF0246BE900ED9E064026003C8
:1045D3000246B17900AA08AB09120E2FA90E120EDA
:1045E300238A128B13AE12AF13EE4F700302469958
:1045F3008E828F83A3A3A3A3A3E064018E828F8300
:10460300A3A3706912523E8E828F83A3A3A3A3A395
:10461300A3E05418604390274BE4938E828F83A3C7
:10462300A3A3A3F0EA650C7003EB650D6014EA65C0
:104633000A7003EB650B600AEA65107003EB651102
:10464300701F781012091BAC0AAD0BAA0CAB0D122C
:10465300111174021209488008900467125FF2A3D3
:10466300F074FE6A700374FF6B601D804EA3A3A3F6
:10467300E0640360298E828F83A3A3A3A3A3E064D2
:104683000470057AFE0245C68E828F83A3A3A3A37B
:10469300A3E0640270089004B4E064027010124650
:1046A300C18B0BEA450B6006AA08AB09800DAA086B
:1046B300AB099004491240331205990265E890044E
:1046C30075124DA61210D52274F712041EEAFEEBE2
:1046D300FF120C1FE9700AEEFAEFFB120C2BE960D4
:1046E30006EEFAEFFB80047AFE7BFF023AAF74F02A
:1046F30012041E8A0A8B0B8C0E8D0F890975080014
:10470300121015E979006003024868AA0AAB0B127C
:104713000E2FA909120E238A0C8B0DAE0CAF0DEED2
:104723004F60198E828F83A3A3A3A3A3E0640270B7
:10473300559004B4E064027003024866AA0AAB0B06
:1047430090044F124033120599120C318A0C8B0DD1
:10475300A80CA90DE849700302486688828983A3DF
:10476300A3A3A3A3E0A2E04003024866750C01A241
:10477300E150687901AC0AAD0BAA0EAB0F120D7BA9
:10478300E970640248668E828F83A3A3A3A3A3E088
:1047930064037005750C0280528E828F83A3A3A3DA
:1047A300A3A3E0640160030248669004751248768F
:1047B3008E828F83124BCB8A0C8B0DA80CA90DE82C
:1047C3004960D1902744E493FA88828983E0C39AAD
:1047D30050C2A3E0600302486680B988828983A33C
:1047E300A3A3A3A3D2E1F0EE4F603A8E828F83A3FB
:1047F300A3A3A3A3A3E05418602B7508018E828F93
:1048030083A3A312074C750CFE750DFF780C1209D8
:104813001B7900AC0AAD0BAA0EAB0F120E41740448
:10482300120948803E900468E0650E7004A3E065B9
:104833000F701490274CE493FCA909AA0AAB0B123E
:104843000D4B750801801CA90CAC0AAD0BAA0EAB6D
:104853000F120D7BE9700C750801A909AA0AAB0BAD
:10486300120DD5A90802453DE50C2415F582E50D89
:10487300125B0112555E2274EA12041E74F01209CF
:10488300A98A0C8B0D8C088D097426120B88E0F510
:1048930014A3E0F5157512069004F5124DC46023B8
:1048A300900475124876AA08AB091210FF8A108B80
:1048B30011EA4511600D8A828B83A3E070057900AC
:1048C300024BB3E50C241DF50EE50D3400F50F8501
:1048D3000E82124DB0F51388828983A3A3A3E0FA55
:1048E30088828983A3A3A3A3E0F9EA2400FEE43921
:1048F300FFAA08AB09120DDB850E82850F83124BCD
:10490300EEE029F50BE50AA2E5500375120E748754
:10491300550A70177418550A6418600FE50C2417AC
:10492300F582E50D1261C0651260077901121F6FF0
:10493300808C530A78C3EE94F8EF94FF501D7900EE
:10494300EEFAEFFB124BBD601288828983A3A3A307
:10495300A3A3A3E0541860030248C1780812091BFB
:104963007D00124BE1120948E9F8740368700302F1
:1049730048C1E86003024A2C7418550A7003024ABE
:10498300E1E50AD2E0F50AA2E45004D2E1F50AA96E
:104993000A125237124BBD605388828983A3A3A3A3
:1049A300A3A3A3E05418604488828983A3A3A3A389
:1049B300A3E064017036E510451160309004751270
:1049C300487688828983124BCB8A0E8B0FA80EA957
:1049D3000FE849601788828983A3E0600F851082FE
:1049E300851183A3125D0F50030248C1E50AF50E3A
:1049F300780E12091F124BD4120948E9702B7C0060
:104A03007D0085148285158374FFF0A3F0850C82E5
:104A1300850D83A3A3A3A3A3A3A3A3E060031248C9
:104A23006BA90B12523712196F851482851583E017
:104A3300F47003A3E0F460399004B4E064027003FB
:104A43000248C1124F70E0FAA3E012402F120599F9
:104A5300EA65087003EB650960030248C1EEFAEFEB
:104A630012402F120599851482851583EAF0A3EB72
:104A7300F0780812091B7D01124BE1120948A90ABB
:104A8300EEFAEFFB120E2F8A088B09A808A90990EA
:104A93000468E0687003A3E0696003024BA4EEFAC4
:104AA300EFFB120C318A088B09A808A909E84960B1
:104AB3006E88828983A3A3A3A3E06401600D888227
:104AC3008983A3A3A3A3E064027054852182852272
:104AD30083AC82AD83EEFAEFFB120BCB80559004CF
:104AE30061E0600FE50AF50E780E12091F124BD430
:104AF300120948E50AF50E780E12091F79027CFEA9
:104B03007DFFEEFAEFFB124DA0120948E9600302A4
:104B13004A2C85148285158374FFF0A3024A73120D
:104B23000F9DEAFCEBFD852182852283AA82AB835C
:104B3300121F87850C82850D83A3A3A3A3A3A3A31D
:104B4300A3E06401700F12486B7408120B88AA82E9
:104B5300AB83121F87124D7A1259864430F50878B9
:104B63000812091F7401120B88858208858309784E
:104B73000812091B740B120B888582088583097838
:104B83000812091BE513F508780812091F7900EECE
:104B9300FCEFFD125237120D7574061209480248D4
:104BA300C1124D7A125AF0124BEEE50BF0120FB50B
:104BB30074101209487F0E020639120E238A0E8BD7
:104BC3000FA80EA90FE84922A3A31256DD1210FF66
:104BD300227901AC08AD091256D2124DA022AC0BBA
:104BE300A9131256D2120DE174022212598EA3A3F5
:104BF300A3A32274F012041E74F01209A98A0C8B69
:104C03000DECFAEDFB750F089004F5124DC460141A
:104C1300125D088A828B83E58245836007A3E07077
:104C230003024D75124D7A3400124DB0F50B888294
:104C33008983124D83E0FBEC2400FEE43BFF888272
:104C43008983A3A3124D83A3A3E0FBECF508E43B04
:104C5300F50988828983A3A3A3A3A3A3A3E0F50EE5
:104C6300E50AA2E45003750F10A2E5500674082567
:104C73000FF50F748F550A700FE50C2417F582E5B5
:104C83000D1261C0650F60087901121F6F024D7527
:104C9300530A707800E50AA2E45022124D7A126199
:104CA300C02408FCA3E03400FD7408120B88AA8218
:104CB300AB83121F877808E50AC2E4F50AE50AA266
:104CC300E55028124D7A1261C028F8A3E03400F9A8
:104CD300E82408FCE93400FD852182852283AA8229
:104CE300AB83121F87E50AC2E5F50AAC0EA90BEEEA
:104CF300FAEFFB120DE7E9F8740368607590046836
:104D0300E06E7003A3E06F605EE87054E50AF50F90
:104D1300780F12091F124D91120948E97054780A4D
:104D230012091F7401120B8885820C85830D780C80
:104D330012091B740B120B8885820C85830D780C6A
:104D430012091BE50BF50A780A12091FA90EAC0814
:104D5300AD09EEFAEFFB120D7574061209488012C5
:104D6300740468700D80B7780A12091F124D9112EE
:104D73000948741002453AE50C241DF582E50D221D
:104D8300A3A3A3E0FC88828983A3A3A3A32279011D
:104D9300124F77125B01124DA6124DA022120D9FE6
:104DA300740122E0FCA3E0FDAA08AB0922F58312FB
:104DB30041B6A3E0F50A88828983A3A3E022900485
:104DC300391257392274E812041E74F51209A9EA3C
:104DD300FEEBFF8C088D0989147423120B88E0F510
:104DE3000F7424120B88E0F512A3E0F51374261256
:104DF3000B88E0F516A3E0F5177428120B88E0F58D
:104E03000EA90F120DED8A108B117401120B887409
:104E130008F0E50EA2E450037410F0E50EA2E5508D
:104E230004E02408F0852182852283AA82AB8312C1
:104E33000FFD8A0C8B0DEA450D7003024F57EA24D0
:104E430017F582EB124F69120F9DE50C241AF582B8
:104E5300E50D125AF0123ABF7403120B88AC82ADFF
:104E630083AA10AB11120BCBE9601D124F617403BF
:104E7300120B88A882A983E50C2418F582E50D128C
:104E83005AF0E8F0A3E98024E50EA2E4501FE510F0
:104E93006E7003E5116F7015124F61E50C2418F560
:104EA30082E50D125AF0E512F0A3E513F0124F70EC
:104EB300124F7F850A82F5837402F0A3E50E124F29
:104EC30087E50FF0EE850A82850B83A3A3A3F0EF9A
:104ED300850A82850B83A3A3A3A3124F87A3A3A34E
:104EE300E508F0E509850A82850B83A3A3A3A3A3A1
:104EF300A3F0AA10AB11120DDBE92514850A8285F4
:104F03000B83A3A3A3A3A3A3A3F0750800E50EA299
:104F1300E45011AC12AD13E50A2408FAE50B124470
:104F2300F3750808E50EA2E55014AC16AD17E50AB3
:104F33002508F8E50B3400F9E824081244F1850C40
:104F430082850D83A3A3E510F0A3E511F0AA0CABB2
:104F53000D120C6D740B1209487F10020639E50C13
:104F63002416F582E50D125B017401F022124F77CE
:104F7300125B0122E50C126B07E50D22E0F50AA393
:104F8300E0F50B22F0850A82850B83A3A32274F23A
:104F930012041E8A088B09ECFEEDFF890A790012C0
:104FA30050257003A3E069700479018073750B01C8
:104FB300900468E065087004A3E06509601F750B41
:104FC30000780B12091FA90AEEFCEFFDAA08AB0932
:104FD3001210517401120948E9F50B80417900EE72
:104FE300FAEFFB120E23EA4B602B8A828B83A3A377
:104FF300A3A3A3A3E05418601C7508FE7509FF78EA
:105003000812091B8A828B83A3A312074C12691C03
:1050130012094880097901EEFAEFFB120CFDA90B86
:105023008014120E2F8A0C8B0DA80CA90D90046806
:10503300E068221209487F0602063974F412041E3E
:1050430075080375090C7A101266248B0BEA450B5D
:10505300700312434D900453E014F0700C90274EEC
:10506300E493900453F0120E3B7E007F00806C8526
:105073000882850983A3A3A3A3E06059F46056E5DE
:10508300082404F582E509125FEC704985088285DE
:105093000983A3A3A3A3A3E064037019790285087A
:1050A30082850983124876850882850983A3A31222
:1050B300523E120D7B850882850983A3A3A3A3A374
:1050C300E06401601085088285098374FEF0A304FF
:1050D300125198E4F012351012336290273E126792
:1050E30080408C7E007F008039120F438E088F0929
:1050F30074037808120AAA747B2508FC740D350919
:10510300FD7A877B0D120F31EA4B70DD8E088F0914
:1051130074037808120AAA1251661269C7E4F012DE
:105123003510902740E493F8C3EE98EF9400501B9A
:105133008E088F0974037808120AAA12516EE824A4
:1051430007F582E9125FEC70D680A17E007F0080B4
:105153000A125179600214F012351012677D40F182
:10516300023CFC12516E8882898322747B2508F8E5
:10517300740D3509F922EEF8EFF9E875F006A4F895
:10518300AAF075F006E9A42AF9741B28F582740DB8
:1051930039F583E02212519FA3A3A322F08508824D
:1051A300850983A3A32274F712041E74E11209A9CB
:1051B300ECFEEDFF750800EE4F60728A828B83E090
:1051C300241C12601D124DC460638A828B831252A9
:1051D3003E852182852283AC82AD83EA241BF5823E
:1051E300EB125EEEEA241CF582EB12523A120F85A3
:1051F300740B120B881252427003A3E069702E7471
:1052030002120B88E064017024741D120B88124093
:1052130033E064017017741D120B88124035A3A389
:10522300E0F88E828F83E0687003750801A9087423
:105233001F023AAC124F773400F5831256DD221267
:105243002CB7E0682274F412041EE97024790090EC
:10525300044D1240331205998A0A8B0BAE0AAF0B29
:1052630074FE6E700374FF6F701A902747E49360A7
:1052730013790190044D1240331205998A0A8B0B5E
:10528300AE0AAF0B120FC102367874F612041E7405
:10529300F31209A91217298A088B09AE08AF0990DE
:1052A3000468E06E7003A3E06F60E9120FA9EA6E71
:1052B3007002EB6F60DEEEFAEFFB121015E970D4AB
:1052C300EE4F60D0852182852283E4F004120B889F
:1052D300EEF0A3EF1252F0E970BA74FE6E7003742D
:1052E300FF6F60B0EEFAEFFB740D023B58123BDD2B
:1052F300120BE322C082C083120FC10239237F0A3B
:1053030002063974F212041EEAFEEBFF8C0A8D0BBF
:105313008908740E120B88E0F50974FC6E7003742F
:10532300FF6F700579000250397900120E2F8A0C35
:105333008B0DAE0CAF0D900468E06E7003A3E06FAD
:105343007006E509A2E650DCA90912680A706179C2
:10535300007AFE7BFF12680A7056741855097003B1
:1053630002543D780079008003122EB190273E123B
:105373002EA8400302543DE8FAE9FBEA75F007A4BE
:10538300FAACF075F007EBA42CFB74092AF58274D0
:105393000C3BF583E0541870D0E875F007A4F8AA25
:1053A300F075F007E9A42AF9740328F8740C39F9A5
:1053B30088828983A3A3A3A3A3A3E05418600974D9
:1053C300185509700302532788828983EEF0A3EFEF
:1053D300F074FE650A700474FF650B600312556474
:1053E30088828983A3A3A3A3A3A3E509F0A2E05022
:1053F3000D88828983A3A3A3A3A3A3D2E2F074019C
:10540300650888828983A3A3A3A3A37038740112B8
:105413005588E05418602890274BE4938882898349
:10542300A3A3A3A31255521210FF8B0DEA450D60DF
:1054330003025327780079008039790202532990B7
:105443000467E080D7E064017003025327888289F0
:1054530083A3A3A3A3A3A3E05418600790274BE45B
:10546300938004900466E01244FAE508F00253279F
:10547300122EB1902741E493FAC3E89AE9940040CD
:10548300030253277A007B00804BEAFCEBFDEC75AB
:10549300F007A4FCAEF075F007EDA42EFD74052C07
:1054A300F582740C3DF583125B09E8FCE9FDEC75AC
:1054B300F017A4FC85F00975F017EDA42509FD7418
:1054C300932CF582740A3DF583E06E7003A3E06FBD
:1054D300609E1233E590273E12337240AD1245842D
:1054E300EC6A7002ED6B7088E875F017A4F8AAF007
:1054F30075F017E9A42AF9749328FE740A39FF7C1E
:10550300177D007900EEFAEFFB1217178E828F8357
:1055130012556A900475125544A3A3A3A3A3A3E849
:10552300F0A3E912554A7401F0EE240E125AED74F9
:10553300011255721202CDEE240D125AEDE80254F7
:105543006F123941A3A322F0EE240F125AFE22F068
:1055530012555BAA0AAB0B22900475E0FCA3E0FD95
:105563002288828983A3A3E50AF0A3E50BF022F046
:1055730012557722902744E4932401F8E43400F988
:105583007A027B0022124506A32274ED12041E8ABE
:10559300088B09890E1256BB4005790502568912FC
:1055A30019BDAA08AB0912578D90273812568C657E
:1055B3000A7003E9650B70077AFE7BFF12578D9023
:1055C3002738E4125694E50A98E50B9940030256EE
:1055D300871256986012E50A75F006A4F875F0066E
:1055E300E50B1256E31217DDE50E6018E50A75F0B8
:1055F30006A4F8AAF075F006E50B12570F701A7996
:1056030001025689E50A75F006A4F8AAF075F006BA
:10561300E50B1256F0E4F0A3F0E50A75F006A4F8E2
:10562300AAF075F006E50B1256B0A312599C8882B6
:105633008983A3AA82AB831256FE8A828B83E0609E
:105643003F125698603A8E108F117512007810121F
:105653000917E50EC333FCE433FDE50A75F006A430
:10566300F50AA8F075F006E50BA428F50B741F25C1
:105673000AF582740D350B12523C1233831209481A
:1056830079008002790702682012300AE822902705
:105693002E1261A722E50A75F006A4F8AAF075F0A8
:1056A30006E50B1256EBF8A3E0F9E84922A42A1207
:1056B300584488828983A322ECFEEDFF902742E4BD
:1056C30093F8E9C39822F5831256DD1217DD22E51C
:1056D3000C126B07E50D3400F583E0FAA3E0FB221F
:1056E3001256EBFAA3E0FB221256F0E022A42AF9A9
:1056F300741F28F582740D39F58322E50EF0900EA0
:10570300DB12570822E088828983F022125868F559
:105713000CE93400F50DE50EC333FAE433FB12173D
:10572300D7850C82850D83EAF0A3EBF0850C828587
:105733000D8312573922124532E8492274F41204B8
:105743001EECFEEDFF740C120B88123B4688088991
:105753000912578DAC0AAD0BECF8EDF9902738120E
:1057630057955021E875F006A4F8AAF075F006E9FC
:105773001256B0E08E828F831257A812579E123BA7
:1057830052790080027904023CFC120DB18A0A8B23
:105793000B2212337BC3EC9AED9B2212452E850814
:1057A300828509832212587D2274F612041E7E001C
:1057B3007F008028EEF8EFF9E875F006A4F8ACF066
:1057C30075F006E9A42CF9741D28F582740D126492
:1057D3002B6A7003A3E06B605712351012677D408C
:1057E300D31267787002E96F704674FE6A700374AF
:1057F300FF6B703C7E007F00800312351012677DC3
:10580300502E12517970F3EEF8EFF9E875F006A413
:10581300F812583A12586F6017125856F8E912588E
:105823004E88821256C9850882850983E4F0A3F065
:10583300EEFAEFFB023B5B75F006E912584222A435
:105843002AF9741B28F8740D39F9223400F98808F1
:10585300890922EEF8EFF9E875F006A4F875F00669
:10586300E912586822125842E8240422A3A374FEC2
:1058730012587A12573922F0A30412588122F08861
:10588300828983A3A3A3A32274F612041EEA241D10
:10589300F582EB125986F9604BEA241DF582EB126F
:1058A30061C02402FCA3E03400FD1256BF40030292
:1058B3005979780080298C828D83E0F508A3E0FF75
:1058C300E5082400E43FF509E833FEE433FF74639D
:1058D3002EF582740D3FF58312599C12597C08E80A
:1058E300C39940D28A828B83A3A3A3A3A3A3A3A315
:1058F300A3124876900468E06C7003A3E06D700F08
:105903007C637D0D122C2012523A120DA58067EA9A
:105913002411F582EB1261C0605CFC74FF2CF075FE
:105923000801780812091F75086375090D780812B4
:10593300091BE9F508780812091FEA2412F582EB1E
:105943001261C0F508780812091FEA2415F582EBE5
:10595300125AF012074CECF9122C201248738A8267
:105963008B83A3A3A3A3A3A3A3A3A312523E120DAA
:10597300BD7407120948023B5BEC24020C0CED34A6
:1059830000FD22125B0112598EE022E0F8A3E0F53C
:10599300838882A32288828983E508F0A3E509F03E
:1059A3002274EA12041E74FD1209A98A148B158C41
:1059B3000E8D0F890D7419120B88125B09741B125B
:1059C3000B88E0F511741C120B88E0F50C741D12A2
:1059D3000B88124F7F741F120B88E0F5106008E5E7
:1059E3000CC333240480027402C0E07401120B88D8
:1059F300D0E0125B1A8A088B09EA45097003025A40
:105A0300E58A828B83A3A3E514F0A3E5151266133D
:105A1300E50EF0A3E50FF0EA2413F582EB125AF03A
:105A2300E50DF0EA2414F582EB125AF0E511F0EAE1
:105A33002417F582EB1261C064017040120FA38A30
:105A43000E8B0FA80EA90F850882850983A3A3A334
:105A5300A3E0687003A3E0696022EE4F6011E508DC
:105A6300241AF582E509125AF0EEF0A3EF800CE553
:105A7300082417F582E509125AF0E4F0125AF412D9
:105A83005B098E828F837405F0A3E5107004E50C27
:105A930080487401250C125B137A008028850A82E2
:105AA300850B83E0125B0F850A82850B83A3E08E4F
:105AB300828F83F0E50A2402F50AE50B3400F50B27
:105AC300A30EAF830AEAC3950C40D2120FA3EA12C6
:105AD3005B0F120FA3EB8E828F83F0AA08AB091220
:105AE3000C6D7403024BB5EE240CF582EF125B01CF
:105AF30022122C31125B0122EE240BF582EF3400CB
:105B0300F58322900434E0FEA3E0FF228E828F838C
:105B1300F0A3AE82AF8322123BDD120FFD22C082BF
:105B2300C083E9C333FCE433FDEA2CFAEB3DFBEA23
