:020000040000FA
:06000000020F5502053756
:0300130002055A89
:03002B00020C6E56
:03003300020B1BA2
:03003B000205AF0C
:030053000204762E
:03006B00020AF591
:100083000204D30101FF050301FF14FF14FF14FF52
:1000930014BB13B513FF14C32500000000FF240095
:1000A3000000000C0000000C0001FF000001000034
:1000B3002004250400003317000000000000E717A8
:1000C30000000000000000000000FFFF010101002C
:1000D3000E050000005F05E80364006400B8010238
:1000E300020008000005020701051E02051E020AA0
:1000F3000A03B80B02803E010201FFFF020A14014A
:10010300E09651180002020612FFFFFF00120F745F
:10011300700418181822120FA1700D74FFF6181925
:10012300F61819F61819F622E7548066F6120FEA44
:10013300700F120FE070F014F608F608F608F68058
:10014300D1120FE0700CF608F608768008E6447FBB
:1001530080EC120E1C700C120E3160BFE65480F658
:10016300E480BB120E31700519191980A5E8697076
:100173000C763F18768018F618F6E8F922E6CDC01B
:10018300E018ECC0E0E633CD33CDD313F6E719FC2A
:10019300E7191933CC33C3947F400ECD9D50240807
:1001A300E65480F6E418F6800FF4043D1450140866
:1001B300E6447FF6187680E418F618F6D0E0FCD013
:1001C300E0FD22CCD313CCFD18E4C6CBC0E018E489
:1001D300C6CAC0E00808ED08C633E613F618E433D0
:1001E300C675F003C3CA97CA09CB97CB199C4004C1
:1001F3007D08802EBD00030202B916B6FF05060670
:10020300081618C3CA33CACB33CB33CA27CA09CBA0
:1002130037CB193CC37D08803E187D0820E75CC6B8
:1002230033C6CA33CACB33CB33DDF1D5F0EB30E77A
:100233007BCA97CA09CB974ACB199C406F4B702551
:10024300E620E0218066187D08C3CA97CA09CB97C8
:10025300CB199CD3C633C6CA33CACB33CB3350C9AD
:10026300DDE7D5F0E1D3E4C636C608C636C608C610
:1002730036C608C636C61818188031C3CA97CA09C5
:10028300CB97CB199CB34097C633C6CA33CACB337B
:10029300CB33DD34D5F02EC6A2E0C640C8CA27CA88
:1002A30009CB37194A70BECB3CB480B90808E63392
:1002B30008E633601F181818D0E0FAD0E0FBD0E04E
:1002C300FCD0E0FD22187D08CA27CA09CB37CB1919
:1002D3003CD3808013F618E4B67F11F618B6FF0EF0
:1002E300F618C60470D20808768080CAF618F61885
:1002F300F680C500120F74604F120FA16012E7540D
:100303008066F6120E2E7011120FE0703B09090978
:10031300F4F618F618F618F622120E197015120FC5
:10032300EA08080860EAE6447FF618768018E4F6DF
:1003330018F622120FEA6016120FE07012E4F608A4
:10034300F608F608E65480F609090918181822EA8F
:10035300C0E0EBC0E0ECC0E0EDC0E0E687F0A4FB5A
:10036300ACF008E687F0A42CFCE435F0FA1809E6B3
:1003730087F0A42C4B60027401CA35F0FCE433FB14
:1003830009E687F0D2F7A42CCB35F0FC1908E687F1
:10039300F0A42BCC35F0FBE433FD0819E687F0D24B
:1003A300E7A42C4ACB35F0CD3400FC09E687F0D224
:1003B300E7A42DCC35F0FDE433FA0918E687F0D233
:1003C300F7A42CCD35F0CA3400FC08E687F0D2E759
:1003D300D2F7A42ACC35F07A7E20E70B0ACB33CBB5
:1003E300CD33CDCC33CC33CB3350147004ED30E06C
:1003F3000ED2F1E4CD3DCDCC3CCC3B5005DA05C269
:10040300F1EB547FC63308E63392F0FBE73309E799
:1004130033C39A502D2B70190C0D4C4D70151806C3
:10042300E608C333700D20F10AA2F013F6E4188036
:100433000B4024E4F630F002768018F618F618F62E
:100443008024D33B14501074FFA2F013F618768067
:10045300E418F618F6800FA2F013F618E63303F645
:1004630018ECF618EDF6D0E0FDD0E0FCD0E0FBD0C0
:10047300E0FA22C0E074F212085DA2AFE433FED2C8
:10048300AFE5A7FFE5A1F5085F54106006121DB1A3
:1004930075A1EFE5085F54086008121DB775A1F751
:1004A3008024E508A2E092F0EFA2E082F0501790DA
:1004B3006198E0F8900738E0C398A2D265D0335032
:1004C30002E8F075A1FEEEA2E092AF7F01020919E6
:1004D300C0E074F212085DA2AFE433FED2AF9061C4
:1004E300A4E0F8759B00E59158540860087591F7EE
:1004F300121DFF8023E59158541060087591EF1287
:100503001E058014E591A2E092F0E8A2E082F0508B
:1005130007E0C2E0F0121F499061A3E0F8E5E95853
:100523005404600E121F1F75E9FB906193E0A2E66D
:1005330040F28092C0E074F212085DA2AFE433FE91
:10054300D2AF9061A5E0F8E5BF585404600675BFCB
:10055300FB121F610204C9C0E0C0D0E8C0E0E9C0DB
:10056300E0C082C083E5C1C0E09006A4E0F8742334
:1005730028F58274063400F583D0E0F09006A3E0FA
:10058300F8A3E0687006E5959006A6F09006A4E04F
:1005930004F0C394804002E4F0A374C6F0D083D087
:1005A30082D0E0F9D0E0F8D0D0D0E032C0E0C0D0C3
:1005B300E8C0E0C008C009C082C083900727E0F804
:1005C300A3E0687008539AFBA374018026C2E990E4
:1005D3000727E0F50874012508F074A72508F582BC
:1005E30074063400F583E0F5C1900727E0C39480D7
:1005F3004002E4F0D083D082D009D00880A6C3E4BF
:1006030098F8E499F91206428026C3E49AFAE49B27
:10061300FBE920E7E9120642E498F8E499F922C3DA
:10062300E498F8E499F9120642E498F8E499F9C3D6
:10063300E49AFAE49BFB22EB20E7CFE920E7E0B959
:100643000010BB0008E88AF084F8AAF022E4FBC893
:10065300FA22EB70227B10C833C8C933C933500761
:10066300C39AC3DBF280069A50012ADBEAC833F44B
:10067300C8C933F4C9FA2275F008E4C833C8C933CA
:10068300C933C99AC99B5004C92AC93BD5F0ECFBAD
:10069300C833F4C8E4C9FA22080808EAC0E0EBC08A
:1006A300E086F0E7A4FA180986F0E7A42AFA180905
:1006B30086F0E7A42AFA180986F0E7A42AFA19862D
:1006C300F0E7A4FBE5F02AFA190886F0E7A42BFB70
:1006D300E5F03AFA190886F0E7A42BFBE5F03AFABD
:1006E30018180986F0E7A4C5F02BFBE43AFA1908B9
:1006F300E7C5F0C6A426F6E5F03BFBE43AFA188614
:10070300F0E7A4F6E5F00826F6E43B08F6E43A0839
:10071300F6D0E0FBD0E0FA22E4CFC0E0E4CEC0E0C4
:10072300E4CDC0E0E4CCC0E075F020C3E633F608C6
:10073300E633F608E633F608E633F6181818EC3312
:10074300FCED33FDEE33FEEF33FFC3EC9709ED977A
:1007530009EE9709EF97191919400FFFEC97FC0958
:10076300ED97FD09EE97FE191906D5F0BEECF709D2
:10077300EDF709EEF709EFF7191919D0E0FCD0E00E
:10078300FDD0E0FED0E0FF222518C582C0E0E519C8
:1007930034FFC583C0E0E518C3958224F810AF0881
:1007A3008583198582188008858319858218D2AFBD
:1007B300CEF0A3E520F0A37808E608F0A3DEFAEF75
:1007C300F0A3E58124FAF8E608F0A3E608F0A3E62F
:1007D30008F0A30808E608F0A3E608F0A3158115BE
:1007E30081D0E0FED0E0F8158115811581E8C0E0E5
:1007F300EEC0E02212080E30F0051208538000C646
:10080300CC18C6CB18C6CA18C6F922E4C9C608CA8A
:10081300C608CBC6D3330308CCC63392F0C3947F48
:10082300402E94184019C9B90704CACBCC225025CD
:10083300C309CA33CACB33CBCC33CC33D9F422F478
:10084300600DC9CCC313CB13CBCA13CAD9F6CC22C0
:10085300E4FCFBFA2214FCFBFA22C0D02518C58263
:10086300C0E0E51934FFC583C0E0E518C3958224D1
:10087300F310AF088583198582188008858319854D
:100883008218D2AFC8F0A3E9F0A3EAF0A3EBF0A378
:100893007908E709F0A3D8FAECF0A3EDF0A3EEF0A2
:1008A300A3EFF0A3D0E0F0A3D0E0F0A3D0E0F0A357
:1008B300E520F0A3E5F0F0A322E9799EC608CAC6B5
:1008C30008CBC608CCC6C370207996CACBCC7019A6
:1008D300798ECBCC70137986CC700EF9802ACA330B
:1008E300CACB33CBCC33CC331930E7F2CCCBCA33BE
:1008F30050147004EA30E00DE4CA3ACACB3BCBCCC7
:100903003CCC500209C3E913C6CC182313C6CB1839
:10091300C6CA18C6F922851983851882E0C0E0A3E8
:10092300E0F9A3E0FAA3E0FBA37808E0F608A3DF6D
:10093300FAE0FCA3E0FDA3E0FEA3E0FFA3E0C0E038
:10094300A3E0C0E0A3E0F5D0A3E0F520A3E0A3F586
:10095300F010AF088583198582188008858319856F
:100963008218D2AFD082D083D0E0F8D0E032120F19
:10097300D5B900030209B3E49003017891790980A2
:1009830002F0A3D8FCD9FA900B91AA82AB83900012
:1009930086788B79018015E493A3AC82AD838A8238
:1009A3008B83F0A3AA82AB838C828D83D8E9D9E7AA
:1009B30075829B7583A37403120D0A75828B7583ED
:1009C300227400120D0AE4730475F0108E1A8F1B43
:1009D30085821F85831E851882851983E0CEA3E057
:1009E300CF851F82851E83EBC9EAC8EDCBECCAC352
:1009F300E833C8E933C9EA33CAEB33CBC3EA9EF51C
:100A03001DEB9FF51CB35004AB1CAA1DEC33CCEDBE
:100A130033CDD5F0DAAE1AAF1B22D083D082ECC02F
:100A2300E0EDC0E0E493A3FCE493A3FDED4C600D83
:100A3300120B39EC24FFFCED34FFFD80EFE493A3AC
:100A4300FCE493A3FDED4C600D120BD6EC24FFFCEC
:100A5300ED34FFFD80EFD0E0FDD0E0FCE493A3C0D4
:100A6300E0E493C0E022D083D082E9C0E0E493A322
:100A7300C386F0C5F095F0F908E493A386F0C5F0BA
:100A830095F0700BE493A3C3994005E9048002A396
:100A9300E475F002A42582F582E5F03583F583D071
:100AA300E0F9E493A3C0E0E493C0E02285198385D1
:100AB3001882E0A3FEE0A3F5207808E0A3F608DFA0
:100AC300FAE0A3FFE0A3C0E0E0A3C0E0E0A3C0E03E
:100AD300E0A3C0E0E0A3C0E010AF088582188583DF
:100AE300198008858218858319D2AFD083D08202FA
:100AF3000D10C0E074F212085DA2AFE433FED2AF72
:100B0300E589A2E15003121CD3758900C2C5EEA288
:100B1300E092AF7F01020919C0E074F212085DA2EE
:100B2300AFE433FED2AFE58BA2E05003121CD375C2
:100B33008B00C2E880D8C0E0C3E4939608740193A5
:100B43009618400FE4936670080874019366187052
:100B5300007019A3A3C3E49396087401939618A392
:100B6300A3400DD0E0D0E0D0E0020A59A3A3A3A391
:100B7300A3A3D0E0227404800474028000CCC0E0FC
:100B8300EDC0E0E518C39CCCAD1950011D10AF06B4
:100B93008C188D1980068C188D19D2AF120C4DD07C
:100BA300E0FDD0E0FC2274028000CCC0E0EDC0E0A8
:100BB300E518C39CCCAD1950011D10AF068C188DE0
:100BC3001980068C188D19D2AF120C2BD0E0FDD0F2
:100BD300E0FC22C0E0C0F088F0E49366700808747B
:100BE300019366187000A8F0A3A3700BD0F0D0E0B7
:100BF300D0E0D0E0020A59A3A3D0F0D0E022D08302
:100C0300D082CCC0E0E493A36006120CCD1470FA3A
:100C1300E493A36006120DC31470FAD0E0FCE493CE
:100C2300A3C0E0E493C0E022CAC0E0E493A3C5827A
:100C3300CCC582C583CDC583F0A3C582CCC582C58F
:100C430083CDC583DAE5D0E0CA22CAC0E0E0A3C5FC
:100C530082CCC582C583CDC583F0A3C582CCC582B2
:100C6300C583CDC583DAE6D0E0CA22C0E0C0D0E8B0
:100C7300C0E0E9C0E0E5A8D2AFC2C7A2E7A2E7920D
:100C8300AFD0E0F9D0E0F8D0D0D0E032C008C3E074
:100C930096F50808A3E096420808A3E096420808E0
:100CA300A3E09645087001D3D0082270090808080C
:100CB300226016181818C6C333C608C633C608C63A
:100CC30033C608C633C6D5E0EA22C0E0E493A3D313
:100CD3009C5010E493A3C39C400AD0E0D0E0D0E042
:100CE300020C1EA3A3A3D0E022C5822518C582C58A
:100CF30083351910AF07F5198582188007F5198513
:100D03008218D2AFC58322C09FF59FE473D09F2280
:100D1300D083D082C09FE493C0E0740193C0E07499
:100D23000293F59F227404800A7403800674028080
:100D3300027401C0E0F404120D43D0E0120FB0229C
:100D43002518F58210AF08F518400215198008F52B
:100D53001840021519D2AF85198322C0D025181067
:100D6300AF08F518500205198008F5185002051947
:100D7300D2AFD0D022BB0102E722C082C0838982D6
:100D83008A83BB0003E08002E493D083D082226095
:100D930016080808C6C313C618C613C618C613C652
:100DA30018C613C6D5E0EA22C3E0C696F608A3E048
:100DB300C696F608A3E0C696F608A3E0C696F62202
:100DC300C0E0E493A36C7009D0E0D0E0D0E0020C63
:100DD3001EA3A3D0E022251810AF08F51840021572
:100DE300198008F51840021519D2AF22E766701072
:100DF3000809E766700A0809E76670040809E766E8
:100E030022E066701008A3E066700A08A3E066702B
:100E13000408A3E06622191919E7094709700AE7CC
:100E230009C3337005E733F4220922181818E608BA
:100E33004608700AE608C3337005E633F422082235
:100E4300C3E09608A3E09608A3E09608A3E096A261
:100E5300D265D03322C3E096F008A3E096F008A34E
:100E6300E096F008A3E096F022E026F008A3E0362F
:100E7300F008A3E036F008A3E036F022E026F608F7
:100E8300A3E036F608A3E036F608A3E036F622E63A
:100E930027F60809E637F60809E637F60809E637BC
:100EA300F622E657F60809E657F60809E657F60864
:100EB30009E657F622E056F608A3E056F608A3E043
:100EC30056F608A3E056F622E056F008A3E056F0E3
:100ED30008A3E056F008A3E056F022E647F6080917
:100EE300E647F60809E647F60809E647F6227004DE
:100EF30022600D18C6C333C608C633C6D5E0F4183E
:100F030022E4C396F608E496F608E496F608E49617
:100F1300F622C3E09608A3E09608A3E09608A3E0B0
:100F23009622C6F4C608C6F4C608C6F4C608C6F4B4
:100F3300C622600D08C6A2E713C618C613C6D5E0BD
:100F4300F322C3E7960809E7960809E7960809E735
:100F5300962275D00075814075180175190300023A
:100F63000971E6F008A3E6F008A3E6F008A3E6F0AB
:100F730022E6084608C3134608336002E633F42228
:100F8300600C08C6C313C618C613C6D5E0F422E026
:100F9300F608A3E0F608A3E0F608A3E0F622E709C3
:100FA3004709C3134709336002E733F422CAC0E099
:100FB300E6F0A308DAFAD0E0FA22EAF0A3EBF0A312
:100FC300ECF0A3EDF022E0FAA3E0FBA3E0FCA3E046
:100FD300FD22E5C754F84401F5C7790122E7C3337D
:100FE30019471947194722E6C333184618461846C6
:100FF300222518F582E43519F58322C2AF75D69FF1
:1010030002000022120D13776100120D139061008C
:10101300120D13B66100120D13F16100120D133599
:101023006200120D135C6200120D13AD6200120D0B
:10103300135D6300120D13156400120D13DD6400BC
:10104300120D13BA6500120D13406600120D134FF3
:101053006600120D135A6600120D13636700120D1A
:1010630013746700120D13EA6700120D137C6800F6
:10107300120D13D46800120D139A6900120D13CBCD
:101083006900120D13106A00120D131D6A00120D70
:1010930013B16B00120D13146D00120D13306E009B
:1010A300120D139A7000120D13A57000120D13AFD9
:1010B3007000120D13BA7000120D13C47000120DDC
:1010C30013CE7000120D13D97000120D13E47000CB
:1010D300120D13157100120D13397100120D135DEA
:1010E3007100120D13C27100120D13067200120D5E
:1010F30013227200120D13997200120D13D1720094
:10110300120D131D7300120D137A7300120D135C6D
:101113007500120D13E27500120D13B37600120D54
:1011230013C37900120D13187A00120D13447A00B9
:10113300120D13907B00120D13E07B00120D13357B
:101143007C00120D13367D00120D13CE7D00120D9F
:1011530013507E00120D13F07E00120D137B270037
:10116300120D13B42700120D138E2900120D13CD87
:101173002900120D13172A00120D13BC2A00120D99
:10118300131B2B00120D134F2B00120D13BC2B003E
:10119300120D13D92C00120D13E12D00120D13772C
:1011A3002E00120D13BE3100120D13673200120D03
:1011B30013433300120D13A43300120D13C1340073
:1011C300120D13EB3600120D13A23700120D13ACE0
:1011D3003700120D13DF3700120D13A63800120D5E
:1011E30013413900120D13A63900120D13CF390024
:1011F300120D13F13900120D13203C00120D13F7D9
:101203003C00120D133B3D00120D13A83D00120DBF
:1012130013633E00120D13953E00120D13D93E00C9
:10122300120D130C3F00120D13613F00120D13B684
:101233003F00120D134A4000120D13AC4000120D73
:1012430013144100120D13BD4200120D13A54300E8
:10125300120D13E74400120D13154700120D13D599
:101263004700120D13044A00120D13A74A00120D72
:1012730013E54A00120D13914C00120D13A54C00F7
:10128300120D13AF4C00120D13D94C00120D13E5C0
:101293004C00120D13044D00120D13BB4D00120D23
:1012A30013FA4D00120D13044E00120D13B84E0025
:1012B300120D13B74F00120D13B05000120D134D42
:1012C3005100120D13EF5100120D13065200120DAF
:1012D300133D5200120D135B5200120D139F520067
:1012E300120D13C45200120D13AA5300120D13163C
:1012F3005400120D13905400120D139F5500120D3C
:1013030013DE5600120D13405700120D13FA570047
:10131300120D131D5800120D13F15800120D133C3A
:101323005900120D137E5900120D13D55900120DD9
:10133300130C5A00120D133A5A00120D13735A006C
:10134300120D13985A00120D13205B00120D134354
:101353005D00120D13A25D00120D13365E00120D17
:1013630013A25E00120D13F65E00120D13BFB80335
:10137300120D13FEB803120D135DB201120D13B754
:10138300B201120D1313B301120D135FB301120D4A
:10139300137AB301120D13ABB301120D13C8B301CA
:1013A300120D13D4B301120D1348B501120D1361BD
:1013B300B501120D13C8B501120D13DBB501120DE2
:1013C30013E9B501120D139DB601120D1381B70177
:1013D300120D1387B801120D130DB901120D131756
:1013E300B901120D1384B901120D139BB901120D2A
:1013F30013CDB901120D1306BA01120D1330BA0140
:10140300120D1391BA01120D13B1BA01120D13CFBC
:10141300BA01120D1315BB01120D133BBC01120DC2
:101423001388BC01120D13B7BC01120D132DBD019E
:10143300120D1355BD01120D138EBD01120D139C18
:10144300BD01120D13F4BD01120D1343BE01120DA4
:101453001382BE01120D13B2BE01120D13DEBE01C3
:10146300120D13E9BE01120D1307BF01120D13C9AB
:10147300BF01120D13D3BF01120D130EC001120DC4
:101483001324C001120D132DC001120D1382C001CC
:10149300120D1396C001120D13A4C101120D13B73F
:1014A300C101120D13CCC101120D136EC201120D35
:1014B30013F1C201120D13AFC301120D13BAC3010D
:1014C300120D13E0C401120D13FCC401120D134ECF
:1014D300C501120D138DC501120D13A2C501120D05
:1014E30013E4C501120D1331C801120D13AFC80166
:1014F300120D1322C901120D1344CB01120D135CFB
:10150300CB01120D135FCB01120D136BCB01120D27
:10151300137FCB01120D1387CB01120D13BACB012D
:10152300120D136ACC01120D13E0CC01120D1353EB
:10153300CD01120D1307CE01120D13BCCE01120DF6
:1015430013DBCE01120D137BCF01120D1387CF01D5
:10155300120D13B2CF01120D13B5CF01120D131FCC
:10156300D001120D1347D101120D131FD201120D19
:1015730013AAD201120D13C3D301120D1380D40188
:10158300120D13B9D401120D13EAD401120D138AEB
:10159300D501120D13BAD501120D1395D601120DF3
:1015A300132ED701120D13B9D701120D136AD801E7
:1015B300120D13ECD801120D131ED901120D135F76
:1015C300D901120D136FB702120D13D0B702120D0A
:1015D300130DB802120D1360B802120D1389BA026B
:1015E300120D1359BC02120D13C6BF02120D13FDC7
:1015F300BF02120D131BC002120D1391C002120D74
:1016030013B9C002120D13EAC002120D131AC1025C
:10161300120D1376C102120D1394AB02120D1312A5
:10162300AC02120D1348AC02120D13B4AC02120D2E
:101633001327AE02120D1343AE02120D1388AE022E
:10164300120D1315AF02120D136EAF02120D139A82
:10165300B002120D13A8B102120D1305B202120D3E
:101663001371B202120D13D2B202120D1313B3028D
:10167300120D13C0B302120D13D2B402120D1315BF
:10168300B502120D1363B502120D139AB502120DB2
:10169300133DB602120D13F8B602120D13718B032C
:1016A300120D13EF8B03120D13968C03120D1311EE
:1016B3008E03120D13398E03120D135B8E03120D5D
:1016C3001385EE02120D13FFEE02120D1306F00244
:1016D300120D1375F002120D13CBF002120D13CE7F
:1016E300F002120D1399F102120D13B6F102120D4D
:1016F30013B9F102120D1382F202120D1316F30243
:10170300120D13EEAA03120D13FFAA03120D1350A9
:10171300AB03120D1395AB03120D133DAC03120D66
:10172300138FB403120D13C5AD03120D13EDAE03E6
:10173300120D13C2C102120D1371C202120D1391C5
:10174300C202120D13B1C202120D13C5C202120D51
:101753001325C302120D1355C302120D13DFC40266
:10176300120D1388C502120D136AC602120D13BDA2
:10177300C602120D1301C702120D1344C702120D44
:1017830013AFC702120D13D0C702120D1353C802B1
:10179300120D1388C802120D13F8C802120D138F0D
:1017A300CA02120D1365CB02120D13A7CB02120D41
:1017B3001301CC02120D13ADA703120D13CEA70311
:1017C300120D1308A903120D1332A903120D13C925
:1017D300B903120D13D9B903120D13E3B903120D93
:1017E300137F9F02120D13829F02120D133CA0025E
:1017F300120D1367A002120D13ADA002120D13D226
:10180300A002120D13F3A002120D1327A102120D51
:10181300135FA102120D1388A202120D13B7A202C5
:10182300120D13D7A202120D136FA302120D13325E
:10183300A402120D1367A402120D13CFA502120DF9
:101843001372A602120D136AA702120D139FA702A9
:10185300120D13FFA702120D13BFA802120D13EDF1
:10186300A802120D1374AA02120D13F5AA02120D87
:101873001328AB02120D13C6AA01120D135DDE026B
:10188300120D13ADDE02120D131BDF02120D133CFA
:10189300DF02120D1353DF02120D1303E002120DC8
:1018A300130CE002120D135FE002120D1388E00225
:1018B300120D13E6E002120D1377E102120D13B3BA
:1018C300E102120D13FFE102120D1371E202120D78
:1018D30013F7E202120D1336E302120D1377E3023C
:1018E300120D13AEE302120D13236100120D13D276
:1018F300E302120D13F1E302120D13FAE302120DC8
:1019030013B2E402120D13F2E402120D13B8F7023C
:10191300120D138DF802120D13A7F802120D13B84E
:10192300F802120D13D1FA02120D13F0FA02120D7E
:101933001374B803120D1369A103120D139FA103AE
:10194300120D13EAA103120D1338A303120D1394FE
:10195300D901120D13DFDA01120D131BDB01120D76
:1019630013D2DC01120D13FBDC01120D1393DF0103
:10197300120D13D3DF01120D1374E101120D130EB7
:10198300E201120D1376E201120D1303E301120DAE
:10199300133BE301120D137BE301120D130EE5015B
:1019A300120D13ADE601120D13FCE801120D132AFB
:1019B300E901120D1356E901120D135FE901120D2E
:1019C30013BAE901120D1350EA01120D1379ED0157
:1019D300120D13FEED01120D1326BA03120D13029D
:1019E3008803120D13178803120D13B48803120D05
:1019F30013F08803120D13078903120D132E8903A5
:101A0300120D13738903120D13A48903120D13DC32
:101A13008903120D13648B03120D13C2B603120D47
:101A230013FFB603120D1341B703120D1351B7037E
:101A3300120D13008002120D13588002120D130AA7
:101A43008102120D13AE8102120D13088202120DD0
:101A530013818202120D13958202120D13788402F0
:101A6300120D13F98402120D13308502120D13DCCB
:101A73008602120D13F38602120D133E8702120D16
:101A830013548702120D13618702120D13958702F7
:101A9300120D13AB8702120D13318802120D133C82
:101AA3008802120D13958802120D13EF8802120D8E
:101AB30013428902120D134C8A02120D13AA8C02CF
:101AC300120D134F8D02120D13918D02120D131A65
:101AD3008E02120D133C8E02120D133F8E02120D55
:101AE30013428E02120D13D58E02120D13FE8E02B7
:101AF300120D132A8F02120D13658F02120D136834
:101B03008F02120D137B8F02120D13A28F02120D7F
:101B130013F1B703120D13FDB703120D1337B803F7
:101B2300120D13D28F02120D13FD8F02120D13BE6D
:101B33009002120D13449102120D13AD9102120D76
:101B430013F59102120D137F9202120D13149302D7
:101B5300120D13A39302120D13E49302120D1348F3
:101B63009802120D13D69902120D130F9A02120D39
:101B730013A99A02120D136A9B02120D13FF9C0202
:101B8300120D13AD9D02120D135BEE01120D13170F
:101B9300EF01120D1394EF01120D13A3EF01120DB8
:101BA300132CF001120D13A4F001120D13B3F10164
:101BB300120D13DCF101120D1384F201120D13D770
:101BC300F201120D1343F301120D1381F401120DEF
:101BD3001322F501120D138AF501120D1320F701DB
:101BE300120D13D4F701120D1371F801120D13D254
:101BF300F801120D134CF901120D1351FA01120DD4
:101C030013E1FB01120D137BFC01120D13ECFC011C
:101C1300120D13C6FD01120D13CA9703120D131AE9
:101C23009803120D13769803120D13C19803120D26
:101C3300131C9903120D13C49903120D132D9A0348
:101C4300120D133A9A03120D13139F03120D13442B
:101C53009F03120D13FE9F03120D1364A003120DB5
:101C630013D5A003120D1321A403120D1331FF0189
:101C7300120D1342FF01120D13E2FF01120D13F4B3
:101C83007F00120D133CBA03120D135BB703120D41
:101C9300136BB703120D1386B703120D13E7B703C4
:101CA300120D1388B203120D130DB303120D137328
:101CB300B303120D136EA903120D1390A903120D92
:101CC30013F6A903120D1316AA03120D135CAA032C
:101CD300120D13B7AA03120D1342B003120D1357BB
:101CE300B003120D13CBB003120D13E5B003120DA5
:101CF30013FCB003120D130FB103120D1329B1031B
:101D0300120D1340B103120D1349FC02120D1357A8
:101D1300FC02120D13D1FC02120D13B5FD02120DBC
:101D2300136EFF02120D1304BA03120D13ADA503B4
:101D3300120D134AA603120D13F3A603120D130B70
:101D4300A703120D138CA703120D139FA703120DE4
:101D5300131BE502120D1370E502120D136CE7025B
:101D6300120D139EE702120D13C0E702120D13D9D1
:101D7300E702120D13F2E702120D13FCE802120D33
:101D83001397E902120D135AAC03120D137EAC0321
:101D9300120D1397AC03120D13D6AC03120D1309D6
:101DA300AD03120D1339AD03120D13A1AD03120DC3
:101DB30013A4AD03120D13AEAD03120D13BBAD038C
:101DC300120D13239503120D134B9503120D138C50
:101DD3009503120D139E9503120D13B99503120D5E
:101DE30013219603120D132D9603120D138C9603D4
:101DF300120D13B09603120D13719703120D137E78
:101E03009703120D138F9703120D138DB903120D40
:101E130013AAB903120D131AEA02120D137AEB0275
:101E2300120D1380EB02120D1397EB02120D13B870
:101E3300EB02120D13CEEB02120D13E2EB02120DA5
:101E43001361EC02120D13C6EC02120D135CED02CA
:101E5300120D1335EE02120D1345EE02120D13543B
:101E6300EE02120D1389B503120D13ADB503120D56
:101E730013D5B503120D13FDB503120D13499A03C0
:101E8300120D13709A03120D13919A03120D13037B
:101E93009B03120D13B59C03120D13CE9C03120D5D
:101EA30013E59C03120D13EE9C03120D130C9D03FB
:101EB300120D13169D03120D13209D03120D1333E0
:101EC3009D03120D13889D03120D13C19D03120D63
:101ED30013EF9D03120D13409E03120D138C9E03EB
:101EE300120D13A79E03120D13B19E03120D13C2FD
:101EF3009E03120D13089F03120D13A37F00120DEF
:101F03001315CC02120D1341CC02120D135FCC0238
:101F1300120D1372CC02120D138DCC02120D13ECA1
:101F2300CC02120D131ACD02120D1329D102120D78
:101F3300136ED202120D13A0D202120D130CD30290
:101F4300120D1355D402120D137DD402120D1392E8
:101F5300D402120D13A2D402120D13E2D402120DF5
:101F6300132ED502120D133ED502120D130AAF0321
:101F7300120D131AAF03120D1338AF03120D1353BF
:101F8300AF03120D137AAF03120D139BAF03120DA0
:101F930013B5AF03120D13EDAF03120D1310B003FE
:101FA300120D1308B903120D137B8403120D138250
:101FB3008403120D139F8503120D13CF8503120D96
:101FC30013F58503120D13288603120D133A8603A6
:101FD300120D13768603120D13DC8603120D1318EC
:101FE3008703120D135F8703120D138C8703120DE2
:101FF30013AD8703120D138CB303120D139EB3039A
:10200300120D1389B403120D138CB403120D13753F
:10201300B103120D13E7B103120D1325B203120D11
:102023001366B203120D136CD502120D13D1D50230
:10203300120D135AD602120D13ACD602120D1396BB
:10204300D702120D1314D802120D13DCD902120D8C
:1020530013B2DC02120D13D8DC02120D1351DD0290
:10206300120D1378DD02120D13A9DD02120D13CC2C
:10207300DD02120D13F8DD02120D13079203120D88
:1020830013239203120D13729203120D138E9203F4
:10209300120D13BF9203120D13CF9203120D13B738
:1020A3009303120D13C19303120D13CE9303120D59
:1020B30013E19403120D13F59403120D13FE94030D
:1020C300120D1322F302120D1349F702120D134ED0
:1020D300F702120D13D3FF02120D1322B603120DD2
:1020E300134CB603120D134CB903120D13C88E0310
:1020F300120D13008003120D1329AA01120D131CD4
:10210300AA01120D132AA701120D137CA401120DAB
:102113001350A301120D13A4A201120D13F5A00174
:10212300120D13B09E01120D13379E01120D137F72
:102133006000120D13F55F00120D13DE9D01120DE9
:1021430013729D01120D13945F00120D13425F0071
:10215300120D13499D01120D133C9B01120D13081F
:102163009B01120D13D59A01120D13B99A01120D89
:1021730013DF9901120D13979901120D13CC9701D7
:10218300120D134C9701120D13499701120D13549D
:102193009601120D13229601120D135F9501120D74
:1021A300138A9301120D131B9301120D13ED920168
:1021B300120D13EA9201120D13305F00120D131862
:1021C300B101120D13FAB001120D13C2AF01120DBA
:1021D300131FAF01120D13D79201120D136F92014A
:1021E300120D135E9201120D133F9101120D13CCC8
:1021F300AD01120D13099101120D13CC9001120DB3
:10220300136D9001120D133C9001120D13F78C0105
:10221300120D137DAB01120D13C0E302120D13E86F
:102223008B01120D13778B01120D133C8B01120DD1
:1022330013078B01120D13FB8A01120D135B8A0125
:10224300120D13A28901120D13758701120D1301CB
:102253008501120D13BF8401120D138A8301120D20
:10226300133F8301120D13718201120D13C88101F3
:10227300120D13648101120D139E8101120D130EB1
:10228300AB01120D1320DE0200000080FB8700016A
:10229300000A0C24000200E50B25000200E70B26D0
:1022A300000200E90B27000200EB0B28000100ED00
:1022B3000B29000100EE0B84000400EF0B860001E4
:1022C30000F30B2A000100F40B2B000100F50B2C8B
:1022D300000100F80B2D000800B6052E000100F9DF
:1022E3000B2F000100FA0B30000100FB0B31000142
:1022F30000FC0B32000100BE0533000100BF0534B2
:10230300000100FD0B36000100C00538000100FE8E
:102313000B39000100F70B83000200080C63000176
:1023230000CA0564000100B30565000100F60B6DEA
:10233300000100070C6E000200B40543000100FF1A
:102343000B44000200000C45000100020C46000291
:1023530000030C47000800C20548000100050C4BB0
:10236300000100060C040001000B0CA10001000E8B
:102373000C370001000D0C880001000C0C3C00011F
:1023830000C1050000000000000001363601010015
:102393000102010001030100010401060605020018
:1023A30000070100340801000F090401010D0100B9
:1023B300FF0E08000017020000190100FF1A0100B8
:1023C300011B0100FE1C0100081D0200001F01008B
:1023D3000120010001210200002301000F2402005B
:1023E300002601000127010008280200FF2A01003E
:1023F300072B0102402C0100002D0100012E0100DA
:10240300012F0100FF30010B1C310800003A0100CD
:10241300083B01000F2F0100000020202020202076
:102423002020202828282828202020202020202081
:102433002020202020202020202088101010101081
:1024430010101010101010101010040404040404D1
:1024530004040404101010101010104141414141B4
:102463004101010101010101010101010101010119
:1024730001010101011010101010104242424242AA
:1024830042020202020202020202020202020202E9
:102493000202020202101010102001017101010159
:1024A300010111010101310101010101800110014B
:1024B30061013B0014006301730172016201430176
:1024C3000001130106013D01350004011201000161
:1024D30000010001000104010401330133013C0147
:1024E300440132013600000100016501000135009D
:1024F30081010001050182018301000101037103D0
:102503000103010301030103010322030203010386
:102513001003000300030003000300030003000390
:10252300420300032403060300030003040312030E
:1025330025032303250323030403040300030003E8
:102543000003440300030003230300036503210086
:1025530035038103000305030003000300030302A3
:1025630071023001600211027002010202020202D2
:102573008002100261023A00410063027302720298
:102583006202430200021302380000020002040246
:1025930012020002000200020002040204023700D9
:1025A30037003C02440200023900000200026502C7
:1025B3000002350281020002050282028302000248
:1025C300030071003001600011007000310220032C
:1025D30050048000100061000000140063007300C9
:1025E30072006200430000001300060000000000B8
:1025F30004001200000000000000000004000400BA
:10260300370037003C0244000000000000000000D7
:102613006500000035008100000005000000830014
:10262300000036000100060000000F00000000005B
:10263300000000000000000003FFFF00000403FF90
:10264300FF0000FFFF0FF4010005C4040320000195
:1026530000000B000000000000000003010F010058
:10266300C51B02003B1B0300411B0400471B050065
:102673004D1B0600591B1100711B1400771B15001D
:102683006B1BFFFF0000151445141B1421143F148A
:1026930033142D144B1451145714631427140F14AB
:1026A300091403EAF5E5D5D5C5B5A59595858575D1
:1026B30075656555554545353525251515050AE1D6
:1026C3001102AB1105BD1107B1110C8D110D9F1135
:1026D300FF000000160F00000B150B020002220F73
:1026E30032000006FF1411151715DF131D15D9133A
:1026F300E5135F157D158315651571156B15003889
:102703003C3E363B3B352B432C0C0E020B040B0A91
:102713000708000F00034948424D1817250502001A
:10272300011916181616152303003030171819212E
:10273300301B1D1F30303016181920231A1C1E3071
:1027430053152315291535152F1539145D147715D0
:1027530069146F1402040201010101090200BE049D
:102763000A28000E000400E80315000C0A03080FF2
:10277300FF1E1E0C0405090874F712078BE990036A
:10278300B0F0900365E4F0121FF79003B5E4F0A3F3
:10279300F09003B1F0A3F0121319121FFD9003344C
:1027A300E4F0A3F090277293FA79021220B1025455
:1027B3001174F212078BEAFEEBFF548060699003F9
:1027C300B0E0F91218B38A088B09EA4509604F7C17
:1027D3000080010CEC75F003A4F8A9F074C128F58E
:1027E30082742639F583E493F4602CE493F8850826
:1027F300828B83E06870DCAA08EC75F003A4F8749C
:10280300C228F582742639F583E493C0E0740193FA
:10281300F583D0821209C9AA08AB091218A7EEFAE8
:10282300EF6480FB022981EF5420601D12123B8A62
:10283300088B09EA4509600A12119FAA08AB09121D
:1028430018A7EEFAEF642080DAEEA2E0501A9003A4
:102853006AE0640F700B7900121169E960031229B1
:1028630084EE6401FAEF80BB5420700302294F7594
:102873000C00123E568B09EA450970107C027D005C
:102883007A207B009003B0E0F91219FD7C007904F3
:102893007A007B001212178A088B09801885088238
:1028A300850983A3A3A3A3A3A3A3A3A37401F0856F
:1028B3000A08850B09E5084509606D7C007904AABF
:1028C30008AB091212178A0A8B0B750C01E5082451
:1028D30004F8E509123BFA24FFF0A3E034FF125E8B
:1028E300ED70CC850882850983A3A3A3A3A3A3A327
:1028F300A3A3A3E0640170A5850882850983A3A32C
:10290300A3A3A3A3E054047094850882850983A339
:10291300A3A3A3A3A3A3A3A37406F07AB7850882F2
:10292300850983122AB080871211E77C0079017A26
:10293300007B001212178B09EA45097009E50C7038
:10294300057A20124DB0EE6420022867EF5402602E
:102953000B121313EEFAEF6402022826EF540460FD
:1029630019124F47124E6779019003631251CB122C
:1029730010AFEEFAEF64040228267A007B00022BE4
:10298300B7900BE512324E12118122C082C08374BC
:10299300EA120DD9851882851983AA82AB83794BF4
:1029A3001220877408120FF47402F07409120FF4E2
:1029B300AA82AB8379501220877413120FF4E412A6
:1029C300539A1220A5741602437474F712078B747A
:1029D300E1120DD9EAFEEBFFEE4F603385188285D5
:1029E3001983AC82AD8312125F7406120FF4E06098
:1029F3001E7417120FF4E0FD7401120FF4E0FCEEE5
:102A0300FAEFFB79001221C5E9600479A480027909
:102A13000002540C74F612078BEAFEEBFF8E828FD2
:102A230083A3A3A3A3A3A3E05440601B125889125A
:102A33002B7E60067AFF7BFF801A8E828F83124083
:102A430000FAA3E0FB800312128374FE6A7003741E
:102A5300FF6B6041125889124DF41212D7E98E822E
:102A63008F836006122AA9E48005122AA97401F053
:102A73007C6F7D118E828F831251CB1220ABE9F5CF
:102A8300087015EE4F60097901EEFAEFFB1211F3AE
:102A9300A908024E257508CDAA088E828F83122AB3
:102AA300B0E960DF80EAE0240D1244CF22E0240C79
:102AB3001244CFE0F912117B2274F612078BE9FE60
:102AC300EAFF7A0F7B001218A1EA4B60198A828B06
:102AD30083740CF0EEA3A3F0EF8A828B83A3F0122E
:102AE3004E507900802FEEF912121D8A088B09A827
:102AF30008A909E849601C88828983A3A3A3A3A327
:102B0300A3A3A3A37406125B14E0F9121133EEF925
:102B13001211F97910024E25C082C08390036AE036
:102B2300640F7014EA4B6010900365E0640860055D
:102B3300E064047003122B3E02439EEAFCEBFD7A31
:102B4300017B009003B0E0F91219F722C082C08321
:102B53007900EA241DF582EB123FFD24FD600B147E
:102B6300600824FD600424FD70010902439E8E82E7
:102B73008F83A3A3A3A3A3A3A3A3A3122B82221292
:102B83004045FB1212D7E9228E828F83A3A3A3A30E
:102B9300A3A3A3A3A3122B826402228E828F83A3F7
:102BA300A3A3A3A3A3A3A3A3124395900356E068EF
:102BB30022120D5E7F06020AAF74F412078B74FDB6
:102BC300120DD98A088B098A828B83A3A3E0F91299
:102BD300121D8A0A8B0BAE0AAF0BEE4F7003022C49
:102BE300C3850882850983A3E064F1603085088288
:102BF300850983A3E064CD6024850882850983A3C6
:102C0300E0641A6018850882850983A3E064E9609B
:102C13000C850882850983A3E064E17008790012BA
:102C230011F3E9706C850882850983A3E0C0E07421
:102C330002120FF4D0E0124379EEF0A3EF1236A4A0
:102C4300851882851983AA82AB8370051210978039
:102C5300031212BF7402120FF4E064E970338E8220
:102C63008F83122CCF750A01780A120D34750AE985
:102C7300780A120D34E508240CF582E50912319621
:102C8300123681FCA3E0FD8A828B8312369B120DE0
:102C93005E8E828F83A3A3A3A3A3A3A3A3A3E064B2
:102CA3000270108E828F83A3A3A3A3A3A3A3A3A3C2
:102CB3007406F0850882850983A3A3E0F91211F94C
:102CC3001211E7900BE9122987023253E0F8A3E0CF
:102CD300F9E8FAE9FB2274F412078BEAFEEBFF75BD
:102CE30008008E828F83A3A3A3A3A3E06042750889
:102CF300088E828F83A3A3A3A3A3A3A3A31242A893
:102D03008B0BEA450B601075082C8E828F83A3A36F
:102D1300A3A3A3E0D2E0F08E828F83A3A3A3A3A3F4
:102D2300E0540364016003022DC2430811022DC263
:102D3300EE24181232606033EE241A123260700FE0
:102D4300122B9E7003A3E06970757508228070EEE4
:102D5300241BF582EF122DC7241AF582EF1236AC2D
:102D6300EE24191258BD1211218054122B8B7003BB
:102D7300750801122B9E7003A3E0697006E508D263
:102D8300E1F508E50860158E828F83A3A3E0700642
:102D9300E508D2E58004E508D2E6F508122B716454
:102DA300017006E508D2E0F5088E828F83A3A3E0C5
:102DB300600D122DD564016006E508C2E0F508A98F
:102DC30008023258123FEB122DCE22E0FCA3E0FDA5
:102DD300EE22123FE512401DF91212C5E922C0820C
:102DE300C08379018A828B83A3A3E0C39402400149
:102DF300198A828B83A3A3A3A3E0C394024002791D
:102E0300008A828B83A3A3A3A3A3A3A3A3A3E064A6
:102E1300F87003A3E0F460458A828B83A3A3A3A382
:102E2300A3A3A3A3A3E064F97003A3E0F4602E8A31
:102E3300828B83A3A3A3A3A3A3A3A3A3E064FA7096
:102E430003A3E0F460178A828B83A3A3A3A3A3A3A2
:102E5300A3A3A3E064FB7003A3E0F4700279008AE8
:102E6300828B83A3A3A3E0F8900353E06860027905
:102E73000002439E74F012078B74DE120DD9EAFE32
:102E8300EBFF8E828F83A3A3A3A3E0600E900BE7D7
:102E9300124E1C6006900BE71229877403120FF47D
:102EA300AC82AD838E828F83A3A3A3124E9E125650
:102EB300D7E9600F7403120FF4AA82AB831211993E
:102EC300E97008790112200902318BEE241B123FAD
:102ED300F07410120FF4124E677409120FF4E060CD
:102EE30021741A120FF4E0FD7404120FF4E0FC8E47
:102EF300828F831251C979011221C5E960047902D5
:102F030080C37403120FF4AA82AB83121193E9F501
:102F13000A7409120FF4E0702A90034DE0602474E0
:102F230022550A6422601C7442550A644270CF74AD
:102F330020120FF41231A9600A7420120FF4123117
:102F4300A270BBE9A2E650417403120FF4AA82AB4C
:102F530083121187E97003022EC67420120FF41234
:102F630040006403700F7420120FF4A3124E0EA3DB
:102F7300E0640D60147403120FF4AA82AB8312127F
:102F8300E9E96401700302318BEE242C12319312B0
:102F930034B77003A3E069701C7508007808120D3C
:102FA300347808120D34EE242E1258BD1231AF12AC
:102FB300369B120D5E7409120FF4E0700302306841
:102FC3001231AF1251CB12133D8A088B09EA45091E
:102FD30070030231057404120FF4E0F88E828F83BC
:102FE300A3A3E028F8A3E03400F9E8240D12319AF2
:102FF3008A828B83A3A3A3E068601CE88A828B8305
:10300300A3A3A3F0908130120FC985088285098399
:10301300A3A3A3A3120FBD7904E9120FF41256B4AC
:103023002AF8A3E034008882F583A3AA82AB831233
:1030330018958A0C8B0D8C0E8D0F8508828509835C
:10304300A3A3A3A3780C120C8F400302318B9081AE
:103053002C780C120E7F850882850983A3A3A3A372
:10306300780C120F65900365E064046008E064095E
:10307300600302318BE50AA2E54003023143EE24EB
:103083002E123260851882851983F0EE242F1232B6
:1030930060C0E07401120FF4D0E0F0EE243012327D
:1030A30060C0E07402120FF4D0E0F07414120FF455
:1030B300E064017027740E120FF4123FF6EE24122F
:1030C300123260687003A3E0697011740C120FF47C
:1030D300122B9870077414120FF4E4F0EE242412E8
:1030E3003193120B787404120FF4AC82AD8374071E
:1030F300120FF4AA82AB8312109D7404120D5E02A8
:10310300318B9003AAE064016003023068742012DB
:103113000FF41231A97009E50AA2E65003023068E0
:103123007410120FF4E0F47003A3E0F4605AEEFCA1
:10313300EFFD7403120FF4AA82AB831211A580482A
:10314300A2E650447420120FF41251DA701A741A62
:10315300120FF4E0640270307403120FF4AA82AB0E
:103163008379001212B380207420120FF41231A25B
:103173007016741A120FF4E06404700C7403120FC7
:10318300F4AA82AB831212AD7422025586EE240B8D
:10319300F582EF123FEB22F582E9124E80F82212FC
:1031A300589BE064072212401D640622EE242A1273
:1031B3003FE8122DCE2412123FE82274F412078B3B
:1031C300EAFEEBFF8C088D099005BEE0600F122B21
:1031D3009E7003A3E069700512110F804F790012EE
:1031E30051BE12113F8A828B83E58245836035A3EA
:1031F300A3A3A3A3A3E05418602AE508241BF58224
:10320300E509123196120B7C123894123196120B87
:103213007CEE24181258BD1232311211517404126B
:103223000D5E8008790012323112111580278E82CB
:103233008F83A3A3A3A3A3A3A3A3A3122DCE240B82
:10324300F582EF12324A223400F583124045FB2205
:103253007403120D5E7F04020AAFEE2417F582EFAA
:10326300124E802274F712078B74F7120DD9EAFEFF
:10327300EBFF900365E06403600DE064016008E028
:10328300640960030233318E828F83A3E0707E7CF6
:10329300007D007A027B00122003EE2402FAEF1273
:1032A3003C01123FF6900356124E67795312208D5C
:1032B3007900123336E0640960031236C985188237
:1032C3008519837401124E3D9003657404F07401F3
:1032D300120FF4AA82AB83794A1220877401120F6A
:1032E300F4AC82AD837A5B7B0312202190035612E8
:1032F30056CD7A031236D3900350E0A2E35004D2A2
:10330300F08002C2F0124E2A122984801E8E828F10
:1033130083A3AE82AF83FC7D007A037B101220036C
:103323008E828F83E0F9123336E4F01211CF7409E1
:1033330002540E90036312324E1210AF90036522B3
:10334300C082C083900334124E1C701F900365E04B
:1033530014600924FC600A14600C800F90033C8005
:1033630032900338802D90033A8028E84960089012
:10337300033512367B700C8A828B83A3E0F912101B
:10338300A3801B9003351239307005121307800E8A
:103393009003D2124E1C6006124E0E1209C902434C
:1033A3009E74F412078B74FB120DD98A088B097A69
:1033B3000F7B001218A18A0A8B0BAE0AAF0BEE4FDC
:1033C30070030234AB8E828F83125398795012208C
:1033D30087850882850983A3E06003023493900301
:1033E30063E0F47003A3E0F46034900363E064FEED
:1033F3007003A3E0F460278518828519831234B71C
:103403007003A3E0696017850882850983A374EAC2
:103413001236B17A637B03795012208D807285183E
:103423008285198312587C124E677A567B0379532F
:10343300122087900356124E98124E677A597B03D7
:10344300794B1220877A587B0379E1122087900306
:103453006AE0C3940F5021900358E0C0E074021255
:103463000FF4D0E0F07404120FF47401F004120F9F
:10347300F4AA82AB8312209F750A00780A120D34D6
:10348300780A120D34900C15E0F9123692120D5E83
:103493008508828509831234B0A3F0900365740311
:1034A300F0EEFAEFFB124E507405023255A3E08E94
:1034B300828F8322125880E068221244D62274F548
:1034C30012078B74D8120DD98A088B098A828B83D1
:1034D300A3A3A31240227415120FF4AC82AD838A06
:1034E300828B83A3A3A3A3A3A3A3A3123681FAA3CB
:1034F300E0FB1211D57415120FF4E0706B8508828E
:10350300850983A3A3A3A3A3A3A3A3E0C3940B400D
:10351300578E828F83A3A3A3A3A3A3A3A3E06402D1
:103523007046EE240B123260F4703D900365E06444
:1035330002603AE064066035900334124E1C600565
:1035430012367B604F900365E064086005E0640415
:1035530070167417120FF4E0F9741C120FF4AC8296
:10356300AD831251BE1211DB7428025D9A900334AD
:10357300124E1C701F7508007808120D347808125B
:103583000D34EE24101231931258D5123CE9123641
:103593009B120D5E8E828F8312513A123C13123F9F
:1035A300F67402120FF4124E67EE240D123260C04D
:1035B300E07404120FF4D0E01236A4F508A3E0F58A
:1035C30009740F7808120F837405120FF4E508F0DD
:1035D3007419120FF4E0C0E07406120FF4D0E0F097
:1035E300741B120FF4E0C0E07407120FF4D0E0F084
:1035F3007416120FF4E0C0E07409120FF4D0E0F077
:103603007417120FF4E0C0E07408120FF4D0E0F066
:10361300EE2410123260C0E0740A120FF4D0E0F00E
:10362300741A120FF4E0C0E0740B120FF4D0E0F040
:103633007427120FF4E0C0E0740C120FF4D0E0F022
:10364300741C120FF4A982AA8389088A09750A00D7
:103653007808120D2C7C087D007410120FF4AA82D6
:10366300AB831249CB120D5E851882851983AA821A
:10367300AB831210A902356B123936640122E0F9CB
:103683008A828B83A3A3A3A3A3A3A3A3A3E02290D0
:1036930003631256D190035912324E1212957402DB
:1036A30022F0EE240B124E7D22124E80FA22F07A83
:1036B300567B0379531236BC2212208D7A597B0331
:1036C300794B12208D2290036312324E121337224C
:1036D3007B001220039003591256D17A047B001207
:1036E300200322F01258E02274F212078B74F812AE
:1036F3000DD9EAFEEBFF8C0A8D0B890C85188285A8
:103703001983AC82AD837583807582D47408120CDF
:103713004DF50DEEFCEFFD851882851983AA82AB6A
:103723008312509B7003750D019003B1803BEEFC37
:10373300EFFDE508240BFAE509340012509A601EE8
:10374300850882850983A3A3E0650C70118508822F
:10375300850983E0650A7004A3E0650B6038E5081A
:103763002414F582E509123196123C0BE50845094C
:103773006024E50DA2E040B6850882850983E065F3
:103783000A7004A3E0650B70D5850882850983A3BD
:10379300A3E0650C70C8AA08AB097408022BB4C077
:1037A30082C0839003B102439B74F712078B90038B
:1037B300B11240458012EA2414F582EB12319612BD
:1037C3004022121949EEFAEFFBEA4B70E99003B17C
:1037D300E4F0A3F00254117F07020AAF74F1120759
:1037E3008BEAFEEBFF890A8C088D098E828F83E0BA
:1037F3008C828D831242B2AE82AF83E0124A8B1267
:1038030049FCC4124A8B12389DE054038C828D8389
:103813001249FAA2E2E4338C828D831249F913131D
:1038230013541F124A8B1249F8A2E7E4338C828D9A
:1038330083A3A3A3A312389D8E0C8F0D750E00785E
:103843000C120D2C7C087D00E5082407125640124B
:103853000D5E1256AB8E0C8F0D780C120D2C7C0363
:103863007D00E508240F125640120D5EE50AC3944D
:103873000F40148E828F83A3A3A3E0C0E012389479
:10388300123196D0E08006123894125B08F00237AA
:10389300DAE5082412F582E50922A3A31242B60E43
:1038A300AF832274F412078B74F9120DD9EAFEEB7D
:1038B300FF8908900334124E1C600E1239307009D0
:1038C300EEFAEFFB121301805F900363E06E700367
:1038D300A3E06F70537401650860097A777B031264
:1038E300509B70447A007B02123E5A8B0BEA450BC5
:1038F3007036900366120FC9851882851983120FDB
:10390300BD90036CE0C0E07404120FF4D0E0F074D7
:1039130005120FF47401F07406120FF41253981287
:103923001073E9609B12107974070232551239360D
:1039330064022212589CA3A3A3A3A3A3E02274F5B9
:1039430012078B8A088B098A828B83A3AE82AF838B
:10395300E0F91210C78E828F83E064EB600C850858
:1039630082850983A3E064E1700985088285098360
:10397300A3E4F0122984750A01780A120D3485082C
:1039830082850983A3E0F5087808120D34790012C3
:103993003692120D5E1211E7025D9DEAF0A3EBF081
:1039A30002439E74F612078B9003B4E0701B7C00F5
:1039B30079017A007B00121217EA4B600C8A828B22
:1039C30083124E1C6003121175024E25C082C08300
:1039D300123E42401079FF121211E9F8902776E463
:1039E30093C398500479018002790002439E74F0D6
:1039F30012078B8A088B09890B750C008A828B83CB
:103A0300A3A3A3A3A3A3A3A3E0F912121D8A0E8B5E
:103A13000FAE0EAF0F750A01EE4F6003023ACF856A
:103A23000882850983A3A3A3A3A3A31256CD850864
:103A330082850983A3A3A3A3A3A3A31247CB1251F4
:103A4300CB1212058A0C8B0DAE0CAF0DEE4F70032B
:103A5300023BF28E828F83A3A3A3A3E4F0A3F0E53A
:103A630008240B123BFEE0C0E0123190D0E0F012CC
:103A730012DDEE240CF582EF124DF0E508240EF56D
:103A830082E509123FF3EE240EF582EF124E6475C0
:103A93000C01EE2406F8EF123BFA547FF0A3E05436
:103AA300FC125932E054046003023B55900BED12B3
:103AB30047BC74077808120EF18E828F83A3A3A3E9
:103AC300A3A3A3E04508F0A3E04509F08E828F830A
:103AD300A3A3A3A3123C0974077808120F83E50874
:103AE3005407F508E50B607A8E828F83A3A3A3A303
:103AF300A3A3A3A3A374021249FD240D1244CBE094
:103B0300A2E2500B900351124E98A3A3124E67E505
:103B1300087003023BC7EE2406F8EF3400F9E8FA15
:103B2300E9FB8A828B83E0547FFCA3E054FCFDE530
:103B33000824FFF508E434FFF50974077808120E2A
:103B4300F1EC4508F8ED4509F98A828B83124E673B
:103B530080728E828F83A3A3A3A3A3A3E0448002D6
:103B63003ACEE5087005750A0080598E828F83A3CB
:103B7300A3A3A3A3A3E05420601212189BEA547FCB
:103B8300245F8E828F83A3A3A3A380238E828F833C
:103B9300A3A3A3A3A3A3E05410600A12189BEA549F
:103BA3000F240A80DD8E828F83A3A3A3A37401F065
:103BB300A3E4123C137404123E518B09EA450970C5
:103BC30003124DE3E50CA2E050288E828F83A3A35A
:103BD300A3A31253FEF9EEFAEFFB12120BE96012E4
:103BE300124E126003123FDBEEFAEFFB1219497516
:103BF3000A00A90A025589124F5B22FAE50934002B
:103C0300FB8A828B8322A3A3E0F508A3E0F50922B4
:103C1300123C172212565CA3A3A3A3A32274F4128B
:103C2300078B74F7120DD97E0012121DEA4B700335
:103C3300023CE28A828B83A3A3A3A3A3A3A3A3A38C
:103C4300E064066003023CE28A828B83A3A3A3A3FE
:103C5300A3A3A3E0FF8A828B831244DEE0C0E07457
:103C630008120FF4D0E01240161250A1124E671240
:103C7300122FEF540860668518828519831256CD7A
:103C83007A007B001211FF8B0BEA450B704F9003F8
:103C9300631241061220B77C007D007A007B00800E
:103CA300288E828F83124000F47003A3E0F4602D0A
:103CB300900363123CE91251CB121D57E9641A6059
:103CC3001C7C007D00EEFAEFFB1211FF8A0A8B0BBE
:103CD300AE0AAF0BEE4F70C979001220BD7E01EE24
:103CE300F97409023255123CED22E0FCA3E0FD8E8B
:103CF300828F8322C082C083EA4B70059003B58014
:103D0300068A828B83A3A3123F0660258A828B8354
:103D1300A3A3A3A3A3A3A3E0540860E5EC4D6015FC
:103D23008A828B831240006C7003A3E06D70D28093
:103D3300047A007B0002439E74F212078BEAFEEBC7
:103D4300FF890A8C088D097A107B00121943EA4B0C
:103D5300603F8A828B83A3A3A3A3A3A3A3A3A3E408
:103D6300124004A3E50A1258A2A3123D9E8A828B35
:103D730083A3A3A3A3E4F0A3124010A3F012573626
:103D8300EA240CF582EB1242A2123D97A3A3F0A3FF
:103D9300F0022BB7A3F08A828B8322A3A3E508F05A
:103DA300A3E509F02274F412078BEAFEEBFF8908FE
:103DB3008C0A8D0BEE4F6055740165087014790100
:103DC300121211E9F890277AE493C398500F7911EE
:103DD300806A74046508702F123E4240F18E828F10
:103DE30083A3A3A3A3A3A3A3A3A3E5081242B2A3FC
:103DF300125E278E828F83A3A3E4F0A3F09003B512
:103E0300124E1C6021800D7402650860D079C18058
:103E13002BE0F8A3124E91A3A3123F068882898355
:103E2300A3A370ED80039003B5EEF0A3EF123E5110
:103E33008B0BEA450B7003124DE37900023258797C
:103E430004121211E9F8902778E493C39822F01230
:103E53003E56227A207B009003B0E0F9121A092221
:103E6300C082C083E9F879009003B5801D8A828BF4
:103E730083A3A3A3A3A3A3A3A3A3E068600574FFE1
:103E8300687001098A828B83A3A3123F0670DE0246
:103E9300439E74F712078BEA4B70059003B58006B7
:103EA3008A828B83A3A3123F0660248A828B83A317
:103EB300A3A3A3A3A3A3A3A3E06970E4EC60148A60
:103EC300828B83E0240D1256BEA2E240D380047A93
:103ED300007B00025411C082C0839003B580068A20
:103EE300828B83A3A3123F0660128A828B83A3A3D0
:103EF300A3A3A3A3A3A3E06970E580047A007B00D6
:103F030002439E12324EEA4B2274F212078B8A0A44
:103F13008B0B8C0C8D0D750800750900EA450B6041
:103F23002E9003B580068E828F83A3A3123F596020
:103F33001EAC0CAD0DEEFAEFFB850A82850B8312E6
:103F430009C9E9640170DFEEF8EFF988088909AA65
:103F530008AB09022BB7E0FEA3E0FFEE4F2274F794
:103F630012078B9003B5123FF67C007D00800DE8AD
:103F7300FCE9FD88828983A3A3123FF6E8496030F8
:103F8300EA687002EB6970E79003B51251CBE86AF7
:103F93007002E96B88828983A3A37008123FF690AD
:103FA30003B58009123FF68C828D83A3A3124E675B
:103FB30002541174F712078BEAFEEBFFEE4F601504
:103FC300121229124028124E126003123FDBEEFA3E
:103FD300EFFB121949025411EE240C123FE8124070
:103FE3003D22EE241DF582EF3400F58322F582EFA6
:103FF300123FEB12439522F582EF123FEB12401D65
:1040030022124008221258AAA3A3A3A322124008F3
:10401300A3A322123D9812401D22125895E022E0DC
:10402300FEA3E0FF228E828F83E0241C1244CF1272
:10403300403D8E828F8312403D22124045FB121970
:104043004922E0FAA3E022C082C083EAFCEBFDEC44
:104053004D700479058044EC24FBF582ED34FF12A6
:104063004E1A70071240A1E0F460051218A780E30E
:104073009003B0E0C0E01240A1D0E0F090276FE4DD
:1040830093F97AB77B031218D1E96401700B7A00B4
:104093007B20124DE779008002790402439EEC24D1
:1040A300FFF582ED34FFF5832274F412078BA2AF80
:1040B300E433F508C2AF9003B7123F596038EE24DA
:1040C300FBF582EF34FF124E1A7A007B209003B087
:1040D3006005124DEA8005E0F91218DDE4F50AF5F2
:1040E3000B780A120D30EEFCEFFD7AB77B03121842
:1040F300CB7402120D5EE508A2E092AFEEFAEFFB7D
:104103000232581256D1851882851983AA82AB834D
:104113002274F212078B74FC120DD9EAFEEBFF75C1
:104123000AFE750BFF1211EDE96005791102429742
:10413300EE24151232606037900C06E0C43354E06D
:10414300F8E0333354FC48C0E0EE2415123193D029
:10415300E01242B21242A88B09EA45096011750ABE
:10416300FFEE240F1232604404124E75D2E0F08E3B
:10417300828F83122B7C6006EE241212429FEE2460
:10418300131232607010902775E493C0E0EE24138D
:10419300123193D0E0F08E828F83E0A2E750045473
:1041A30003801CEE24141232607015900342E0C0A9
:1041B300E0EE2414123193D0E0F0900342E004F0D7
:1041C300EE2411123260640170169005B3E0600DA5
:1041D30090034DE0700A8E828F83E0700312429C3D
:1041E3008E828F83E064017013EE240B123FFA6416
:1041F300027009EE240F1232604440F08518828564
:104203001983AC82AD83EEFAEFFB1212538A088B4B
:104213000974FE650A700374FFF470098E828F833C
:10422300A3A312564CEA450960668E828F83E0C0D1
:10423300E07401120FF4D0E0F07402120FF412577D
:104243003A7401120FF485820C85830D780C120DDC
:1042530030EE240F123193120B7CEE240E123260D7
:10426300F50C780C120D34900356120B7C74071264
:104273000FF4E0F9AC0AAD0B12124D7407120D5E88
:10428300E9FE74106E700BAA08AB0912194980027B
:104293007E10EEF97404022BB4EE2411F582EF12B2
:1042A3003FEBE4F022A312324E79FF121877221269
:1042B30042B622F08E828F83A322C082C08374DE33
:1042C300120DD98A828B83A3A3A3A3123FF6740E84
:1042D300120FF4E8F0A3E912438C740C120FF412DA
:1042E3004385240DF582EB123263C0E0741A120F7A
:1042F300F4D0E0F0125599EB123FF37420120FF44F
:104303001243852415F582EB123263C0E074081260
:104313000FF4D0E0F0EA241CF582EB123FF37412A1
:10432300120FF41243852411F582EB123263C0E0BD
:104333007409120FF4D0E012437974FFF074011280
:104343000FF474FFF07402120FF474FFF0908130D5
:10435300120B787404120FF4AC82AD837407120F3E
:10436300F4AA82AB8312109D7404120D5E7900745B
:1043730022120D5E802512437D22F0851882851955
:104383008322E8F0A3E9F0EA22123D98A3124394B2
:1043930022A3E0F8A3E0F9221251CBD083D082020A
:1043A3000D1074EC12078B74EE120DD98A128B1355
:1043B300ECFEEDFF89097426120FF412564C742893
:1043C300120FF4E0F5107429120FF41244C0742B89
:1043D300120FF4E0F50EA3E0F50F7508107A1E7BBB
:1043E300001219437402120FF4124DF47402120FE7
:1043F300F4124E1C70030244B9851882851983AAEE
:1044030082AB837950124CCF1251CB7402120FF44A
:104413001244DEA3124DF47410120FF4125E2974C9
:1044230002120FF4E0240B1244CB7402F0120FF4C7
:104433001244DE7402F0120FF412588D12573A74BC
:1044430002120FF41251E0E509F07402120FF4E0C6
:10445300240C1244CBE510F07402120FF41244C87A
:10446300E512F0A3E513F07408120FF4E50CF0A3C2
:10447300E50DF0740A120FF4E510F0850E82850F36
:1044830083C082C083740D120FF4AC82AD83D083DA
:10449300D0827403120C4DF97402120FF4AA82AB8A
:1044A300831211F3E9640170057508008008740232
:1044B300120FF4123FE1A9087412025663E0F50CDF
:1044C300A3E0F50D22E0241C1244CF22F8A3E0124E
:1044D30044D6223400F988828983221251D3A3A3BC
:1044E300A3A3A32274EE12078BEAFEEBFF8C088DC5
:1044F300098E828F83A37408124EB0E060088E8207
:104503008F83A37410F012325D60098E828F83A3B0
:10451300E02408F0EE241512326060088E828F8347
:10452300A3E004F08E828F83A3A3A3A3A3A3E060DD
:10453300198E828F83A3A3A3A3A3A3A3E0C33324CE
:1045430002F88E828F83A3E028F0EE2411123260EA
:104553006005750B0E8003750B008E828F83A3C0DD
:1045630082C083EE240D123260D083D082F8E0281B
:10457300250B8C828D83F0EE2411123260600512BC
:1045830049DB28F0850882850983E0C394754009D7
:104593007508007509000246C9E0FA7B001257E866
:1045A30070030246C9EEFAEFFB121259EA8508823C
:1045B300850983124DF5EE2402F8EF1234BD12473C
:1045C300C3124705F0EE24040808EF1234BD124C61
:1045D30005A3124705A3A3F0EE24131246EBF0EE56
:1045E30024141246EBA3F0750A08EE241612326067
:1045F3006010EE24181256CAE50824081258CB7529
:104603000A1012325D6016EE241A1256CA850A0C7D
:10461300E508250C1258CB7408250AF50A8E828FFB
:1046230083A3A3A3A3A3A3E06059EE2407F510EF8C
:104633003400F511851082F583E0C0E01246D212F2
:104643003196D0E01246F5E0C0E01246D212319620
:10465300D0E01246F5A31246DE120D2C851082859A
:104663001183E0C333FCE433FD850A0CE508250C14
:10467300125640120D5E851082851183E0C33325E7
:104683000AF50AEE2415123260600BC0E01246D21E
:10469300123196D0E0F01231901246DE120D2CEE5C
:1046A300240D123260FC7D00850B0A8E828F83A35A
:1046B300E0F8E50828F8E5093400F9E8250AFAE9FD
:1046C300125643120D5EAA08AB097F0A020AAF8590
:1046D3000A0CE508250CF582E50922E0F50CA3E0B8
:1046E300F50D750E00780C22123FE812470FA3A3B5
:1046F300A322F0050A8E828F83A3A3A3A3A3A3A35C
:10470300A322A3A3125936A312470F22124C09A3C3
:10471300A32274F612078B8A828B83E0FC900353E7
:104723001247BC74027808120EF1EC4508FCAD097F
:10473300EA24121247B674067808120EF1EC450803
:10474300FCED4509FDEA2415F582EB1232636004A2
:10475300780180027800E4C8F9ED49FDEA2411F5F7
:1047630082EB123263F508880974097808120EF196
:10477300ED4509FDEA24161247B6740B7808120EAC
:10478300F1ED4509FDEA24171247B6740C780812B7
:104793000EF1ED4509FD8A828B83A3A3A3A3A3A3F3
:1047A3001247BC740A7808120EF1ECFAED4509FBC6
:1047B300024E25F582EB123FEBE0F5087509002266
:1047C300E085088285098322A3E0F98508828509AB
:1047D300832274EE12078B8A0A8B0BECFEEDFF75B6
:1047E3000F01E9C39408500579000249C88E828FEE
:1047F30083E9F0124C2EE96003750F00124C128E00
:10480300828F83124C5CEE12559AEF124C51C0E02A
:10481300EE2411123193D0E0124C49C0E0EE241281
:10482300123193D0E01242B27408125654A3A3A3D8
:10483300E06015124BFAEE2413F582EF124E648EEC
:10484300828F83A3E02408F08E828F83A3A3A3A384
:10485300A3A3A3A3E060218E828F83A3858208850F
:104863008309124C3DEE2415F582EF124E64850840
:1048730082850983E02408F08E828F83A3A3A3A3F8
:10488300A3E0601A8E828F83A38582088583091231
:104893004C218E828F83A3A3A3A3A31249EDEE24FD
:1048A3001912429FEE241B12429FA3124EA8E070DE
:1048B3000302495CEE2419F8EF3400F98E828F83EA
:1048C300A3858208858309E0FAE50A2AF582E50BC8
:1048D300123263888289831249EDFAE50A2AF58246
:1048E300E50B123263C0E0EE241A123193D0E012CA
:1048F30049ED88828983E06059F890276EE493C379
:1049030098500575110C8008EE2419123260F511C8
:104913008E828F83A3E0F8E50A28F50CE50B124994
:10492300D1120D2CE511C333FCE433FD7A937B0ADA
:104933001249CB120D5EEE241B1231937493F0A334
:10494300740AF0E511C333F8850882850983E028EA
:104953008006EE2418125B05F08E828F83A3E0F8A5
:104963008E828F83E0C39850030247EBA3E0FA8A59
:1049730008E50A2508F8E50B3400F9EE241DF58255
:10498300EF124F701249FDC39AC0E0EE24171231A3
:1049930093D0E0124E6D602BEE2417F8EF3400F93C
:1049A300880889098882F583E024F2124F51240E86
:1049B300FAA3E03400FB88828983124DF41249DBA9
:1049C300C398F0A90F0246CD122285740322340046
:1049D300F50D750E00780C2290034EE0F91221BFFD
:1049E300E9F8850882850983E022F0850882850934
:1049F30083E004F022A3A3A3A3A3F08E828F83E01A
:104A03002274F412078B8A088B09EA124A92F0EA9D
:104A13001313543F124A8BA3A3A3F0EAC413131234
:104A23004A92A3A3F0EB124A84124A9C7409780AAF
:104A3300120F83124A82124A9B740A780A120F8356
:104A4300E50A5401C0E0EC2418F582ED123196D04A
:104A5300E0124AA1740B780A120F83124A82A3123E
:104A63004A9B740C780A120F83124A82A3A3A3A34E
:104A7300A3A3A3A3F0740D7808120F83022DC2E53C
:104A83000A54018C828D8322540F8C828D8322548D
:104A9300038C828D83A3A322A3A3A3A3A3A3F08A3E
:104AA3000A8B0B22C082C08379008A828B83A3A3E3
:104AB300A3A3A3A3E090034D600FE070228A828B2F
:104AC30083A3A3E07019098016E060138A828B83A5
:104AD3001251C2900356E06A7003A3E06B70E702C1
:104AE300439E74F012078B8A0A8B0B890C8C088DFA
:104AF30009124C2E124C12850882850983124C5CD4
:104B0300E50812559AE509124C51C0E0E508241155
:104B1300F582E509123196D0E0124C49C0E0123813
:104B230094123196D0E0124F787408124F916011AD
:104B3300124BFAE5082413124F6C124F78E0240845
:104B4300F0850882850983A3A3A3A3A3A3A3A3E05A
:104B53006017850882850983A3124C39E50824155B
:104B6300124F6C1249FD2408F0850882850983A33E
:104B7300A3A3A3A3E06019850882850983A3AE825A
:104B8300AF83124C218508828509831249F804F00A
:104B9300AA08AB0912126BE9F50D705685088285D8
:104BA3000983A3A3A3A3A3A3124C057014E0FA8A59
:104BB3000EE50A250EF8E50B124E59E50CC39A8053
:104BC30021124C39E8240EF8E9124E5990034EE0B5
:104BD300F91221BF8E828F83E0F8E50CC39824F28B
:104BE300C399C0E0E5082417F582E509123196D090
:104BF300E0F0A90D025589E50A2408F8E50B340015
:104C0300F922124C0922E0850882850983A32285B3
:104C13000A82850B83A3A3124C72E0F9EA22E0F81F
:104C2300E50A28F582E50B124E80228A828B8312D5
:104C3300558E12126522AE82AF83E0F8E50A28F89A
:104C4300E50B3400F922124C85A3A3A3E022123F03
:104C5300EBE8124C7EA3A3E022A3A3A3A3A3A3A3E5
:104C6300A3A3124C7E124C72A3A3E0F9EAF822E04C
:104C7300FA850A82850B83A3A3A322F0A3E9124C2E
:104C83008522F0850A82850B83A3A3A3A322C08276
:104C9300C0837AC57B0379E21220877AC57B03023E
:104CA300439EC082C08390035602439BC082C0834D
:104CB30074FE120DD9851882851983AA82AB837974
:104CC3004B124CCF1251CB740202437412208785CE
:104CD300188285198322C082C083794A12208702F1
:104CE300439E74F612078B9003CDE0FE04F0EEF9B9
:104CF30012121D8B09EA450970EDEE60EAF9024EC6
:104D03002574F012078BEAFEEBFF8C088D09890AE4
:104D13007410120FF4E0F50B7411120FF4E0F50C9C
:104D230012133DEA4B7013E50C7042A90AAC08ADAF
:104D330009EEFAEFFB121355806EE50A6021EA24AF
:104D430002F582EB123263850A082508F8E4340081
:104D530013E813F070098A828B83A3A37401F0E52F
:104D63000C6045E50B70068A828B83E4F074016561
:104D73000C7035E50B9003D47004E4F0802AE00452
:104D8300F0900BEEE0F89003D4E0C398401AE4F0FF
:104D9300900359E06E7003A3E06F700CEEFAEFFB23
:104DA30079011210C1124DAE0255897A017B009030
:104DB30003B0E0F9121A0322C082C08374016A703F
:104DC30001EB70077A01124DE58012900BE5124D4D
:104DD300F4EA4B6005122B3E8003124DAE02439E54
:104DE3007A207B009003B0E0F91218D7223400F543
:104DF30083EAF0A3EBF022C082C083900BE7023971
:104E03009EC082C083900BE902399E12589C22EE09
:104E1300240CF582EF3400F583124395E8492212FE
:104E23000D5E7F02020AAFA2F0E433851882851972
:104E330083124E46795212208D22124E4679421227
:104E4300208D22F0AA82AB8322AA08AB099003B07B
:104E5300E0F91218AD223400F9E508241DF582E5C6
:104E630009123FEBE8F0A3E9F022125658A3A3E09E
:104E730022A3F0EE2415124E7D22F582EF3400F5C5
:104E830083E022124E8A223400F583E0F8A3E0F98E
:104E93008882898322E0F8124E9E22A3E0F98E8253
:104EA3008F83A3A322F0EE2418123FE822F0EE240E
:104EB30016123FE82274F412078BEAFEEBFF7A0026
:104EC3007B04124DB2124F47124E6790036574096B
:104ED300F01212778A088B09AC08AD09EE2413127D
:104EE30031931251CB12509B640170487A0F124FC9
:104EF3003A60418A828B837402124F51FAA3E0FB1A
:104F03008A828B83A3E0FC8A828B83A3A3E0FBECDE
:104F1300850882850983A3A3124DF58882898312AC
:104F230051CF1247C3124E74FAA3E0FB794A122001
:104F33008D124E4C0232587B001218A18A088B093D
:104F4300EA450922900336124395900BE922F0EECD
:104F5300241DF8EF124F5B221244D6E022124F6455
:104F6300223400F5837401F022F582E509123FEB48
:104F7300E8F0A3E922124F7C22124F8022F0850829
:104F830082850983A322124F80A3A3A3A322124FD6
:104F930089A3A3E0221253A21212CB22EE2417F507
:104FA30082EF124F64121277EE241A123FE8EAF0EE
:104FB300A3EBF02274F412078B74F3120DD9890852
:104FC300EAFEEBFF7C0D7D0079008518828519834D
:104FD300AA82AB83121889EE241D12319312588DC5
:104FE300A3E0F8741F58600A7901122009790002BE
:104FF3005092E8A2E55008740C120FF47401F0E823
:10500300A2E75008740B120FF47401F0E8A2E674DF
:105013000A5008120FF47401F08008120FF4E064D0
:10502300017005EE24138003EE24151256CA740290
:10503300120FF4AA82AB831220211231901250A0D6
:10504300124E67740A120FF4E064017033122B716D
:10505300703B1212838A0A8B0BA80AA90BEE240B4E
:10506300123260687003A3E0697022121277EAFCBF
:10507300EBFD7402120FF4AA82AB8312509B600DF6
:10508300851882851983AA82AB831210BBA9087481
:105093000D023255EEFAEFFB12201BE922E012500B
:1050A300A522F8A3E0F98518828519832274F612E4
:1050B300078B74F3120DD98A088B09ECFEEDFF7C84
:1050C3000D7D007900851882851983AA82AB83122E
:1050D3005A32A3A3A3A3A3A3A3A3A312513A125186
:1050E30043F8A2E55008740B120FF47401F0E8A220
:1050F300E75008740A120FF47401F0E8A2E6EE50C8
:10510300042413800224151256CA7402120FF412D7
:10511300512CA3A3E0C0E0740C120FF4D0E012539F
:105123009A1210B5740D024E22AA82AB831220216B
:1051330085088285098322E01250A5E8F0A3E922BD
:10514300F0123FE5125891A3E02274F712078B7413
:10515300E1120DD9EAFEEBFF8E828F831251CFA3AA
:10516300A3A3E0A2E050518E828F83122CD18A82B6
:105173008B83A3A3A3A3A3A3E054FE1251E78A82C4
:105183008B831251E0E0F98A828B83E0241CFAA31B
:10519300E0123C011251CB121271E9701B741D1203
:1051A3000FF41251DA7011851882851983AC82AD20
:1051B30083EEFAEFFB1212B902540C8E828F83A393
:1051C300A3A3A3A3A3A3A3A312324E221251D322B8
:1051D300125895A3A3A32212401D640422E0241BAA
:1051E3001244CF2212437DAC82AD8322E9F87900C9
:1051F300740468600A740A686005740368700109BE
:10520300020D1074F612078B8A828B837420F0A32D
:10521300A37401F01210678A088B09AE08AF09EE78
:105223004F60108E828F837401F09003A3E07003AC
:10523300124F9FEEFAEFFB024E25C082C08390030C
:10524300B97401F0E9A2E350037403F0E9A2E15059
:1052530004E0D2E2F002439E74F612078B79007CDD
:10526300008A088B097808120A69F8FF078E528CA6
:10527300528C528C528C52855289528E5282520CCD
:1052830080097C0480050C80F67C089003B9E05CFF
:105293006003098003EC600109024E2574F61207CE
:1052A3008B8A828B83E07012A3124E1C600C8A825D
:1052B3008B831251CA1221E980047A007B00024ECB
:1052C3002574F512078B74F3120DD98A088B09EC38
:1052D300FEEDFF750A12EA45097005790002539342
:1052E300900356E065087004A3E065097014121278
:1052F30077EAFCEBFD1250977005750A0180037580
:105303000A00851882851983E4F004120FF4E50876
:10531300F0A3E50912539A12102BE96027740312C4
:105323000FF4AA82AB8312100DE964017016750A9B
:10533300017403120FF4AC82AD8312509760217590
:105343000A00801C7412650A70169003A2E06402BE
:10535300700EEEFCEFFDAA08AB09121043E970DFF3
:10536300EEFCEFFDAA08AB09121343E9F8740A68CF
:105373007005750A01801774A0687012EEFCEFFDCA
:10538300AA08AB0912134FAA08AB09121361A90AA1
:10539300740D025D9A740212539E221253A22212BA
:1053A300437DAA82AB832274F712078BEAFEEBFFDD
:1053B3008E828F83A3A3A3A3A3A3A3A3E06015EE6D
:1053C300241512319312323E1212E3E96401700480
:1053D300790180258E828F83A3A3A3A3A3A3A3E034
:1053E3006015EE24131231931253FEFAA3E0FB125D
:1053F30012E3E9640160D979008013123CEDA3A3A1
:10540300A3A3A3A3A3A3A3E022741F120D5E7F0192
:10541300020AAF74F012078B74FD120DD98A088B40
:1054230009ECFEEDFF890B7413120FF4E0F50C7514
:105433000A017401120FF474041258C56048E50C94
:10544300601DEA2417F582EB125B081258B38A82B7
:105453008B83E0D2E7F0EA2414F582EB1242A21226
:105463005599EB124E867403125E2BEE8882898364
:10547300A3A3F0EF88828983A3A3123D97123D9ED5
:10548300121061E9F50AA90A740302558674EC1235
:10549300078B74F5120DD98A0A8B0B890C8C0E8D30
:1054A3000F741F120FF4E0F50D7420120FF4E0F5E2
:1054B30010A3E0F5117E01EE120FF4740AF0E97007
:1054C30007E50DC333240AF012566B700302556DC2
:1054D3001256807409F0A3E50CC43354E0450D1251
:1054E3005692E50C702D7C008023ECC333F8E43333
:1054F300F9E51028F8E51139F98882898312557A7C
:10550300888289831234B0F0A30EAF830CECC39569
:105513000D40D7E5082417F582E509124F601212F2
:1055230077E508241AF582E509124DF07403120F8A
:10553300F4AC82AD83AA0AAB0B121013E96019E530
:10554300082416F582E509125574120FF4A882A9EE
:1055530083E5082418124E60850882850983125E4C
:1055630027AA08AB09121061E9FEEEF9740B025683
:1055730063124F64740322E08E828F83F0A3AE82A2
:10558300AF8322120D5E7F08020AAF124045F9EA8B
:105593002400E439FB22EA240BF5822274EE12077D
:1055A3008B8A0C8B0D890E8C088D097412120FF4E3
:1055B300E0F50F7413120FF412564C900522124E9D
:1055C3001C6077E50FC333F8E433F9E8240EFAE9F6
:1055D3003400FB1218A18A108B11AE10AF11EE4FDD
:1055E30060588E828F8374D4F0A3A3E50CF0A3E5F7
:1055F3000D125654E50EF0AC08AD09EE2405FAEF92
:105603001258CEEE240D123193E50FF0850A08856A
:105613000B09750A007808120D2CE50FC333FCE45F
:1056230033FDEE240EFAEF125643120D5EEEFAEF3F
:10563300FB90052212588D1209C90246CDFAE509DD
:105643003400FB122285740322E0F50AA3E0F50B74
:10565300221256582212565C221242B6A3A3A32248
:10566300120D5E7F0C020AAF851882851983AA8208
:10567300AB831212CB8A088B09EA450922EA240B71
:10568300F582EB124E80FEA3E0FF8E828F8322F021
:10569300A3AE82AF83AC0EAD0FEEFAEFFB1256A4AE
:1056A300221220211256AB22EE2408FEEF3400FF13
:1056B30022E0FA8E828F83A3A3E022FEA3E03400CC
:1056C300FF8E828F83E022123FE81256D122E0FC44
:1056D300A3E0FD2212324E12125F2274F612078BE0
:1056E300EAFEEBFF9003BA801388828983E06E7031
:1056F30003A3E06F603A88828983A3A3124E1C70D0
:10570300E87A047B001219438A088B09A808A909BF
:10571300E849601C8882898312573A9003BA125170
:10572300CB88828983A3A3124DF49003BA124E67E8
:10573300024E258A828B83EEF0A3EFF02274F412DB
:10574300078B7E009003BA80070E88828983A3A308
:10575300124E1C70F4EEC333FAE433FB1257E860C5
:105763007E7F009003BA8024888289831256CDEF0E
:10577300C333FAE433FBE5082AF582E5093BF583F5
:10578300ECF0A3EDF00F88828983A3A3124E1C7063
:10579300D79003AB122BAB7003A3E06978087019A1
:1057A300120D30EEF50A780A120D347C777D0379F9
:1057B300009003AB1257F3801A120D30EEF50A78FE
:1057C3000A120D347C777D0379009003AB1251CB21
:1057D3001212F57403120D5EAA08AB0912194912CD
:1057E30010790232581219438A088B09EA450922B3
:1057F30012324E1212FB22C082C08380128A828B25
:1058030083A3A3123FF69003BA124E67121949906D
:1058130003BA123F0670E602439E74F612078B909A
:1058230003631240229003CE12587C124E677ACE45
:105833007B03795012208D9003CE122DCAFAEFFB11
:1058430012135B9003CE124022900524124E1C606B
:10585300257A067B001218A1EA4B601A8A828B8391
:1058630074D5F0A3A3E41258A2041258B3900524EC
:1058730012588D1209C9024E2512588022E0F8A34E
:10588300E0F9900363228E828F831258912212587B
:105893009522E0F812589B22A3E0F5838882221216
:1058A30058A6221258AA22F08A828B83A3A3A3228A
:1058B3001258A6A3EEF0A3EFF022F582EF124E806A
:1058C300F922124F98EA4B22FAE5093400FB122021
:1058D3002122124E9FA3A3A3A3A3A3A322902770C5
:1058E300E4932401F8E43400F97A027B002274F78C
:1058F30012078B7E008004125EDE0E125A0240F7FE
:105903007E00EE12591D74FEF0A304125932E4F026
:105913000EEEC3940340EB02541175F003A4F8A9EF
:10592300F074BC28F8740339F988828983A322129E
:10593300593622F0888289832274F712078B7F00FD
:1059430080010F9009CBE493F8EFC3985026EF1230
:105953005AEE6A7003A3E06B70E8125E8B6C7003FF
:10596300A3E06D600A74FF6C700374FF6D70D31253
:1059730059F980047A007B0002541174F612078BE4
:105983007CFF7DFF7AFE7BFF12131FEA4B7040758D
:1059930008008036E50875F017A4F8A9F0742E28DE
:1059A300F5827409125B00600C742D28F58274096A
:1059B300125B007013741F28FE740939FF8E828FE7
:1059C30083125B0DEEFAEFFB0508125A6840C5021D
:1059D3004E2574F412078B8A088B09ECFEEDFF80C9
:1059E3000B121331EEFCEFFDAA08AB0912131FEAE9
:1059F3004B70EE023258741F28FA740939FB229057
:105A030009CBE493F8EEC3982274F712078BEAFEEE
:105A1300EBFFEE4F6010125A2C74FEF0A304125EDB
:105A23003114F0A304F00254117C177D00790012A5
:105A330018898E828F832274F712078BEAFEEBFF9D
:105A43007508008018E50875F017A4F8A9F0125E30
:105A5300967003A3E06F6003125EE60508125A68AE
:105A630040E30254119009CBE493F8E508C398226C
:105A730074F612078B12131F8A088B09A808A90949
:105A8300E849600AE8240DFAE93400FB80047A004F
:105A93007B00024E2574F412078B8A0A8B0BECFEF3
:105AA300EDFF750800750900802EE50975F017A450
:105AB300F8A9F0125ED1601EE509125AEE650A706C
:105AC30004A3E0650B700375080AEEFCEFFD125D9D
:105AD3008D60034308A005099009CBE493F8E50919
:105AE300C3985004E50860C2022DC275F017A4F8EC
:105AF300A9F0125AF922741F28F582740939F58323
:105B0300E022F582EF123FEBE42212324E121157DC
:105B130022125936A3A3A3A3A3A3A3A32274F2120D
:105B2300078B8A088B09ECFEEDFF740E120FF4123B
