:020000040000FA
:06000000020A630201C3C5
:03002B000207B118
:0300330002063B87
:0300430002074B66
:03005300020102A5
:03006B0002061575
:1000830002015F0101FF01010503010F10FEFFF9EA
:1000930012F912F912F912AF11A911F912B42100D0
:1000A3000000007822000000000C0000000C00019A
:1000B3000000D914000000000000931500000000A8
:1000C300000000000000FFFF0101010042050000E5
:1000D30000B705E80364006400B8010202000800E9
:1000E30000050207051E02051E020A0A03B80B02D9
:1000F300803E0102FFFF011496511800020206C060
:10010300E074F21203DCA2AFE433FED2AFE5A7FF43
:10011300E5A1F5085F54106006121C6575A1EFE5B3
:10012300085F54086008121C6B75A1F78024E5086A
:10013300A2E092F0EFA2E082F05017906198E0F80D
:10014300900893E0C398A2D265D0335002E8F075CB
:10015300A1FEEEA2E092AF7F0102043BC0E074F285
:100163001203DCA2AFE433FED2AF9061A4E0F875D2
:100173009B00E59158540860087591F7121CB380F1
:1001830023E59158541060087591EF121CB980143F
:10019300E591A2E092F0E8A2E082F05007E0C2E02D
:1001A300F0121DFD9061A3E0F8E5E9585404600ED8
:1001B300121DD375E9FB906193E0A2E640F28092B1
:1001C300C0E074F21203DCA2AFE433FED2AF90615D
:1001D300A5E0F8E5BF585404600675BFFB121E1571
:1001E300020155C3E498F8E499F91202278026C363
:1001F300E49AFAE49BFBE920E7E9120227E498F882
:10020300E499F922C3E498F8E499F9120227E498EF
:10021300F8E499F9C3E49AFAE49BFB22EB20E7CFD5
:10022300E920E7E0B90010BB0008E88AF084F8AAE7
:10023300F022E4FBC8FA22EB70227B10C833C8C952
:1002430033C9335007C39AC3DBF280069A50012A9D
:10025300DBEAC833F4C8C933F4C9FA2275F008E4F9
:10026300C833C8C933C933C99AC99B5004C92AC9F9
:100273003BD5F0ECFBC833F4C8E4C9FA22080808FC
:10028300EAC0E0EBC0E086F0E7A4FA180986F0E7DD
:10029300A42AFA180986F0E7A42AFA180986F0E7CF
:1002A300A42AFA1986F0E7A4FBE5F02AFA190886CE
:1002B300F0E7A42BFBE5F03AFA190886F0E7A42B44
:1002C300FBE5F03AFA18180986F0E7A4C5F02BFB12
:1002D300E43AFA1908E7C5F0C6A426F6E5F03BFBB5
:1002E300E43AFA1886F0E7A4F6E5F00826F6E43BCC
:1002F30008F6E43A08F6D0E0FBD0E0FA22E4CFC0F7
:10030300E0E4CEC0E0E4CDC0E0E4CCC0E075F02092
:10031300C3E633F608E633F608E633F608E633F6C3
:10032300181818EC33FCED33FDEE33FEEF33FFC347
:10033300EC9709ED9709EE9709EF97191919400FF3
:10034300FFEC97FC09ED97FD09EE97FE191906D509
:10035300F0BEECF709EDF709EEF709EFF7191919F4
:10036300D0E0FCD0E0FDD0E0FED0E0FF222518C5B0
:1003730082C0E0E51934FFC583C0E0E518C3958268
:1003830024F810AF0885831985821880088583199E
:10039300858218D2AFCEF0A3E520F0A37808E60853
:1003A300F0A3DEFAEFF0A3E58124FAF8E608F0A360
:1003B300E608F0A3E608F0A30808E608F0A3E608B9
:1003C300F0A315811581D0E0FED0E0F815811581E9
:1003D3001581E8C0E0EEC0E022C0D02518C582C078
:1003E300E0E51934FFC583C0E0E518C3958224F323
:1003F30010AF088583198582188008858319858243
:1004030018D2AFC8F0A3E9F0A3EAF0A3EBF0A37905
:1004130008E709F0A3D8FAECF0A3EDF0A3EEF0A3FC
:10042300EFF0A3D0E0F0A3D0E0F0A3D0E0F0A3E599
:1004330020F0A3E5F0F0A322851983851882E0C09C
:10044300E0A3E0F9A3E0FAA3E0FBA37808E0F60851
:10045300A3DFFAE0FCA3E0FDA3E0FEA3E0FFA3E03B
:10046300C0E0A3E0C0E0A3E0F5D0A3E0F520A3E063
:10047300A3F5F010AF08858319858218800885835A
:1004830019858218D2AFD082D083D0E0F8D0E03281
:10049300120AC5B900030204D5E4900301785A791E
:1004A3000C8002F0A3D8FCD9FA900E5AAA82AB832F
:1004B300900086787D79018015E493A3AC82AD83A7
:1004C3008A828B83F0A3AA82AB838C828D83D8E943
:1004D300D9E77582627583F9740312082F7582BB9D
:1004E300758320740012082F0975F0108E1A8F1B64
:1004F30085821F85831E851882851983E0CEA3E03C
:10050300CF851F82851E83EBC9EAC8EDCBECCAC336
:10051300E833C8E933C9EA33CAEB33CBC3EA9EF500
:100523001DEB9FF51CB35004AB1CAA1DEC33CCEDA3
:1005330033CDD5F0DAAE1AAF1B22D083D082ECC014
:10054300E0EDC0E0E493A3FCE493A3FDED4C600D68
:10055300120659EC24FFFCED34FFFD80EFE493A376
:10056300FCE493A3FDED4C600D1206F6EC24FFFCB6
:10057300ED34FFFD80EFD0E0FDD0E0FCE493A3C0B9
:10058300E0E493C0E022D083D082E9C0E0E493A307
:10059300C386F0C5F095F0F908E493A386F0C5F09F
:1005A30095F0700BE493A3C3994005E9048002A37B
:1005B300E475F002A42582F582E5F03583F583D056
:1005C300E0F9E493A3C0E0E493C0E02285198385B6
:1005D3001882E0A3FEE0A3F5207808E0A3F608DF85
:1005E300FAE0A3FFE0A3C0E0E0A3C0E0E0A3C0E023
:1005F300E0A3C0E0E0A3C0E010AF088582188583C4
:10060300198008858218858319D2AFD083D08202DE
:100613000835C0E074F21203DCA2AFE433FED2AFBC
:10062300E589A2E15003121B33758900C2C5EEA20E
:10063300E092AF7F0102043BC0E074F21203DCA23C
:10064300AFE433FED2AFE58BA2E05003121B337548
:100653008B00C2E880D8C0E0C3E49396087401938A
:100663009618400FE4936670080874019366187037
:10067300007019A3A3C3E49396087401939618A377
:10068300A3400DD0E0D0E0D0E0020579A3A3A3A35B
:10069300A3A3D0E0227404800474028000CCC0E0E1
:1006A300EDC0E0E518C39CCCAD1950011D10AF0699
:1006B3008C188D1980068C188D19D2AF120790D023
:1006C300E0FDD0E0FC2274028000CCC0E0EDC0E08D
:1006D300E518C39CCCAD1950011D10AF068C188DC5
:1006E3001980068C188D19D2AF12076ED0E0FDD099
:1006F300E0FC22C0E0C0F088F0E493667008087460
:10070300019366187000A8F0A3A3700BD0F0D0E09B
:10071300D0E0D0E0020579A3A3D0F0D0E022D083CB
:10072300D082CCC0E0E493A360061208101470FAE0
:10073300E493A360061208E81470FAD0E0FCE49393
:10074300A3C0E0E493C0E022C0E074F21203DCA291
:10075300AFE433FED2AFC2C0E5D1A2E45003121B13
:10076300DBEEA2E092AF7F0102043BCAC0E0E49358
:10077300A3C582CCC582C583CDC583F0A3C582CC76
:10078300C582C583CDC583DAE5D0E0CA22CAC0E0FD
:10079300E0A3C582CCC582C583CDC583F0A3C58242
:1007A300CCC582C583CDC583DAE6D0E0CA22C0E0DA
:1007B300C0D0E8C0E0E9C0E0E5A8D2AFC2C7A2E775
:1007C300A2E792AFD0E0F9D0E0F8D0D0D0E0327019
:1007D30009080808226016181818C6C333C608C6C5
:1007E30033C608C633C608C633C6D5E0EA22C008F6
:1007F300C3E096F50808A3E096420808A3E09642F2
:100803000808A3E09645087001D3D00822C0E0E4AD
:1008130093A3D39C5010E493A3C39C400AD0E0D08D
:10082300E0D0E002073EA3A3A3D0E022C09FF59F40
:10083300E473D09F22D083D082C09FE493C0E0743E
:100843000193C0E0740293F59F222518F58210AF3F
:1008530008F518400215198008F51840021519D239
:10086300AF851983227404800A740380067402809E
:10087300027401C0E0F40412084DD0E0120AA02271
:10088300C0D0251810AF08F518500205198008F5D7
:100893001850020519D2AFD0D022BB0102E722C003
:1008A30082C08389828A83BB0003E08002E493D001
:1008B30083D082226016080808C6C313C618C6135D
:1008C300C618C613C618C613C6D5E0EA22C3E0C6C7
:1008D30096F608A3E0C696F608A3E0C696F608A324
:1008E300E0C696F622C0E0E493A36C7009D0E0D092
:1008F300E0D0E002073EA3A3D0E022251810AF0802
:10090300F518400215198008F51840021519D2AFE1
:1009130022E76670100809E766700A0809E766703F
:10092300040809E76622C3E09608A3E09608A3E05B
:100933009608A3E096A2D265D03322E06670100831
:10094300A3E066700A08A3E066700408A3E06622C9
:10095300C3E096F008A3E096F008A3E096F008A39E
:10096300E096F022E026F008A3E036F008A3E03694
:10097300F008A3E036F022E627F60809E637F60882
:1009830009E637F60809E637F622E026F608A3E07B
:1009930036F608A3E036F608A3E036F622C0E0E810
:1009A300C0E0E58124FCF8E6A2E7D0E0F8D0E0223D
:1009B300700422600D18C6C333C608C633C6D5E01B
:1009C300F41822E657F60809E657F60809E657F63B
:1009D3000809E657F622E056F608A3E056F608A300
:1009E300E056F608A3E056F622E056F008A3E056D8
:1009F300F008A3E056F008A3E056F022E647F60815
:100A030009E647F60809E647F60809E647F622E449
:100A1300C396F608E496F608E496F608E496F622FA
:100A2300C3E7960809E7960809E7960809E79622B7
:100A3300C6F4C608C6F4C608C6F4C608C6F4C62279
:100A4300600D08C6A2E713C618C613C6D5E0F32285
:100A5300C3E09608A3E09608A3E09608A3E09622D5
:100A630075D0007581407518017519030002049350
:100A7300E0F608A3E0F608A3E0F608A3E0F6226098
:100A83000C08C6C313C618C613C6D5E0F422E6F095
:100A930008A3E6F008A3E6F008A3E6F022CAC0E044
:100AA300E6F0A308DAFAD0E0FA22E0FAA3E0FBA327
:100AB300E0FCA3E0FD22EAF0A3EBF0A3ECF0A3ED4E
:100AC300F022E5C754F84401F5C77901222518F54A
:100AD30082E43519F58322C2AF75D69F0200002246
:100AE3001208382AE402120838D32400120838E521
:100AF30024001208383725001208389825001208F8
:100B030038222600120838C626001208381A270091
:100B1300120838332700120838592700120838946E
:100B23002700120838D82700120838FF27001208B8
:100B330038502800120838002900120838B8290054
:100B4300120838802A00120838402B001208388413
:100B53002B00120838A92B00120838EC2B001208BE
:100B630038392C00120838912D00120838172E003E
:100B7300120838352E001208385F2E001208387913
:100B83002E00120838882E00120838932E001208FF
:100B930038532F00120838AC2F001208386E30007B
:100BA3001208387630001208383A3100120838A695
:100BB3003100120838D13200120838E2320012082C
:100BC30038583300120838EA330012083842340028
:100BD3001208380235001208382935001208383B4C
:100BE30035001208388E3500120838CB350012084C
:100BF30038D835001208385B3700120838B038008F
:100C0300120838E23800120838753900120838AE75
:100C13003900120838FA3900120838163B00120856
:100C2300385F3D001208386A3D00120838753D00F0
:100C33001208387F3D001208388A3D00120838A494
:100C43003D00120838AE3D00120838B83D001208C6
:100C530038C33D00120838EB3D00120838463E0009
:100C63001208386A3E001208388E3E00120838EC2B
:100C73003E00120838303F001208384C3F0012087B
:100C830038C33F00120838FB3F00120838474000C2
:100C9300120838A440001208385E41001208384296
:100CA30043001208389B4300120838CB4400120853
:100CB30038F144001208387A4600120838F6490021
:100CC300120838C84B00120838914D001208383EFC
:100CD3004E00120838A94F00120838485000120875
:100CE300388D5000120838F75000120838065100AA
:100CF3001208388D53001208383F5500120838ACDB
:100D030055001208388B5600120838A457001208F1
:100D130038215900120838405900120838955900F3
:100D23001208389A5A00120838C25A001208381AA0
:100D33005B00120838F95B001208383D5C001208AA
:100D430038885C00120838F35C00120838345E00FF
:100D5300120838985E00120838E65F001208384619
:100D630062001208387762001208382F64001208F4
:100D73003884640012083888650012083825660034
:100D83001208387E6600120838316700120838D31B
:100D930067001208387368001208381869001208CF
:100DA30038BF8101120838FE8101120838458401D9
:100DB3001208388F8401120838AA85011208381ADC
:100DC30086011208384F8601120838C387011208BA
:100DD30038468A011208386F8B01120838058C01D6
:100DE3001208380D9501120838A2950112083889A6
:100DF30098011208387C9901120838DD990112080C
:100E030038F99A01120838DE9C01120838EF9E0166
:100E1300120838599F011208382BA001120838E232
:100E2300A001120838ECA0011208381AA101120817
:100E330038D7A101120838AEA20112083875A301F0
:100E430012083827A40112083850A4011208387276
:100E5300A401120838C8A601120838A0A701120875
:100E630038E4A7011208384CA80112083804A90174
:100E730012083836A9011208387AA901120838B0C5
:100E8300A901120838FCA90112083851AA01120855
:100E93003856AA01120838A9AA01120838CEAA01A5
:100EA300120838DDAB0112083841AC01120838B121
:100EB300AC011208383DAD011208380AB00112081E
:100EC30038EEB00112083871B201120838A7B40124
:100ED30012083855B50112083805B601120838460C
:100EE300B801120838E9B80112083830B9011208FC
:100EF30038DCBA01120838F0BA01120838FABA011C
:100F030012083822BB011208382EBB011208384DD3
:100F1300BB0112083832BD0112083869BD0112083D
:100F23003873BD01120838A9BD01120838F8BE0193
:100F33001208383CBF01120838E4BF01120838C751
:100F4300C00112083872C101120838BEC20112086A
:100F530038BCC30112083862C401120838F2C40154
:100F630012083809C50112083840C5011208384A69
:100F7300C50112083855C50112083873C501120896
:100F830038B7C50112083814C60112083839C6012A
:100F930012083853C601120838DFC601120838FC9C
:100FA300C70112083869C80112083850C90112086C
:100FB3003877C901120838EBC90112083866CA012B
:100FC3001208386ACB0112083860CC011208380FB6
:100FD300CD0112083822CE01120838BECE01120804
:100FE300384BCF0112083829D00112083861D001DB
:100FF300120838B9D00112083882D101120838A377
:10100300D1011208382AD2011208384ED20112082F
:101013003870D201120838B9D201120838CFD4017E
:10102300120838B6D50112083867D6011208389D60
:10103300D801120838EDD8011208382DD901120849
:10104300386FD901120838CBD901120838F9D90100
:101053001208381DDA0112083870DA011208389EB6
:10106300DA01120838D7DA011208382CDB0112082A
:101073003892DB01120838E6DC0112083809DF0177
:1010830012083876DF011208389FDF011208382A68
:10109300E00112083891E001120838DCE00112087F
:1010A3003800E10112083824E1011208387FE10118
:1010B3001208389AE10112083853E2011208387C09
:1010C3009C04120838BB9C0412083878800212086A
:1010D30038BE80021208389E8102120838A08202AC
:1010E300120838A383021208382F85021208388D9C
:1010F30085021208384A86021208386887021208E5
:1011030038D9870212083815880212083863880212
:101113001208386D8802120838B188021208380D97
:101123008902120838A88902120838258A0212088F
:1011330038F48A021208388D8B02120838AD8B02FC
:10114300120838E38B02120838148C02120838D5BF
:101153008C02120838E58C02120838398D02120805
:1011630038548D02120838668D021208386F8D02CA
:10117300120838C98D02120838258E0212083871F8
:101183008E021208388C8E02120838BD8E021208A5
:1011930038DA8E02120838E68E021208385A9002A4
:1011A300120838739002120838DA9002120838EDE8
:1011B3009002120838FB9002120838AF910212080D
:1011C3003893920212083899930212083823940232
:1011D3001208382D94021208389A9402120838B172
:1011E3009402120838E394021208381C950212087C
:1011F30038469502120838A79502120838C7950297
:10120300120838E595021208382B96021208385155
:1012130097021208389E9702120838CD97021208D7
:10122300384398021208386B9802120838A49802BF
:10123300120838B298021208380A9902120838596B
:101243009902120838989902120838C899021208AC
:1012530038F49902120838FF99021208381D9A02CD
:10126300120838DF9A02120838E99A021208382461
:101273009B021208383A9B021208388F9B0212080D
:1012830038A39B02120838B19C02120838C49C028E
:10129300120838D99C021208387B9D02120838FEC6
:1012A3009D02120838BC9E02120838C79E0212081B
:1012B30038F39F021208380FA00212083861A00207
:1012C300120838A0A002120838B5A0021208381775
:1012D300A102120838A6A102120838F1A1021208CD
:1012E3003842A402120838C0A40212083835A502F5
:1012F30012083857A7021208386FA702120838726B
:10130300A7021208387EA70212083892A702120811
:10131300389AA702120838CDA7021208387DA8020E
:10132300120838F3A80212083866A9021208381AFC
:10133300AA02120838CFAA02120838EEAA0212082B
:10134300388EAB021208389AAB02120838C5AB02CA
:10135300120838C8AB0212083832AC021208385AE5
:10136300AD0212083832AE02120838BDAE021208BE
:1013730038D6AF0212083893B002120838CCB00244
:10138300120838FDB002120838BBB102120838EB5C
:10139300B102120838C6B2021208385FB30212084B
:1013A30038EAB3021208389BB4021208381EB50299
:1013B30012083850B50212083891B50212083844A1
:1013C300AA03120838A5AA03120838E2AA031208CE
:1013D3003835AB031208385EAD031208382EAF035D
:1013E3001208389BB203120838D2B203120838F03D
:1013F300B20312083866B3031208388EB303120817
:1014030038BFB303120838EFB3031208384BB403E1
:10141300120838699E03120838E79E031208381D24
:101423009F03120838899F03120838FCA00312088F
:101433003818A1031208385DA103120838EAA10382
:1014430012083843A2031208386FA3031208387D29
:10145300A403120838DAA40312083846A5031208B5
:1014630038A7A503120838E8A50312083895A60380
:10147300120838A7A703120838EAA7031208383856
:10148300A8031208386FA80312083812A903120818
:1014930038CDA903120838109B041208387DF303D2
:1014A300120838C9F3031208389D9204120838AEA3
:1014B3009204120838FF9204120838449304120865
:1014C30038EC9304120838BC9804120838768F0459
:1014D300120838CE900412083897B403120838461D
:1014E300B50312083866B50312083886B503120827
:1014F300389AB503120838FAB5031208382AB60326
:10150300120838B4B7031208385DB8031208383F1D
:10151300B90312083892B90312083840DA021208E4
:101523003819BA0312083884BA03120838A5BA0363
:1015330012083828BB031208385DBB03120838CDE4
:10154300BB0312083864BD031208383ABE031208FD
:10155300387CBE03120838D6BE031208382B7E002F
:101563001208384C7E00120838827F00120838AC0B
:101573007F001208389AF6031208380CE4021208A6
:10158300381FF70312083840F70312083854920340
:101593001208385792031208381193031208383C83
:1015A3009303120838829303120838A7930312088F
:1015B30038C89303120838FC930312083834940391
:1015C3001208385D95031208388C9503120838AC5D
:1015D3009503120838449603120838079703120834
:1015E300383C9703120838A4980312083847990324
:1015F3001208383F9A03120838749A03120838D431
:101603009A03120838949B03120838C29B031208EA
:1016130038499D03120838CA9D03120838FD9D03FB
:10162300120838EABE03120838F4BE031208384021
:10163300BF03120838AEBF03120838CFBF03120826
:1016430038E6BF0312083896C00312083853C303A1
:101653001208385CC303120838AFC303120838D822
:10166300C30312083836C403120838C7C403120868
:101673003803C5031208384FC503120838B6C5032B
:10168300120838EFC50312083875C603120838B4B8
:10169300C603120838F5C6031208382CC70312080C
:1016A300383EC70312083850C7031208386FC70300
:1016B30012083878C70312083830C8031208387084
:1016C300C8031208389FE00312083874E1031208B4
:1016D300388EE1031208389FE103120838B8E30398
:1016E300120838D7E303120838DE9B04120838AC1B
:1016F3008904120838E289041208382D8A04120872
:10170300387B8B04120838646900120838AF6A000A
:10171300120838EB6A00120838A26C00120838CBA2
:101723006C00120838636F00120838A36F001208A8
:1017330038447100120838DE71001208384672000E
:10174300120838D372001208380B73001208384B92
:101753007300120838DE74001208387D7600120810
:1017630038CC7800120838FA780012083826790045
:101773001208382F79001208388A790012083820A5
:101783007A00120838497D00120838CE7D0012080D
:1017930038C59D04120838DB9D041208380EF00387
:1017A30012083823F003120838C0F003120838FC7B
:1017B300F00312083813F1031208383AF103120840
:1017C300387FF103120838B0F103120838E8F10347
:1017D30012083870F303120838749504120838B1EC
:1017E3009504120838F39504120838039604120876
:1017F30038989604120838A2960412083800800319
:10180300120838588003120838448103120838E656
:1018130081031208383082031208389682031208B3
:10182300380F83031208382383031208381E8503F5
:10183300120838998503120838D08503120838B680
:101843008703120838CD8703120838188803120853
:10185300382E88031208383B88031208386F880330
:101863001208388F88031208382089031208382B8E
:101873008903120838898903120838E38903120897
:1018830038368A03120838498B03120838AD8D03A2
:10189300120838DE8D03120838778E03120838E1F8
:1018A3008E03120838E68E03120838228F031208BB
:1018B300387B8F031208386190031208388B90032A
:1018C30012083895900312083898900312083808C4
:1018D3009103120838319103120838449103120816
:1018E30038709103120838AB9103120838AE910394
:1018F300120838EA9103120838FD910312083824BC
:1019030092031208382E9C04120838469C041208CD
:1019130038C9F70212083818F802120838C7F90252
:101923001208388EFB02120838D2FB02120838F96B
:10193300FC021208382AFE021208384CFE02120872
:1019430038A8FE021208382AFF021208388DE20175
:10195300120838B8E201120838A2E3011208382845
:10196300E40112083891E401120838D9E40112089D
:10197300386AE501120838FFE50112083894E601D8
:10198300120838D5E60112083860EB01120838EE68
:10199300EC0112083827ED01120838E9ED011208AD
:1019A30038ECED0112083899EE01120838D3EF0133
:1019B30012083840F201120838E6F201120838FC26
:1019C300F3011208389EF40112083869F501120870
:1019D30038ECF50112083851E4021208380DE5021B
:1019E3001208388AE50212083899E50212083822EB
:1019F300E6021208389AE602120838A9E70212082A
:101A030038D2E7021208387AE802120838CDE80221
:101A130012083839E90212083808EC02120838A90A
:101A2300EC021208380DED02120838A3EE02120878
:101A3300385BEF02120838F8EF0212083859F00247
:101A4300120838D3F002120838D6F1021208386CA3
:101A5300F3021208387CF40212083821F502120846
:101A63003892F50212083863F6021208380D800422
:101A73001208385D8004120838B98004120838044B
:101A830081041208385F810412083807820412089F
:101A9300387082041208387D82041208385687048D
:101AA300120838878704120838418804120838A7B7
:101AB3008804120838188904120838EDF90312084B
:101AC3003879FB03120838AF9904120838C0990417
:101AD300120838609A04120838C78D04120838D5E2
:101AE3008D04120838039E041208387A9A041208E7
:101AF300388A9A04120838A59A04120838069B04F7
:101B0300120838B897041208383D9804120838A30D
:101B130098041208381D91041208383F91041208E2
:101B230038A59104120838C591041208380B9204A1
:101B3300120838669204120838D0CD03120838E52B
:101B4300CD0312083807CF031208384ACF0312080F
:101B53003864CF03120838E2CF0312083801D103E7
:101B630012083875D1031208388FD103120838A62A
:101B7300D103120838B9D103120838D3D10312089C
:101B830038EAD10312083810D20312083861D2039D
:101B9300120838FDE8031208380BE90312083885E8
:101BA300E90312083869EA0312083822EC03120821
:101BB30038A39D0412083899C80312083806C903CC
:101BC300120838C7C90312083837CA031208384243
:101BD300CB03120838BACC031208381ECD031208FF
:101BE3003873CD031208387CCD031208388BCD032C
:101BF3001208389ECD03120838B4CD03120838BD3D
:101C0300CD0312083896D203120838EBD203120818
:101C130038E7D40312083819D5031208383BD50323
:101C230012083854D5031208386DD50312083877D3
:101C3300D60312083812D70312083809940412087D
:101C4300382D9404120838469404120838859404F5
:101C5300120838B89404120838E89404120838506B
:101C630095041208385395041208385D9504120838
:101C7300386A950412083824FC031208384CFC0314
:101C83001208388DFC031208389FFC03120838BA77
:101C9300FC0312083822FD031208382EFD03120834
:101CA300388DFD03120838B1FD0312083872FE03A4
:101CB3001208387FFE0312083890FE031208380911
:101CC3009D04120838269D0412083895D70312087C
:101CD30038F5D803120838FBD80312083812D90391
:101CE30012083833D90312083849D9031208385D6A
:101CF300D903120838DCD90312083841DA03120871
:101D030038D7DA03120838B0DB03120838C0DB0314
:101D1300120838CFDB0312083861FF021208388536
:101D2300FF02120838ADFF02120838D5FF0212086D
:101D3300388C8204120838B38204120838D482041F
:101D4300120838468304120838F88404120838113C
:101D530085041208382885041208383185041208CE
:101D6300384F8504120838598504120838638504EE
:101D7300120838768504120838CB85041208380413
:101D8300860412083832860412083883860412083F
:101D930038CF8604120838EA8604120838F4860419
:101DA3001208380587041208384B87041208388D47
:101DB3009B041208387CF601120838A8F6011208B1
:101DC30038C6F601120838D9F601120838F4F601BC
:101DD30012083853F70112083881F70112083890B6
:101DE300FB01120838D5FC0112083807FD0112085F
:101DF3003873FD01120838BCFE01120838E4FE01F5
:101E0300120838F9FE0112083809FF01120838498F
:101E1300FF0112083895FF01120838A5FF011208C7
:101E230038BEFE03120838CEFE03120838ECFE0358
:101E330012083807FF031208382EFF031208384F21
:101E4300FF0312083869FF03120838A1FF031208C1
:101E530038C4FF03120838C59C0412083887EC0302
:101E63001208388EEC03120838ABED03120838DB86
:101E7300ED0312083801EE0312083834EE0312089A
:101E83003846EE0312083882EE03120838E8EE03F0
:101E930012083824EF031208386BEF03120838983E
:101EA300EF03120838B9EF03120838DE8B04120867
:101EB30038F68B04120838E48C04120838C48D04F5
:101EC300120838A5960412083817970412083855D3
:101ED300970412083896970412083830E50312085D
:101EE300384FE5031208389EE503120838BAE503B4
:101EF300120838EBE503120838FBE503120838082B
:101F0300E60312083815E603120838FDE603120843
:101F1300383BE70312083845E70312083858E8034B
:101F230012083863E80312083875E8031208387E8C
:101F3300E80312083888E80312083800DC031208A3
:101F43003827E00312083835E003120838D3FF01BD
:101F5300120838459D041208387B9D04120838E5A1
:101F63009D04120838A2D7021208386BD602120851
:101F730038BFD50212083805D402120838B5D10289
:101F83001208383CD102120838E3D0021208387321
:101F9300D0021208384AD0021208382ACE02120898
:101FA30038F6CD02120838C3CD02120838A7CD0285
:101FB300120838C0CC0212083878CC02120838C391
:101FC300CA0212083843CA0212083840CA02120869
:101FD3003841C9021208380FC9021208384CC80226
:101FE30012083877C602120838D8E20212083835C8
:101FF300E202120838E8E00212083893DE021208FF
:102003003829DE0212083808C602120838DAC50277
:10201300120838D7C502120838C4C502120838E1BD
:10202300DD021208386FC5021208385EC5021208B5
:102033003850C4021208381AC40212083853DD0299
:1020430012083814F703120838C8C3021208386993
:10205300C30212083838C30212083800C00212083B
:1020630038C0BF02120838B4BF0212083814BF02C6
:1020730012083854BE02120838D6BB021208386759
:10208300B90212083825B902120838F9B702120842
:1020930038AEB702120838EDB60212083830B6026D
:1020A300120838C6B50212083800B60212083846BC
:1020B300DD02120838D6B90300000080FBE4730088
:1020C3000136360101000102010001030100010490
:1020D30001060605020000070100340801000F098C
:1020E3000401010D0100FF0E080000170200001992
:1020F3000100FF1A0100011B0100FE1C0100081D65
:102103000200001F01000120010001210200002341
:1021130001000F2402000026010001270100082806
:102123000200FF2A0100072B0102402C0100002DB1
:102133000100012E0100012F0100FF30010B1C31B2
:102143000800003A0100083B01000F2F01000003C3
:1021530002710230016002110270020102020202E6
:10216300028002100261023A0041006302730272AC
:10217300026202430200021302380000020002045A
:1021830002120200020002000200020402040237EB
:102193000037003C024402000239000002000265DD
:1021A300020002350281020002050282028302005C
:1021B3000203007100300160001100700031022041
:1021C30003500480001000610000001400630073DA
:1021D30000720062004300000013000600000000CC
:1021E30000040012000000000000000000040004CE
:1021F30000370037003C02440000000000000000EC
:102203000065000000350081000000050000008328
:10221300000000030471040204600411047004024A
:10222300040204010402041004610400041404639E
:1022330004730472046204430400041304060400D8
:102243000400040404120400040004000400045104
:1022530004640000040004000444040004000400B7
:1022630004000465040004350481046400050400CB
:102273000483040004010371030103010301030147
:1022830003010322030203010310030003000300FD
:1022930003000300030003000342030003240306B7
:1022A300030003000304031203250323032503236D
:1022B30003040304030003000300034403000300B7
:1022C3000323030003650321003503810300030592
:1022D3000300030003000301017101010101011166
:1022E3000101013101010101018001100161013B83
:1022F30000140063017301720162014301000113C1
:102303000106013D01350004011201000100010035
:1023130001000104010401330133013C0144013292
:102323000136000001000165010001350081010053
:10233300010501820183010001360001000600004E
:10234300000F000000000000000000000000000378
:10235300FFFF00000403FFFF0000FFFF0FF4010075
:1023630005C4040320000100000B0000000000006E
:10237300000003010F0000131A1300AD190100132D
:102383001A0200651903006B19040071190500771F
:1023930019060083191100A1191400A71915009536
:1023A30019FFFF000001E90D06130E080D0E0B2B9C
:1023B3000E10650D02EF0D05010E07F50D0CCB0D8B
:1023C3000DDD0DFF000003EAF5E5D5D5C5B5A595EF
:1023D30095858575756565555545453535252515AA
:1023E3001505091239120F12151233122712211271
:1023F3003F1245124B1257121B120312FD11001606
:102403000F00000B150B020002220F32000006F929
:10241300120B131113D3111713CD11D9110D11076A
:1024230011431149113D11F510591377137D135FB2
:10243300136B136513303016181920231A1C1E3022
:102443000C0E020B040B0A0708000F00383C3E3643
:102453003B3B352B432C303017181921301B1D1FE4
:1024630030000119161816161523030000034948F6
:10247300424D18172505024D131D1323132F13293E
:10248300132D12511271135D126312020402010122
:102493000101090219111F1113114F11000000004E
:1024A30000002511371100BE040A0E0015000400B8
:1024B3007F00E8030C002800000000000308100C54
:1024C3000A03080900040001FF1E1E0C05040F087F
:1024D300C082C0838A828B83E0D2E7F01218C302E2
:1024E3003587C082C083790012299F1258F0C082B9
:1024F300C083900334124676D083D082C3E09CA37A
:10250300E09D500C125FC4FAA3E012251660010986
:10251300023587FBEA75F00BA4FAA8F075F00BEB14
:10252300A428FB900336E02AF8A3E03B8882F583D6
:10253300E0540F2274F7120370890812299F122A9C
:1025430045ACF075F00BE9A42CF9900336E028FEB6
:10255300A3E039FF74016508600674026508702002
:102563008A828B83122A3112396774026508701BC1
:102573001228F0122A7870138E828F83E4F0800B76
:10258300EA2403FCEB122A13122A1FEEFAEFFB12C2
:102593000AE90238C474F41203701268EB79008EEE
:1025A300828F83E06076890A890B8065E50A75F07E
:1025B3000BA4FAA8F075F00BE50B1225237046E582
:1025C3000A75F00BA4F8AAF075F00BE50B122A5765
:1025D3008E828F83E0850882850983122B398508D3
:1025E30082850983A3123967EE2403FCEF122A1CA8
:1025F30012374512536AAA08AB09120AE979019006
:102603000334124D7FE50A2401F50AE50B3400F586
:102613000B1228F8E50A9AE50B9B4090023B1174D4
:10262300F5120370EAFEEBFF740B120AD012374A5D
:10263300750A01EC4D602BEC126907ED1258F0128C
:10264300395F7901120AF5E5084509606F8508824B
:10265300850983A31268F57902AA08AB09120AF562
:10266300805AE5084509602B1258F4123FBE123711
:1026730046122A62700CEEFAEFFB120AFBE9F50A26
:1026830080CBEE2403FA12299A70317903EEFAEF24
:10269300FB80CA8E828F83A3E064FE7003A3E0F401
:1026A300700BEE24030A0A0A12299A700CEEFAEF51
:1026B300FB120AFBE9F50A8003750A00A90A7F03E6
:1026C3000205CF74F71203709003341238D4EA4B27
:1026D300602FEA75F00BA4FAA8F075F00BEBA428B1
:1026E300FBEAFEEBFF1216FB9003361238D490037D
:1026F30036124BC46012EEFCEFFD790012163580E2
:1027030007900336E4F0A3F00238C4900334124375
:102713002EC3EE98EF9922C082C083EC4D60051260
:102723001ED580097C087D00790012163502358795
:1027330074F61203707900EA4B6018780088081267
:102743005C37EB125FC060047901780808E8C39432
:102753000840EA02397074F712037074F31208FE2A
:10276300ECFEEDFF851882851983E4F004120AD08C
:10277300EAF0A3EB1250F07403120AD0AC82AD83DB
:10278300EEFAEFFB120B0DEEFAEFFB120B1302380E
:10279300BF74F712037074F31208FEECFEEDFF85AD
:1027A3001882851983E4F0EAFCEBFD7403120AD066
:1027B300122B327401120AD012395B8E828F83126C
:1027C300396774FE68700374FF69600479018002DD
:1027D30079000238BF74F7120370EAFEEBFF122888
:1027E3003670141228418E828F83E0F4F88A828B2C
:1027F30083E058F0120AE9A9080238C474F71203F7
:1028030070EAFEEBFF7508008E828F83E060221270
:102813002836701D1228418A828B83E08F838E8233
:10282300F8E058700CE0F88A828B83E048F0120AD3
:10283300E980C4120AEFE9F50874016508221269F8
:1028430000122A4912298BFAA3E039FB2274F412ED
:1028530003708A088B097C007D001228F0122A1F5E
:102863001229B01268F27900850882850983A3E0F2
:1028730064FE7003A3E0F460717E007F008062EE6B
:10288300FAEF1225166057EEFAEFFBEA75F00BA488
:10289300FAA8F075F00BEBA428FB900336E02AF5B9
:1028A3000AA3E03BF50B850882850983A312503EFA
:1028B300850A82850B83A3E06A7003A3E06B701E15
:1028C300E50A2403FAE50B12299B700AE50A24039F
:1028D300FCE50B122A1C1229A479011259061232A3
:1028E3008F1228F8EE9AEF9B4095023B11EA2403DE
:1028F3000A0A0AEB229003341254DDC32274F31242
:1029030003708A088B098A828B83A31268F51229C4
:102913009F1268F2750C001228F012299B70547EE6
:10292300007F00804912297DFAA3E0398A82F5836A
:10293300E0540F603612297DF50AA3E039F50BE563
:102943000A2403FCE50B122A263400FB121ECFE9EE
:1029530064017017850A82850B83A312559EA31207
:1029630039671229A4750C0112590612328F1227E6
:102973000E40B2A90C7F050205CFEEF8EFF9E8751A
:10298300F00BA4F812298B22AAF075F00BE9A42A04
:10299300F9900336E02822EF122A7222126906EB1D
:1029A300221229B0125901EEF0A3EFF022E508122A
:1029B3006907E5092274F5120370EAFEEBFF8E82C4
:1029C3008F83A31268F57C007D00EE24030A0A0AB4
:1029D300EF122A1FEEFAEFFB120AEFE9F50A740170
:1029E300650A7029126900122A45AAF075F00BE9ED
:1029F300122A57850882F583122A31122A62700D32
:102A0300E5082403FCE509122A13122A1F0226BF34
:102A13003400FDEE2403FAEF22122A263400FB12BF
:102A23000B0D223400FDE5082403FAE50922A31265
:102A33002A3622122A3A22E0F8A3E0F98E828F8303
:102A4300A322122A49223400F583124332E875F097
:102A53000BA4F822122991F508A3E039F50922E81D
:102A6300F0A3E9F0E5082403FAE509122A72221219
:102A73002A786401223400FB120B13E92274F31247
:102A8300037074E61208FE1268EB750C01750800FA
:102A9300750900750A00750B00851882851983E492
:102AA300F0EE2403FCEF3400FD7403120AD0122B62
:102AB30032E964017023740B120AD012395F740176
:102AC300120AD01250427003A3E069605185188244
:102AD300851983858208858309740D120AD0E4124F
:102AE3002B39740E120AD0123967740D120AD0AA48
:102AF30082AB83120B31E96401700B740D120AD09F
:102B030085820A85830B780A120870AC08AD09EE3A
:102B1300FAEFFB120B017402120883E9F50CEEFACB
:102B2300EFFB120B2BA90C741A12088302297812DB
:102B33002E05120B37221238CF12432E22C082C029
:102B430083780079008003122C301228F8E89AE980
:102B53009B5029E8FAE9FBEA75F00BA4FAACF0758F
:102B6300F00BEBA42CFB900336E02AFCA3E03B8C98
:102B730082F583E0540F70CF79008002790102352A
:102B830087C082C0839024AF124384EC75F012A4F3
:102B9300FCA8F075F012EDA428FD79FF7A027B09F9
:102BA30012163502358774F7120370E9FEEAFF7ACD
:102BB300007B00780079008028E8FCE9FDEC75F0E3
:102BC30012A4FC85F00875F012EDA4250812304517
:102BD300C39E400AE0FCEFC39C4003123164122CF5
:102BE3003012303940D30238C4C082C083780079B0
:102BF300008003122C30122C24501F123049F47021
:102C0300F2E875F012A4F8AAF075F012E9A42AF913
:102C1300740228FA740939FB80047A007B000235B8
:102C2300879024AF1230FAC3E89AE99B22E8240183
:102C330008E93400F92274F012037074F31208FEE9
:102C43008A0A8B0B8C0C8D0D8908EC450D6016AA36
:102C53000CAB0D120B858A0E8B0FAE0EAF0FEE4F22
:102C63006003022CF7120B5B8A0E8B0FA80EA90FC1
:102C7300E8FEE9FFE849607C9024BD122D596022EB
:102C83007403650860067404650870167A04790392
:102C9300120B559024BD122D7040077A007B000261
:102CA3002D569024BB122D59601B740165086006D4
:102CB30074026508700F7A027901120B559024BBD8
:102CC300122D7050D68518828519837401F0120A6B
:102CD300D012536AAC0CAD0D7403120AD0122DFE40
:102CE300740B120AD0123752123D47E41253521298
:102CF300104D8004EE4F604A780074FF2508C3949A
:102D030004500278048E828F8312536A8E828F83DB
:102D1300A3A3A3A3E508F0E88E828F83A3A3A3A3B1
:102D2300A312537212021F1231118E828F83A3A337
:102D3300A3A3A3A3A3F0123108120AAD1258EA12F7
:102D43000AB9122D5E4005900E5EE4F0120F27EED5
:102D5300FAEFFB02433812548C49227A04790012A9
:102D63000B559024AF125FA6EA98EB9922122D8996
:102D73007583247582AFE493C398F8A3E49399F918
:102D8300C3EA98EB9922E493F8740193F92274F25D
:102D930012037074F31208FE8A088B09ECFEEDFF30
:102DA300750A00EEFAEFFB120B858A0C8B0DA80C4B
:102DB300A90DE849603E88828983E065087004A311
:102DC300E06509602F88828983A3A3A3A3E0C3944A
:102DD3000550211257988518828519837401F012C2
:102DE3000AD012579CEEFCEFFD7403120AD0122D89
:102DF300FE750A01A90A740D024E36122E05120B36
:102E03004322AA82AB83120B0D851882851983AAEC
:102E130082AB832274F6120370122E53600FA3A3A6
:102E2300A3A3E014C394045004790180027900023F
:102E3300397074F6120370122E53600FA3A3A3A369
:102E4300E014C394025004790180027900023970BE
:102E5300120B7F8A828B83E58245832274F61203E9
:102E630070122E53600BA3A3A3A3E0700479018017
:102E7300027900023970C082C083EAFCEBFD7A005C
:102E83007B00023584C082C0837C007D00023584D0
:102E930074F412037074F31208FEEAFEEBFF8C0A5B
:102EA3008D0BC3EC94F8ED94FF4007EE4F700302D3
:102EB3002F4C750800750900802E851882851983AB
:102EC3007401F01232B7120AD01232C560137403C0
:102ED300120AD0AC82AD83EEFAEFFB121ECFE9707B
:102EE30049E50824011230E59024AFE4125494E537
:102EF3000898E509995052E50875F012A4F8AAF06C
:102F030075F012E509A42AF9125FD960D4EE4F7067
:102F1300A974FF650A700474FF650B60C41232A7BD
:102F2300650A7004A3E0650B70B7E50875F012A499
:102F3300F508A8F075F012E509A428F5097402252F
:102F430008FA74093509FB80047A007B00023B0C04
:102F530074F412037074F31208FE750800120B85E3
:102F63008A0A8B0BAE0AAF0BEE4F602A8518828557
:102F7300198374011238C9F8A3E0F9740B120AD04B
:102F83001239EA120B257C127D0079FFEEFAEFFB72
:102F9300121635750801122D5E5009900E5E7401EC
:102FA300F0120F27A908023B0C74F7120370E9FE15
:102FB30074FE6A700374FF6B7800790070058052A9
:102FC300122C30123039504AE8FCE9FDEC75F0124E
:102FD300A4FCAFF075F012EDA42F123045F460E0BD
:102FE300E8FCE9FDEC75F012A4FC75F012EDA42FDA
:102FF300FD74022CF58274093DF583E06A7003A326
:10300300E06B70BC800912304914C394044017125A
:103013002C30122C245018EE70EC123049640160ED
:1030230005E0640370E9123298FAA3E0FB80047AA6
:10303300FE7BFF0238C49024AF124388C3E89CE9A7
:103043009D2212319922E8FAE9FBEA75F012A4FAFB
:10305300ACF075F012EBA42CFB74062AF58274090C
:103063003BF583E022120B97023587C082C0837938
:103073000180F274F01203708A0A8B0B7A047901CF
:10308300120B558A0C8B0DEA450D603EEAC333FAE9
:10309300EB33FB1216FB8A088B09AE08AF09EE4F20
:1030A30060237AFE7BFF120B9D74FE6A700374FF2C
:1030B3006B601B8508828509831238D4E5082402D6
:1030C3001230E580E1750C0080047E007F00850AE4
:1030D30082850B83E50CF0EEFAEFFB02433DE50836
:1030E3002407F508E5093400F509229024AF1243BB
:1030F30088C3EA9CEB9D22E493FA740193FB2212AA
:1031030016297403221258FBE4F09081A822E88E5A
:10311300828F83A3A3A3A3A3A3A3A3123133740115
:10312300123133A3F0EE24101258FEE4F0A3F02280
:10313300123D53A3A3A322C082C0837A007B0080E5
:1031430004191231641230EE5010123183C3940506
:1031530050F0E970EC12316D80047A007B00023587
:1031630087EA24010AEB3400FB22EA75F012A4FA81
:1031730075F012EBA428FB74022AFA74093BFB22B4
:10318300EAFCEBFDEC75F012A4FCA8F075F012ED6F
:10319300A42812319922FD74062CF58274093DF599
:1031A30083E02274F712037074F31208FE7E007F2B
:1031B3000002324BE50875F017A4F8A9F012623A41
:1031C300FAA3E0FBEEF8EFF9E875F012A4F8ACF01F
:1031D30075F012E9A42C1232A66A7003A3E06B60A7
:1031E3003FE50875F017A4F8AAF0EA126239F8A3CC
:1031F300E0F97401120AD0E0687003A3E06960206B
:10320300E50875F017A4F8EAF9747E28FC740A3906
:10321300FD7403120AD0AA82AB83121ECFE9601495
:10322300E50875F017A4F8A9F0747C28FA740A3934
:10323300FB12105905089024C1E493F8E508C398DC
:1032430050030231B712328F9024AF126580503988
:10325300EEF8EFF9123298F47003A3E0F460E68518
:1032630018828519837401F0EEF8EFF9E875F0120E
:10327300A4F875F012E9A42AF91232B7120AD0128F
:1032830032C560C175080080AD0238BFEE24010E5F
:10329300EF3400FF22E875F012A4F8AAF075F012DB
:1032A300E9A42AF91232AB22740228F5827409398F
:1032B300F583E022740428F58274093912432C74CF
:1032C3000B22E8F0A3E91239F2120B3DE922C08286
:1032D300C08390034174FBF0A3740DF0023587742F
:1032E300F7120370EAFEEBFF900377E06408601BBC
:1032F300E0640460168E828F83E054036401704897
:10330300123745123E3DE06406703D8E828F83A3E3
:10331300A3E064FE7003A3E0F4602D8E828F83A389
:10332300A312395B900368E0687003A3E069700B34
:10333300EE2415F582EF125FC06008120EB5E9F5B1
:10334300088008120EBB80F67508C2EEFAEFFB1276
:1033530017010227FA74F41203708A088B098A8210
:103363008B83E0F8A3E0FAE82AFAE43400FB1216B0
:10337300FB8A0A8B0BAE0AAF0BEE4F6063850882A4
:10338300850983E0FC7D0079001216358E828F83D8
:10339300A3A31268F5120EF78E828F83A3A3A3A3B0
:1033A3001238D4850882850983E0F8EE28F8EF34D3
:1033B30000123963850882850983A3E0C0E0EE2407
:1033C3000D1258EDD0E0F0120F09EE240E1258ED55
:1033D300E9124F9FE0C0E0EE24111258EDD0E0F067
:1033E300EEFAEFFB023B1174F412037074EB120854
:1033F300FE8A088B098C0A8D0BE9FE900377E06443
:10340300046005E06408700479C2802EA378081272
:103413000A91EE90037E1235C5120A917405120AC1
:10342300D0E9F07404120AD07401F07407120AD0C0
:10343300E4F090037774021235227415023B0E7484
:10344300F612037074EB1208FEEAFEEBFF124BC197
:1034530060030234E67A077B001216FB90033912ED
:1034630038D4124BC160788E828F83120AAD9003D9
:103473003A123E40120AB91267B9C0E01234F2D0D0
:10348300E0F0EE2405FAEF3400FB8A088B098A8208
:10349300F583E0C0E01234EDD0E0123B08E0C0E079
:1034A3001234EDA3D0E0123948120AAD8518828593
:1034B3001983120AB988828983E0C0E07405120A6D
:1034C300D0D0E0F0850882850983E0C0E07404125F
:1034D3000AD0D0E0F07407120AD0123521800679A1
:1034E3001080027901741502396D1234F2A322900F
:1034F3000339E0FAA3E0F5838A82A3A3A3A322C03E
:1035030082C083124BC1600D9003391254CB9003D8
:1035130039E4F0A3F0120E25120FF9023587E412F5
:1035230039F2121F0522C082C083900338E0700372
:1035330012199B120BDF804CC082C083900338E0CA
:10354300900E5D7004E4F0802D7401F0900338E078
:10355300F460237C41E0C394415002E0FCECF8E0CA
:10356300C398F0EC75F0E8A4CCA8F075F003A42898
:10357300FD7A801243907A5D7B0E7941121EED80B5
:1035830003120B8BD083D08202083574F4120370BC
:1035930074EB1208FE8A088B098C0A8D0B90037753
:1035A30074011235C5120A917405120AD0E9F07438
:1035B30004120AD07403F07407120AD012352102E0
:1035C300343D12395378082274F71203707C0112C8
:1035D3000BF10238C474F212037074FC1208FEE992
:1035E300851882851983F0EAFEEBFF8C0A90037538
:1035F300124676120E198A088B09EA450970057975
:10360300CA0237408A828B83A3A3A3A3A3A3A3E005
:1036130064FE7003A3E0F4700579C302374090039E
:103623007512503E12105F850882850983A3A3A3F8
:10363300A3A3A3A3A3A3A3E0049003881238A374B2
:1036430002120AD07402F014120AD0AA82AB8312B7
:103653000F638A0C8B0DAE0CAF0DEE4F7003023768
:1036630037123745123FB27406F0A3A882A983909C
:10367300036212550812430BF0EE24131258ED7433
:103683000112534A7440F0A3E4124F98A3A31237D4
:1036930052123967EE24111258EDE50AF0EEFAEFF3
:1036A300FB120BBBE9FE6003023739900377740901
:1036B300F01230E1AA08FB794B121EED85088285D2
:1036C300098312389512396790036AE0F8851882E6
:1036D300851983E068600CE090036A1239EE79E1A2
:1036E300121EED900EAE12395B900EB0E0687003BF
:1036F300A3E069601A90033B123967900EB0125031
:103703003E120F21900EB01246767A011243907A40
:10371300007B049003C2E0F91217C1900EB0123778
:103723004A740278081209B3AC08AD09FA7B041293
:10373300439280027E1090052BE4F0EEF9740402AC
:103743004E36EE1258FC22E0F508A3E0F5092212EA
:10375300375622122A3AA32274F512037074E21226
:1037630008FE851882851983ECF0A3EDF0EAFEEBE1
:10377300FF89087429120AD0E0F509742C120AD0C3
:10378300E0F50A900377E064046005E064087005DF
:1037930079C202388D742A120AD0E064FE7003A342
:1037A300E0F4700579C302388D90037774031239FE
:1037B300EE7950121EED742A120AD0AA82AB8379D5
:1037C3004B121EED85188285198312389C123967B6
:1037D300E50890036AF0742A120AD0123895123958
:1037E30067E5099003621238A374CE55094480C07B
:1037F300E07412120AD0D0E0F07401250A90038815
:10380300F0740F120AD07402F0742A120AD012391B
:103813005B7407120AD0E8F0A3E91238DA741012C5
:103823000AD01239677405120AD0E508F0741B1226
:103833000AD0E4F090037D740FF07A7D7B03795412
:10384300121EED90037C740FF07A7C7B0379471290
:103853001EED90037CE0C3940F50237405120AD02D
:10386300E0C0E07402120AD0D0E0F07404120AD06F
:103873007401F004120AD0AA82AB83121F117405DB
:10388300120AD0AA82AB83121EF3741E120883029B
:1038930026C112432E90036B2212432E90037522EE
:1038A300F0EEFCEFFD7A897B03121ED52274F7122A
:1038B3000370EB90037FF0120E078005740D12085E
:1038C300837F010205CF1238CFA3E022123948A328
:1038D30022EAF0A3EBF02212394EF8A3E0F92274A6
:1038E300F712037074F81208FEEAFEEBFF790090FA
:1038F3000377E06408704485188285198374FDF0AA
:10390300A374FFF0120EF17402120AD01238D474A9
:1039130005120AD0E41238CFE0C0E07404120AD0D2
:10392300D0E0123943C0E07406120AD0D0E0F0743C
:1039330007120AD0E41239EE120F4574080238C197
:10394300123948E022F08E828F8322123953E0220B
:10395300F08518828519832212432E22E0F8A3E012
:10396300F91258FBE8F0A3E9F0221208837F020260
:1039730005CFC082C08390034974ABF0A3740CF0ED
:103983009003EF749FF0A3740FF090034D74E1F074
:10399300A3740CF090034F74ABF0A3740CF090037A
:1039A3005174E7F0A3740CF002358774F4120370BA
:1039B30074F91208FE8A088B098C0A8D0B8518820C
:1039C3008519837808120A917404120AD0E9F074F5
:1039D30005120AD0E4F07406120AD0E41239EE128A
:1039E3000BCD7407023B0EE8F0A3E91239F2221261
:1039F3003953AA82AB832274F41203708A088B09A9
:103A03008A828B83125909EE4F7003023B0690039F
:103A130012124BC460158A828B83A3A3E0F9EEFADA
:103A2300EFFB900313123E401220C08E828F83A3BC
:103A3300A3A3A3A3A3A3A3A3E0640270748E828FA2
:103A430083A3A3A3A3A3A3E054027003023AD885DC
:103A53000882850983A3A3E064E960798E828F835A
:103A6300A3A3A3A3A3A3A3A3A3A3E07014900EC330
:103A7300E0048E828F83A3A3A3A3A3A3A3A3A3A3DF
:103A8300F08E828F83A3A3A3A3A3A3A3A3A3A3E0E3
:103A930014123B08A3A3A37404F0900EC41253445E
:103AA300E8F0A3E912641D8B0BEA450B7003125D6A
:103AB300FB8E828F83A3A3A3A3A3A3A3A3A3E064E7
:103AC3000260128E828F83A3A3A3A3A3A3A3A3A3A2
:103AD300E06406702E8E828F83A3A3A3A3A3A3E027
:103AE300A2E0501F850882850983A3A3E0F9EEFABB
:103AF300EFFB121FA78E828F83A3A3A3A3A3A3E02D
:103B030054FEF08009123D4F22740D1208837F0486
:103B13000205CF74EC12037074DD1208FEEAFEEBAB
:103B2300FF8C088D097437120AD0780C120A73754A
:103B33000A007405120AD0AC82AD83121FFB741203
:103B4300120AD0E070087415120AD0E060207405E0
:103B5300120AD0E0A2E6501E8E828F83A3A3A3A3F2
:103B6300A3A3A3A3A312503E120F7BE9600879031A
:103B7300121EBD023D357405120AD0E0540C6404D4
:103B83007005750B018003750B00E0A2E5503575D8
:103B93000A01E50BA2E0402C120EF78A108B11A844
:103BA30010A911123745E0687003A3E0696015742A
:103BB30005120AD01268FC12503A121FB3E96004CE
:103BC300790480AC7405120AD0E0A2E65022740690
:103BD300120AD0E0540370187405120AD0E0540C92
:103BE300640C600CE0540C640860057510018003DC
:103BF3007510007405120AD0E05403F8740268705B
:103C03000C1268FC12503A121FE9023D3574016828
:103C1300703AE510A2E05003123D3D7405120AD03C
:103C2300A882A9837403120AD0E8F0A3E9124322FD
:103C3300851882851983123D47E0C0E07402120A99
:103C4300D0D0E01239EE122097023D35E86003022E
:103C53003D3590035FE0640170108E828F83A3A3D0
:103C6300A3A3A3A3E07003023BC37422120AD0747C
:103C730002124322741A120AD0123967E510A2E025
:103C830050087405120AD0123D3DE50BA2E0506ABC
:103C9300EE240FF582EF125FC0C0E07417120AD052
:103CA300D0E0F0900314124BC47003023D35120EA2
:103CB300F78A128B13A812A913741A120AD0E06898
:103CC3007003A3E069706B780C120868780A120815
:103CD300747808120870A910740C120AD0AC82AD63
:103CE300837421120AD0AA82AB83900314123E3D3F
:103CF3001220C074071208838038780C1208687881
:103D03000A120874780812087090037512069CEE64
:103D13002412F582EF125CEE7423120AD0AC82AD4A
:103D230083740E120AD0AA82AB83121F9B740912EA
:103D3300088374231208830263E81268FC1254D9BF
:103D4300121FF522E8F0A3E9123D4F22123D532240
:103D5300F08E828F83A3A3A3A3A3A32274F71203DA
:103D63007012187B0238C474F712037012188D0294
:103D730038C4C082C08312188702358774F71203D0
:103D8300701218930238C474F71203707409120A7C
:103D9300D0E0F508780812087412189F74010238ED
:103DA300C1C082C0831218AB023587C082C08312A0
:103DB30018B102358774F71203701218B70238C4AA
:103DC30074F7120370EAFEEBFF890874016508704B
:103DD300147900120D239024CCE493FC7900EEFABD
:103DE300EFFB120C990238C474F412037074F912C5
:103DF30008FEE9FE8A088B098C0A8D0B7413120ADC
:103E0300D012503E900577124BC46027EE8518827E
:103E1300851983F07401120AD07808120A91EAF81E
:103E2300EBF97405120AD01239EA900577123E3D78
:103E33001220C00239E5FB90034BE0F8A3E0F583C1
:103E430088822274F7120370900E60E0F97E00807E
:103E53000B125FAC540D64017001190E12404050F7
:103E630003E970ED0238C474F7120370900E61E039
:103E7300F97E00800B125FAC548D64817001190EC2
:103E83001240405003E970ED0238C474F21203701B
:103E9300890BE975F006A4240CF508E5F01230E966
:103EA3008A0CE508250CFAE5093400FB1216FB8A97
:103EB3000C8B0DAE0CAF0DEE4F6027AC08AD09793E
:103EC30000121635123745E50BF0EE2508F8EF35ED
:103ED30009F98E828F83A3A3A3A3A3A3A3A3A312EE
:103EE3003967EEFAEFFB024E3974F6120370EAFEFD
:103EF300EBFF120C75900E5FE0F8E9C39840099050
:103F0300034512503E120C7BEE2402F8EF12564E7C
:103F1300900347125508900347E004F0EEFAEFFBD5
:103F2300120C81850882850983E0025B04C082C08C
:103F330083790090034580010912503E8A828B8366
:103F4300E582458370F202358774F7120370EAFE47
:103F5300EBFFEE4F6056900345124BC4604E8882D0
:103F630089837A007B00EE65827003EF6583600FBF
:103F7300AA82AB83123FB2E5824583602F80E7902C
:103F83000345123FBE687002EF698E828F8370080B
:103F930012395B90034580031263FA123967EEFA14
:103FA300EFFB122067EEFAEFFB1217010238C4127F
:103FB3003FB622124332888289832212432EEE2295
:103FC300C082C083900345800488828983124BC4D6
:103FD300600B88828983124676EC4D70EC8A828B63
:103FE30083E4F0A3F0E84960068882898380039024
:103FF30003451238D402358774F7120370900345D2
:1040030080048A828B8312403B4B60257E008001B3
:104013000E12404050ECEE75F006A4FCADF0EA2C15
:10402300FCEB3DFDEC2410F582ED12409070E18035
:10403300047A007B000238C41254DDEA221240994C
:10404300EEC3982274F71203707D0080010D1240B5
:1040530095EDC3985034ED75F006A4FEA8F0E8FF83
:10406300EA2EFEEB3FFFEE2410F582EF1240907034
:10407300DCED75F006A4FEE8FFEA2EFAEB3FFBEA5F
:104083002411F582EB125FC04CF00238C4125FCCEE
:10409300692212409922126906EB3400F583E0F895
:1040A3002274F6120370120D9B7A007B008025EABE
:1040B300F8EBF9E875F006A4F8ACF075F006E9A49E
:1040C3002C1254B21267C7A3E41255A8F0A31267C7
:1040D300CD1269449024B7122D6840D37A007B0037
:1040E300801C8A088B09740378081209B3124F667F
:1040F300A374FEF0A304125388A3E412694490242A
:10410300C012414340DC7A007B00801D8A088B0982
:10411300740378081209B374A4125C38740D126422
:104123007F74FEF0A3041269449024C612414340F5
:10413300DB9024CAE493900353F012414D0239708B
:10414300E493F8C3EA98EB9400227CE87D037A10A9
:104153007B009003C2E0F91217BB2274F0120370C4
:1041630074F51208FE8A088B09890A8C0BE9A2E010
:1041730050147508FC7509FFA2E15005D2E4024210
:1041830020D2E3024220124E257003A3E06970059A
:1041930079000242EDAC0A7902AA08AB09120D7745
:1041A300E960EDE50AF50C780C12087479027CFEDF
:1041B3007DFFAA08AB09124BA0120883E960030232
:1041C30042EBE50AC2E5F50A9003B5E07051E50A52
:1041D300A2E6404B7403120AD0AC82AD83AA08ABAB
:1041E30009120B19E970321244C18A0C8B0DA80C09
:1041F300A90DE8FEE9FFE8496025EE24020A0AEF6B
:10420300122A78601AEE2402FCEF3400FD740312C4
:104213000AD0AA82AB83121ED5E50AD2E5F50A902D
:104223000348E0F50C900368E0F50EA3E0F50F7882
:104233000E1208707D017C00900348E0F9AA0EABD2
:104243000F120D2F7402120883E9F8900348E0045B
:10425300F0E860030242EBE50AA2E55004740E8025
:10426300027406C0E07401120AD0D0E012591A8A0F
:104273000E8B0FAE0EAF0FEE4F606912430B12435E
:1042830022888289837401F07478550AA312690C19
:10429300E50C12690CA3E508F0E5091242FAE4F013
:1042A300E50AA2E5500F7403120AD0AC82AD83E88D
:1042B30024061242F18E828F83A3A374FDF0A374AC
:1042C300FFF0E50B60159024CDE493F8E50BC3985C
:1042D3005009EE24131258EDE50BF0EEFAEFFB1242
:1042E3000BBB80067910800279C7740B8049FAE909
:1042F3003400FB121ED52288828983A3A3A3A312B1
:10430300430622125681A322EE24171258FE74018B
:10431300F0120EF1EE241A1258FEEAF0A3EB22F08B
:10432300126900340012432C22F58312433222E037
:10433300F8A3E0F922740D1208837F080205CF74F5
:10434300F61203707A007B10125E0860089003D4A3
:104353007401F08029900616E06401900EC1700686
:10436300E0FC79018004E0FC79037A007B00120C05
:10437300999024B51243847A007B10124392023938
:104383007012438822E493FC740193FD227B009016
:1043930003C2E0F91217B52274EC1203708A088B7A
:1043A300098C0C8D0D890E7414120AD0124D7F7472
:1043B30016120AD0E0F510A3E0F511120F7BE960A5
:1043C300077AFF7BFF0244BE900EC0E064026003E5
:1043D3000244B17900AA08AB09120D7DA90E120D92
:1043E300718A128B13AE12AF13EE4F70030244990E
:1043F3008E828F83A3A3A3A3A3E064018E828F8302
:10440300A3A3706912503E8E828F83A3A3A3A3A399
:10441300A3E0541860439024CBE4938E828F83A34C
:10442300A3A3A3F0EA650C7003EB650D6014EA65C2
:104433000A7003EB650B600AEA65107003EB651104
:10444300701F7810120870AC0AAD0BAA0CAB0D12DA
:10445300107774021208838008900367125DF2A339
:10446300F074FE6A700374FF6B601D804EA3A3A3F8
:10447300E0640360298E828F83A3A3A3A3A3E064D4
:104483000470057AFE0243C68E828F83A3A3A3A37F
:10449300A3E0640270089003B4E064027010124455
:1044A300C18B0BEA450B6006AA08AB09800DAA086D
:1044B300AB09900349123E3D1220C00263E890030A
:1044C30075124BA612103B2274F7120370EAFEEB2F
:1044D300FF120B6DE9700AEEFAEFFB120B79E9603C
:1044E30006EEFAEFFB80047AFE7BFF0238C474F019
:1044F3001203708A0A8B0B8C0E8D0F8909750800C5
:10450300120F7BE979006003024668AA0AAB0B121B
:104513000D7DA909120D718A0C8B0DAE0CAF0DEE3A
:104523004F60198E828F83A3A3A3A3A3E0640270B9
:10453300559003B4E064027003024666AA0AAB0B0B
:1045430090034F123E3D1220C0120B7F8A0C8B0D3D
:10455300A80CA90DE849700302466688828983A3E3
:10456300A3A3A3A3E0A2E04003024666750C01A245
:10457300E150687901AC0AAD0BAA0EAB0F120CC95E
:10458300E970640246668E828F83A3A3A3A3A3E08C
:1045930064037005750C0280528E828F83A3A3A3DC
:1045A300A3A3E06401600302466690037512467696
:1045B3008E828F831249CB8A0C8B0DA80CA90DE830
:1045C3004960D19024C4E493FA88828983E0C39A32
:1045D30050C2A3E0600302466680B988828983A340
:1045E300A3A3A3A3D2E1F0EE4F603A8E828F83A3FD
:1045F300A3A3A3A3A3E05418602B7508018E828F95
:1046030083A3A312069C750CFE750DFF780C12088C
:10461300707900AC0AAD0BAA0EAB0F120D8F7404A8
:10462300120883803E900368E0650E7004A3E06582
:104633000F70149024CCE493FCA909AA0AAB0B12C3
:104643000C99750801801CA90CAC0AAD0BAA0EAB22
:104653000F120CC9E9700C750801A909AA0AAB0B62
:10466300120D23A90802433DE50C2415F582E50D3F
:1046730012590112535E2274EA12037074F0120885
:10468300FE8A0C8B0D8C088D097426120AD0E0F576
:1046930014A3E0F5157512069003F5124BC46023BD
:1046A300900375124676AA08AB091210658A108B1F
:1046B30011EA4511600D8A828B83A3E070057900AE
:1046C3000249B3E50C241DF50EE50D3400F50F8505
:1046D3000E82124BB0F51388828983A3A3A3E0FA59
:1046E30088828983A3A3A3A3E0F9EA2400FEE43923
:1046F300FFAA08AB09120D29850E82850F83124983
:10470300EEE029F50BE50AA2E5500375120E748756
:10471300550A70177418550A6418600FE50C2417AE
:10472300F582E50D125FC0651260077901121EBDA7
:10473300808C530A78C3EE94F8EF94FF501D7900F0
:10474300EEFAEFFB1249BD601288828983A3A3A30B
:10475300A3A3A3E0541860030246C17808120870AB
:104763007D001249E1120883E9F8740368700302BB
:1047730046C1E8600302482C7418550A70030248C6
:10478300E1E50AD2E0F50AA2E45004D2E1F50AA970
:104793000A1250371249BD605388828983A3A3A3A9
:1047A300A3A3A3E05418604488828983A3A3A3A38B
:1047B300A3E064017036E510451160309003751273
:1047C3004676888289831249CB8A0E8B0FA80EA95D
:1047D3000FE849601788828983A3E0600F85108200
:1047E300851183A3125B0F50030246C1E50AF50E40
:1047F300780E1208741249D4120883E9702B7C00D6
:104803007D0085148285158374FFF0A3F0850C82E7
:10481300850D83A3A3A3A3A3A3A3A3E060031246CD
:104823006BA90B1250371218A5851482851583E0E6
:10483300F47003A3E0F460399003B4E064027003FE
:104843000246C1124D70E0FAA3E0123E391220C0B5
:10485300EA65087003EB650960030246C1EEFAEFEF
:10486300123E391220C0851482851583EAF0A3EB2A
:10487300F078081208707D011249E1120883A90A31
:10488300EEFAEFFB120D7D8A088B09A808A909909F
:104893000368E0687003A3E06960030249A4EEFAC9
:1048A300EFFB120B7F8A088B09A808A909E8496066
:1048B3006E88828983A3A3A3A3E06401600D888229
:1048C3008983A3A3A3A3E064027054851882851986
:1048D30083AC82AD83EEFAEFFB120B198055900384
:1048E30061E0600FE50AF50E780E1208741249D4E0
:1048F300120883E50AF50E780E12087479027CFE1D
:104903007DFFEEFAEFFB124BA0120883E96003026E
:10491300482C85148285158374FFF0A30248731213
:104923000EF1EAFCEBFD851882851983AA82AB831D
:10493300121ED5850C82850D83A3A3A3A3A3A3A3D2
:10494300A3E06401700F12466B7408120AD0AA82A6
:10495300AB83121ED5124B7A1257864430F5087872
:10496300081208747401120AD085820885830978B5
:1049730008120870740B120AD0858208858309789F
:1049830008120870E513F50878081208747900EE28
:10499300FCEFFD125037120CC37406120883024653
:1049A300C1124B7A1258F01249EEE50BF0120F09BF
:1049B30074101208837F0E0205CF120D718A0E8BBD
:1049C3000FA80EA90FE84922A3A31254DD12106504
:1049D300227901AC08AD091254D2124BA022AC0BC0
:1049E300A9131254D2120D2F74022212578EA3A3AD
:1049F300A3A32274F012037074F01208FE8A0C8BC6
:104A03000DECFAEDFB750F089003F5124BC460141F
:104A1300125B088A828B83E58245836007A3E0707B
:104A230003024B75124B7A3400124BB0F50B88829C
:104A33008983124B83E0FBEC2400FEE43BFF888276
:104A43008983A3A3124B83A3A3E0FBECF508E43B08
:104A5300F50988828983A3A3A3A3A3A3A3E0F50EE7
:104A6300E50AA2E45003750F10A2E5500674082569
:104A73000FF50F748F550A700FE50C2417F582E5B7
:104A83000D125FC0650F60087901121EBD024B75E0
:104A9300530A707800E50AA2E45022124B7A125F9F
:104AA300C02408FCA3E03400FD7408120AD0AA82D3
:104AB300AB83121ED57808E50AC2E4F50AE50AA21B
:104AC300E55028124B7A125FC028F8A3E03400F9AE
:104AD300E82408FCE93400FD851882851983AA823D
:104AE300AB83121ED5E50AC2E5F50AAC0EA90BEE9F
:104AF300FAEFFB120D35E9F87403686075900368EB
:104B0300E06E7003A3E06F605EE87054E50AF50F92
:104B1300780F120874124B91120883E97054780AC3
:104B23001208747401120AD085820C85830D780CE7
:104B3300120870740B120AD085820C85830D780CD1
:104B4300120870E50BF50A780A120874A90EAC086E
:104B5300AD09EEFAEFFB120CC37406120883801240
:104B6300740468700D80B7780A120874124B91129E
:104B73000883741002433AE50C241DF582E50D22E7
:104B8300A3A3A3E0FC88828983A3A3A3A32279011F
:104B9300124D77125901124BA6124BA022120CEDA3
:104BA300740122E0FCA3E0FDAA08AB0922F58312FD
:104BB3003FB6A3E0F50A88828983A3A3E02290038A
:104BC300391255392274E812037074F51208FEEA9B
:104BD300FEEBFF8C088D0989147423120AD0E0F5CB
:104BE3000F7424120AD0E0F512A3E0F51374261211
:104BF3000AD0E0F516A3E0F5177428120AD0E0F501
:104C03000EA90F120D3B8A108B117401120AD07476
:104C130008F0E50EA2E450037410F0E50EA2E5508F
:104C230004E02408F0851882851983AA82AB8312D5
:104C33000F638A0C8B0DEA450D7003024D57EA246E
:104C430017F582EB124D69120EF1E50C241AF58269
:104C5300E50D1258F01238D47403120AD0AC82ADA9
:104C630083AA10AB11120B19E9601D124D61740375
:104C7300120AD0A882A983E50C2418F582E50D1247
:104C830058F0E8F0A3E98024E50EA2E4501FE510F4
:104C93006E7003E5116F7015124D61E50C2418F564
:104CA30082E50D1258F0E512F0A3E513F0124D70F2
:104CB300124D7F850A82F5837402F0A3E50E124D2F
:104CC30087E50FF0EE850A82850B83A3A3A3F0EF9C
:104CD300850A82850B83A3A3A3A3124D87A3A3A352
:104CE300E508F0E509850A82850B83A3A3A3A3A3A3
:104CF300A3F0AA10AB11120D29E92514850A8285A8
:104D03000B83A3A3A3A3A3A3A3F0750800E50EA29B
:104D1300E45011AC12AD13E50A2408FAE50B124274
:104D2300F3750808E50EA2E55014AC16AD17E50AB5
:104D33002508F8E50B3400F9E824081242F1850C44
:104D430082850D83A3A3E510F0A3E511F0AA0CABB4
:104D53000D120BBB740B1208837F100205CFE50CF9
:104D63002416F582E50D1259017401F022124D77D4
:104D730012590122E50C126907E50D22E0F50AA399
:104D8300E0F50B22F0850A82850B83A3A32274F23C
:104D93001203708A088B09ECFEEDFF890A79001271
:104DA3004E257003A3E069700479018073750B01CC
:104DB300900368E065087004A3E06509601F750B44
:104DC30000780B120874A90AEEFCEFFDAA08AB09E0
:104DD300120FB77401120883E9F50B80417900EED5
:104DE300FAEFFB120D71EA4B602B8A828B83A3A32C
:104DF300A3A3A3A3E05418601C7508FE7509FF78EC
:104E0300081208708A828B83A3A312069C12671C64
:104E130012088380097901EEFAEFFB120C51A90BFA
:104E23008014120D7D8A0C8B0DA80CA90D900368BC
:104E3300E068221208837F060205CF74F412037020
:104E43007508EC75090B7A101264248B0BEA450B79
:104E5300700312414D900353E014F0700C9024CA78
:104E6300E493900353F0120D897E007F00806C85DC
:104E73000882850983A3A3A3A3E06059F46056E5E0
:104E8300082404F582E509125DEC704985088285E2
:104E93000983A3A3A3A3A3E064037019790285087C
:104EA30082850983124676850882850983A3A31226
:104EB300503E120CC9850882850983A3A3A3A3A32B
:104EC300E06401601085088285098374FEF0A30401
:104ED300124F98E4F012328F1230E19024B9126528
:104EE30080408C7E007F008039120E978E088F09D8
:104EF300740378081209B374642508FC740D35092A
:104F0300FD7AD57B0C120E85EA4B70DD8E088F0976
:104F1300740378081209B3124F661267C7E4F012DC
:104F2300328F9024C0E493F8C3EE98EF9400501BA3
:104F33008E088F09740378081209B3124F6EE824A0
:104F430007F582E9125DEC70D680A17E007F0080B8
:104F53000A124F79600214F012328F12657D40F10C
:104F6300023B11124F6E888289832274642508F8EC
:104F7300740D3509F922EEF8EFF9E875F006A4F897
:104F8300AAF075F006E9A42AF9740428F582740DD1
:104F930039F583E022124F9FA3A3A322F085088251
:104FA300850983A3A32274F712037074E11208FE28
:104FB300ECFEEDFF750800EE4F60728A828B83E092
:104FC300241C125E1D124BC460638A828B831250B1
:104FD3003E851882851983AC82AD83EA241BF58252
:104FE300EB125CEEEA241CF582EB12503A120ED956
:104FF300740B120AD01250427003A3E069702E742E
:1050030002120AD0E064017024741D120AD0123E09
:105013003DE064017017741D120AD0123E3FA3A332
:10502300E0F88E828F83E0687003750801A9087425
:105033001F0238C1124D773400F5831254DD22125A
:105043002A36E0682274F4120370E9702479009020
:10505300034D123E3D1220C08A0A8B0BAE0AAF0BE2
:1050630074FE6E700374FF6F701A9024C7E493602C
:1050730013790190034D123E3D1220C08A0A8B0B17
:10508300AE0AAF0B120F270233E374F612037074E8
:10509300F31208FE12164D8A088B09AE08AF099069
:1050A3000368E06E7003A3E06F60E9120EFDEA6E21
:1050B3007002EB6F60DEEEFAEFFB120F7BE970D448
:1050C300EE4F60D0851882851983E4F004120AD06C
:1050D300EEF0A3EF1250F0E970BA74FE6E70037431
:1050E300FF6F60B0EEFAEFFB740D02396D1239F207
:1050F300120B3122C082C083120F270235877F0A29
:105103000205CF74F2120370EAFEEBFF8C0A8D0BDB
:105113008908740E120AD0E0F50974FC6E700374EA
:10512300FF6F70057900024E397900120D7D8A0CEC
:105133008B0DAE0CAF0D900368E06E7003A3E06FB0
:105143007006E509A2E650DCA90912660A706179C6
:10515300007AFE7BFF12660A7056741855097003B5
:1051630002523D780079008003122C309024B9124A
:105173002C27400302523DE8FAE9FBEA75F007A445
:10518300FAACF075F007EBA42CFB74F22AF58274E9
:105193000B3BF583E0541870D0E875F007A4F8AA28
:1051A300F075F007E9A42AF974EC28F8740B39F9BF
:1051B30088828983A3A3A3A3A3A3E05418600974DB
:1051C300185509700302512788828983EEF0A3EFF3
:1051D300F074FE650A700474FF650B600312536478
:1051E30088828983A3A3A3A3A3A3E509F0A2E05024
:1051F3000D88828983A3A3A3A3A3A3D2E2F074019E
:10520300650888828983A3A3A3A3A37038740112BA
:105213005388E0541860289024CBE49388828983D0
:10522300A3A3A3A31253521210658B0DEA450D607D
:1052330003025127780079008039790202512990BD
:105243000367E080D7E064017003025127888289F5
:1052530083A3A3A3A3A3A3E0541860079024CBE4E0
:10526300938004900366E01242FAE508F0025127A6
:10527300122C309024C1E493FAC3E89AE9940040D5
:10528300030251277A007B00804BEAFCEBFDEC75AF
:10529300F007A4FCAEF075F007EDA42EFD74EE2C20
:1052A300F582740B3DF583125909E8FCE9FDEC75B1
:1052B300F017A4FC85F00975F017EDA42509FD741A
:1052C3007C2CF582740A3DF583E06E7003A3E06FD6
:1052D300609E1231649024B91230F140AD124384C0
:1052E300EC6A7002ED6B7088E875F017A4F8AAF009
:1052F30075F017E9A42AF9747C28FE740A39FF7C37
:10530300177D007900EEFAEFFB1216358E828F833C
:1053130012536A900375125344A3A3A3A3A3A3E850
:10532300F0A3E912534A7401F0EE240E1258ED74FF
:105333000112537212021FEE240D1258EDE80252AD
:105343006F123756A3A322F0EE240F1258FE22F059
:1053530012535BAA0AAB0B22900375E0FCA3E0FD9A
:105363002288828983A3A3E50AF0A3E50BF022F048
:10537300125377229024C4E4932401F8E43400F90F
:105383007A027B0022124306A32274ED1203708A71
:10539300088B09890E1254BB400579050254891202
:1053A30018EDAA08AB0912558D9024B712548C65D9
:1053B3000A7003E9650B70077AFE7BFF12558D9027
:1053C30024B7E4125494E50A98E50B994003025478
:1053D300871254986012E50A75F006A4F875F00672
:1053E300E50B1254E3121701E50E6018E50A75F098
:1053F30006A4F8AAF075F006E50B12550F701A799A
:1054030001025489E50A75F006A4F8AAF075F006BE
:10541300E50B1254F0E4F0A3F0E50A75F006A4F8E6
:10542300AAF075F006E50B1254B0A312579C8882BC
:105433008983A3AA82AB831254FE8A828B83E060A2
:105443003F125498603A8E108F1175120078101223
:10545300086CE50EC333FCE433FDE50A75F006A4DE
:10546300F50AA8F075F006E50BA428F50B740825DA
:105473000AF582740D350B12503C12310212088367
:10548300790080027907026620122D89E822902490
:10549300AF125FA722E50A75F006A4F8AAF075F02B
:1054A30006E50B1254EBF8A3E0F9E84922A42A120B
:1054B300564488828983A322ECFEEDFF9024C2E444
:1054C30093F8E9C39822F5831254DD12170122E5FC
:1054D3000C126907E50D3400F583E0FAA3E0FB2223
:1054E3001254EBFAA3E0FB221254F0E022A42AF9AF
:1054F300740828F582740D39F58322E50EF0900EB9
:10550300C212550822E088828983F022125668F578
:105513000CE93400F50DE50EC333FAE433FB121640
:10552300FB850C82850D83EAF0A3EBF0850C828565
:105533000D8312553922124332E8492274F41203BF
:1055430070ECFEEDFF740C120AD012395B880889E7
:105553000912558DAC0AAD0BECF8EDF99024B71296
:1055630055955021E875F006A4F8AAF075F006E900
:105573001254B0E08E828F831255A812559E1239B1
:1055830067790080027904023B11120CFF8A0A8BAF
:105593000B221230FAC3EC9AED9B2212432E85089C
:1055A300828509832212567D2274F61203707E00CF
:1055B3007F008028EEF8EFF9E875F006A4F8ACF068
:1055C30075F006E9A42CF9740628F582740D1262AD
:1055D3002B6A7003A3E06B605712328F12657D4014
:1055E300D31265787002E96F704674FE6A700374B3
:1055F300FF6B703C7E007F00800312328F12657D4B
:10560300502E124F7970F3EEF8EFF9E875F006A417
:10561300F812563A12566F6017125656F8E9125698
:105623004E88821254C9850882850983E4F0A3F069
:10563300EEFAEFFB02397075F006E912564222A426
:105643002AF9740428F8740D39F9223400F988080A
:10565300890922EEF8EFF9E875F006A4F875F0066B
:10566300E912566822125642E8240422A3A374FEC8
:1056730012567A12553922F0A30412568122F08869
:10568300828983A3A3A3A32274F6120370EA241DC1
:10569300F582EB125786F9604BEA241DF582EB1273
:1056A3005FC02402FCA3E03400FD1254BF40030298
:1056B3005779780080298C828D83E0F508A3E0FF79
:1056C300E5082400E43FF509E833FEE433FF744CB6
:1056D3002EF582740D3FF58312579C12577C08E810
:1056E300C39940D28A828B83A3A3A3A3A3A3A3A317
:1056F300A3124676900368E06C7003A3E06D700F0D
:105703007C4C7D0D12299F12503A120CF38067EAEC
:105713002411F582EB125FC0605CFC74FF2CF07502
:105723000801780812087475084C75090D78081279
:105733000870E9F5087808120874EA2412F582EB78
:10574300125FC0F5087808120874EA2415F582EB95
:105753001258F012069CECF912299F1246738A82A2
:105763008B83A3A3A3A3A3A3A3A3A312503E120DAE
:105773000B7407120883023970EC24020C0CED340D
:1057830000FD2212590112578EE022E0F8A3E0F542
:10579300838882A32288828983E508F0A3E509F040
:1057A3002274EA12037074FD1208FE8A148B158C9E
:1057B3000E8D0F890D7419120AD0125909741B1218
:1057C3000AD0E0F511741C120AD0E0F50C741D1216
:1057D3000AD0124D7F741F120AD0E0F5106008E55D
:1057E3000CC333240480027402C0E07401120AD093
:1057F300D0E012591A8A088B09EA45097003025846
:10580300E58A828B83A3A3E514F0A3E51512641341
:10581300E50EF0A3E50FF0EA2413F582EB1258F03E
:10582300E50DF0EA2414F582EB1258F0E511F0EAE5
:105833002417F582EB125FC064017040120EF78AE1
:105843000E8B0FA80EA90F850882850983A3A3A336
:10585300A3E0687003A3E0696022EE4F6011E508DE
:10586300241AF582E5091258F0EEF0A3EF800CE557
:10587300082417F582E5091258F0E4F01258F412DF
:1058830059098E828F837405F0A3E5107004E50C2B
:1058930080487401250C1259137A008028850A82E6
:1058A300850B83E012590F850A82850B83A3E08E53
:1058B300828F83F0E50A2402F50AE50B3400F50B29
:1058C300A30EAF830AEAC3950C40D2120EF7EA1275
:1058D300590F120EF7EB8E828F83F0AA08AB0912D1
:1058E3000BBB74030249B5EE240CF582EF12590188
:1058F300221229B012590122EE240BF582EF340053
:10590300F58322900334E0FEA3E0FF228E828F838F
:10591300F0A3AE82AF83221239F2120F6322C08248
:10592300C083E9C333FCE433FDEA2CFAEB3DFBEA25
:1059330024FEF582EB34FF12503C02358774F212D9
:10594300037089098A0A1254BB40047900804075A8
:10595300080080020508E508C39509502AE508C335
:1059630033F8E433F9EE28F582EF39F583C082C0CA
:1059730083120EF78A0C8B0DD083D082E0650C70F6
:1059830004A3E0650D70CDE50A650870BE790102D8
:105993004E3974F012037074F31208FE8A088B09EF
:1059A3008C0A8D0B890C750D00120F7BE979006051
:1059B30003025A97AA08AB09120D7DA90C120D71A7
:1059C3008A0E8B0FAE0EAF0FEE4F7003025A958EF9
:1059D300828F83A3A3A3A3A3A3E0A2E24003025A5B
:1059E30095120EF7EA650A7003EB650B7011780DDB
:1059F300120874E4F50EF50F780E1208708044AAAD
:105A03000AAB0B120B73E964017068851882851960
:105A1300837404F07401120AD012536A85188285C4
:105A23001983AA82AB83120B31E964017045750DAA
:105A330001780D120874E4F50EF50F780E12087054
:105A4300750D00780D120874780D1208747408121D
:105A53000AD085820E85830F780E1208709024CDAC
:105A6300E493F9AC0AAD0BAA08AB09120D0B74074A
:105A73001208838E828F83A3A3A3A3A3A3E0A2E12F
:105A8300400D8E828F83A3A3A3A3A3A3C2E2F075C9
:105A93000D01A90D02433874F6120370E9FE790073
:105AA300120D7DEEF9120D718A088B09A808A90958
:105AB300E849600612694EF980027904023970746C
:105AC300F61203707E0790035CE07034125B088A61
:105AD300088B09A808A909E8496025900361E064D7
:105AE3000188828983A3A3700B125B0F8882898349
:105AF3005001A3A3E0F9121083E9FEEE70027E07C2
:105B0300EEF902397012535B12106522E0FA8882B3
:105B13008983A3E0C39A2274EE120370EAFEEBFFBB
:105B2300890A8C0C8D0B7412120AD012374A125B3D
